:020000040800F2
:1000000000000320594400088D4300089B4300086A
:10001000A1430008A7430008AD430008000000000A
:10002000000000000000000000000000B3430008D2
:10003000C143000800000000CF430008DD43000872
:10004000A9440008A9440008A9440008A9440008DC
:10005000A9440008A9440008A9440008A9440008CC
:10006000A9440008A9440008A9440008A9440008BC
:10007000A9440008A9440008A9440008A9440008AC
:10008000A9440008A9440008A9440008A94400089C
:10009000A9440008A9440008A9440008A94400088C
:1000A000A9440008A9440008A9440008A94400087C
:1000B000A9440008A9440008A9440008A94400086C
:1000C000A9440008A9440008A9440008A94400085C
:1000D000A9440008A9440008A9440008A94400084C
:1000E000A9440008A9440008A9440008A94400083C
:1000F000A9440008A9440008A9440008A94400082C
:10010000A9440008A9440008A9440008A94400081B
:10011000A9440008A9440008A9440008A94400080B
:10012000A9440008A9440008A9440008A9440008FB
:10013000A9440008A9440008A9440008A9440008EB
:10014000A9440008A9440008A9440008A9440008DB
:10015000A9440008A9440008A9440008A9440008CB
:10016000A9440008A9440008A9440008A9440008BB
:10017000A9440008A9440008A944000800000000A0
:10018000A9440008A9440008A9440008A94400089B
:10019000A9440008A9440008A9440008A94400088B
:0C01A000A9440008A9440008A944000874
:1001B00010B5054C237833B9044B13B10448AFF3A1
:1001C00000800123237010BD70000020000000009B
:1001D0006C53000808B5034B1BB103490348AFF348
:1001E000008008BD00000000740000206C5300086F
:1001F00001F0FF01102A2BDB10F0070F08D010F8D8
:10020000013B013A8B422DD010F0070F42B3F6D1DB
:10021000F0B441EA012141EA014122F007047FF0F4
:1002200000070023F0E80256083C85EA010586EA4B
:10023000010685FA47F5A3FA87F586FA47F6A5FA87
:1002400087F68EB9EED1F0BC01F0FF0102F0070293
:1002500032B110F8013B013A83EA010313B1F8D13E
:100260000020704701387047002D06BF354603381F
:10027000073815F0010F07D1013015F4807F02BF58
:10028000013015F4C03F0130F0BC0138704700BFA9
:1002900053B94AB9002908BF00281CBF4FF0FF31ED
:1002A0004FF0FF3000F07AB9ADF1080C6DE904CEE3
:1002B00000F006F8DDF804E0DDE9022304B0704741
:1002C0002DE9F0478C460D460446089E002B51D17F
:1002D0008A4217466DD9B2FA82FEBEF1000F0BD0EA
:1002E000CEF1200C01FA0EF520FA0CFC02FA0EF702
:1002F0004CEA050C00FA0EF44FEA174A250CBCFB39
:10030000FAF81FFA87F90AFB18CC45EA0C4508FBF6
:1003100009F3AB420AD9ED1908F1FF3280F02381CD
:10032000AB4240F22081A8F102083D44ED1AA4B28C
:10033000B5FBFAF00AFB105544EA054400FB09F945
:10034000A14509D9E41900F1FF3380F00A81A145E4
:1003500040F2078102383C44A4EB090440EA08401B
:100360000021002E61D024FA0EF400233460736063
:10037000BDE8F0878B4207D9002E54D0002186E8D3
:1003800021000846BDE8F087B3FA83F1002940F068
:100390008E80AB4202D3824200F2FA80841A65EB6F
:1003A00003050120AC46002E3FD086E81010BDE8C2
:1003B000F08712B90127B7FBF2F7B7FA87FEBEF153
:1003C000000F34D1EB1B3A0C1FFA87FC0121B3FB61
:1003D000F2F8250C02FB183345EA03450CFB08F341
:1003E000AB4207D9ED1908F1FF3002D2AB4200F25F
:1003F000D1808046ED1AA3B2B5FBF2F002FB105596
:1004000043EA05440CFB00FCA44507D9E41900F1BC
:10041000FF3302D2A44500F2B8801846A4EB0C04C6
:1004200040EA08409DE731463046BDE8F087CEF10E
:10043000200405FA0EF307FA0EF720FA04F83A0C36
:1004400025FA04F448EA0308B4FBF2F14FEA184530
:1004500002FB11441FFA87FC45EA044501FB0CF33B
:10046000AB4200FA0EF409D9ED1901F1FF3080F02A
:100470008A80AB4240F2878002393D44EB1A1FFA72
:1004800088F5B3FBF2F002FB103345EA034500FBAD
:100490000CF3AB4207D9ED1900F1FF386FD2AB4234
:1004A0006DD902383D44EB1A40EA01418FE7C1F1B2
:1004B000200722FA07F88B4005FA01F448EA030303
:1004C00020FA07FE4FEA134CFD404EEA040EB5FB3E
:1004D000FCF94FEA1E440CFB19551FFA83F844EA55
:1004E000054509FB08F4AC4202FA01F200FA01FAF0
:1004F00008D9ED1809F1FF3043D2AC4241D9A9F136
:1005000002091D442D1B1FFA8EFEB5FBFCF00CFBEF
:1005100010554EEA054400FB08F8A04507D9E41839
:1005200000F1FF3529D2A04527D902381C4440EA02
:100530000940A4EB0804A0FB02894C45C6464D4681
:1005400015D312D056B1BAEB0E0364EB050404FACE
:1005500007F7CB401F43CC40376074600021BDE8F3
:10056000F0871846F8E69046E0E6C245EAD2B8EBD6
:10057000020E69EB03050138E4E72846D7E7404659
:1005800091E78146BEE7014678E702383C4445E7FB
:10059000084608E7A8F102083D442BE7704700BF72
:1005A00080B500AF0E4A0E4B1B6843F40073136016
:1005B0000B4A0B4B1B6843F480631360084A084BDB
:1005C0001B6843F480731360032000F041F900209E
:1005D00000F03CF803F0D0FD0023184680BD00BFBA
:1005E000003C024080B500AF134B4FF0FF321A625F
:1005F000114B00221A62104B4FF0FF325A620E4B21
:1006000000225A620C4B4FF0FF321A610A4B002253
:100610001A61094B4FF0FF325A61074B00225A61B1
:10062000054B4FF0FF329A61034B00229A6100F0B4
:1006300005F80023184680BD0038024080B400AFA2
:1006400000BFBD465DF8047B7047000080B582B0F6
:1006500000AF7860124B1A68124B1B7819464FF4A2
:100660007A73B3FBF1F3B2FBF3F3184600F017F91A
:100670000346002B01D001230EE07B680F2B0AD824
:10068000002279684FF0FF3000F0EDF8064A7B68F1
:100690001360002300E0012318460837BD4680BDE3
:1006A00008000020040000200000002080B584B075
:1006B00000AF786003F052F8B8607B68FB60FB68BD
:1006C000B3F1FF3F05D0094B1B781A46FB68134472
:1006D000FB6000BF03F042F80246BB68D21AFB6819
:1006E0009A42F7D300BF1037BD4680BD04000020FA
:1006F00080B485B000AF78607B6803F00703FB60CF
:100700000C4BDB68BB60BA684FF6FF031340BB605D
:10071000FB681A02BB68134343F0BF6343F4003322
:10072000BB60044ABB68D36000BF1437BD465DF8A8
:10073000047B704700ED00E080B400AF044BDB6841
:100740001B0A03F007031846BD465DF8047B70479B
:1007500000ED00E080B483B000AF03463960FB7168
:1007600097F90730002B0BDA0D49FB7903F00F03E3
:10077000043B3A68D2B21201D2B20B441A7609E0B5
:10078000084997F907303A68D2B21201D2B20B4445
:1007900083F8002300BF0C37BD465DF8047B70472B
:1007A00000ED00E000E100E080B489B000AFF86047
:1007B000B9607A60FB6803F00703FB61FB69C3F172
:1007C0000703042B28BF0423BB61FB690433062BFA
:1007D00002D9FB69033B00E000237B610122BB6976
:1007E00002FA03F35A1EBB681A407B699A40012142
:1007F0007B6901FA03F3591E7B680B4013431846CB
:100800002437BD465DF8047B7047000080B582B098
:1008100000AF78607B68013BB3F1807F01D3012397
:100820000FE00A4A7B68013B53600F214FF0FF3015
:10083000FFF790FF054B00229A60044B07221A60D5
:10084000002318460837BD4680BD00BF10E000E019
:1008500080B582B000AF78607868FFF749FF00BFCD
:100860000837BD4680BD80B586B000AF0346B9608D
:100870007A60FB7300237B61FFF75EFF78617A6823
:10088000B9687869FFF790FF024697F90F30114673
:100890001846FFF75FFF00BF1837BD4680BD80B523
:1008A00082B000AF78607868FFF7B0FF0346184663
:1008B0000837BD4680BD000080B483B000AF7860CB
:1008C0007B68042B06D1094A084B1B6843F00403DC
:1008D000136005E0054A054B1B6823F00403136011
:1008E00000BF0C37BD465DF8047B704710E000E0A8
:1008F00080B500AF00F002F800BF80BD80B400AF4B
:1009000000BFBD465DF8047B7047000080B586B02F
:1009100000AFF860B960C7E900230123FB75234BE2
:100920001B7E012B01D102233BE0204B01221A76D2
:100930004CF2503000F07CF80346FB75FB7D002B39
:100940002BD1FB68002B05D13B781946B86800F025
:1009500021F916E0FB68012B05D13B881946B868E0
:1009600000F0F4F80DE0FB68022B05D13B68194656
:10097000B86800F0C9F804E0D7E90023B86800F0CF
:1009800097F84CF2503000F053F80346FB75084AD4
:10099000074B1B6923F001031361044B00221A76F5
:1009A000FB7D18461837BD4680BD00BFA80000205B
:1009B000003C024080B483B000AF0023FB710B4BBE
:1009C0001B69002B0BDA094B094A5A60074B094A8D
:1009D0005A60064B1B69002B01DA0123FB71FB797E
:1009E00018460C37BD465DF8047B7047003C02405A
:1009F00023016745AB89EFCD80B400AF054A054BB5
:100A00001B6943F00043136100231846BD465DF89F
:100A1000047B7047003C024080B400AF034BDB69AD
:100A20001846BD465DF8047B704700BFA800002053
:100A300080B584B000AF78600023FB601A4B0022C1
:100A4000DA6102F08BFEF86010E07B68B3F1FF3FE3
:100A50000CD07B68002B07D002F080FE0246FB68BA
:100A6000D21A7B689A4201D9032319E00F4BDB6845
:100A700003F48033002BE8D10C4BDB6803F0010357
:100A8000002B02D0094B0122DA60084BDB6803F42B
:100A9000F973002B03D000F09FF8012300E000233E
:100AA00018461037BD4680BDA8000020003C02401B
:100AB000F0B484B000AFF860C7E90023114A114BCD
:100AC0001B6923F4407313610E4A0E4B1B6943F4F8
:100AD000407313610B4A0B4B1B6943F00103136115
:100AE000FB683A681A60FB6804331A4697E81800F6
:100AF000250000262B46136000BF1037BD46F0BC12
:100B0000704700BF003C024080B483B000AF786003
:100B100039600D4A0C4B1B6923F4407313610A4A78
:100B2000094B1B6943F400731361074A064B1B69A9
:100B300043F0010313617B683A681A6000BF0C3709
:100B4000BD465DF8047B7047003C024080B483B032
:100B500000AF78600B467B800D4A0D4B1B6923F478
:100B6000407313610A4A0A4B1B6943F48073136193
:100B7000074A074B1B6943F0010313617B687A88BE
:100B80001A8000BF0C37BD465DF8047B704700BF7C
:100B9000003C024080B483B000AF78600B46FB702D
:100BA0000C4A0C4B1B6923F440731361094A094B2F
:100BB0001B691361074A074B1B6943F0010313616B
:100BC0007B68FA781A7000BF0C37BD465DF8047B6D
:100BD000704700BF003C024080B400AF2F4BDB6881
:100BE00003F01003002B08D02D4BDB6943F01003FA
:100BF0002B4AD361294B1022DA60284BDB6803F0C3
:100C00002003002B08D0264BDB6943F00803244A5D
:100C1000D361224B2022DA60204BDB6803F04003D3
:100C2000002B08D01E4BDB6943F004031C4AD36140
:100C30001A4B4022DA60194BDB6803F08003002B6B
:100C400008D0174BDB6943F00203154AD361134BFD
:100C50008022DA60114BDB6803F48073002B09D02B
:100C60000F4BDB6943F001030D4AD3610B4B4FF48B
:100C70008072DA60094BDB6803F00203002B08D0B6
:100C8000074BDB6943F02003054AD361034B022283
:100C9000DA6000BFBD465DF8047B7047003C02404F
:100CA000A800002080B584B000AF786039600123CF
:100CB000FB730023BB60324B1B7E012B01D102234F
:100CC0005AE02F4B01221A764CF25030FFF7B0FE5B
:100CD0000346FB73FB7B002B4AD13B684FF0FF328E
:100CE0001A607B681B68012B17D17B681B69DAB21D
:100CF0007B685B681946104600F046F84CF25030AD
:100D0000FFF796FE0346FB731E4A1E4B1B6923F436
:100D1000004323F00403136128E07B689B68BB60F9
:100D20001CE07B681B69DBB21946B86800F066F806
:100D30004CF25030FFF77CFE0346FB73114A114B17
:100D40001B6923F0FA031361FB7B002B03D03B6884
:100D5000BA681A600AE0BB680133BB607B68DA6876
:100D60007B689B681A44BB689A42DAD800F094F812
:100D7000034B00221A76FB7B18461037BD4680BD18
:100D8000A8000020003C024080B483B000AF0346BE
:100D90003960FB71184A184B1B6923F440731361C7
:100DA0003B68032B08D1144A134B1B6943F40043DF
:100DB00043F0040313610FE03B68012B06D10E4A98
:100DC0000D4B1B6943F00403136105E00A4A0A4B0B
:100DD0001B6943F4004313610749074B1A69FB7908
:100DE0001B02134343F480330B6100BF0C37BD4635
:100DF0005DF8047B704700BF003C024080B485B0C2
:100E000000AF78600B46FB700023FB60FB78002B83
:100E100002D10023FB6010E0FB78012B03D14FF4DB
:100E20008073FB6009E0FB78022B03D14FF4007361
:100E3000FB6002E04FF44073FB607B680B2B02D930
:100E40007B6804337B60134A124B1B6923F44073A5
:100E5000136110490F4B1A69FB6813430B610D4A6C
:100E60000C4B1B6923F0F80313610A49094B1A69FB
:100E70007B68DB00134343F002030B61054A054B1B
:100E80001B6943F48033136100BF1437BD465DF81E
:100E9000047B7047003C024080B400AF204B1B68CD
:100EA00003F40073002B17D01D4A1D4B1B6823F45D
:100EB000007313601A4A1A4B1B6843F400631360F3
:100EC000174A174B1B6823F400631360144A144B32
:100ED0001B6843F400731360114B1B6803F48063B9
:100EE000002B17D00E4A0E4B1B6823F4806313604F
:100EF0000B4A0B4B1B6843F480531360084A084BA2
:100F00001B6823F480531360054A054B1B6843F4A8
:100F10008063136000BFBD465DF8047B704700BF6F
:100F2000003C024080B489B000AF78603960002393
:100F30007B6100233B610023BB610023FB6177E100
:100F40000122FB6902FA03F37B613B681A687B6943
:100F500013403B613A697B699A4240F066813B6885
:100F60005B68022B03D03B685B68122B23D1FB69C3
:100F7000DA087B68083253F82230BB61FB6903F062
:100F800007039B000F2202FA03F3DB43BA69134005
:100F9000BB613B681A69FB6903F007039B0002FA17
:100FA00003F3BA691343BB61FB69DA087B68083253
:100FB000B96943F822107B681B68BB61FB695B0061
:100FC000032202FA03F3DB43BA691340BB613B68B7
:100FD0005B6803F00302FB695B0002FA03F3BA6982
:100FE0001343BB617B68BA691A603B685B68012B7D
:100FF0000BD03B685B68022B07D03B685B68112B0A
:1010000003D03B685B68122B30D17B689B68BB6167
:10101000FB695B00032202FA03F3DB43BA69134066
:10102000BB613B68DA68FB695B0002FA03F3BA69EB
:101030001343BB617B68BA699A607B685B68BB617C
:101040000122FB6902FA03F3DB43BA691340BB6177
:101050003B685B681B0903F00102FB6902FA03F3BA
:10106000BA691343BB617B68BA695A607B68DB6805
:10107000BB61FB695B00032202FA03F3DB43BA693D
:101080001340BB613B689A68FB695B0002FA03F39B
:10109000BA691343BB617B68BA69DA603B685B6815
:1010A00003F08053002B00F0C0800023FB60654AF2
:1010B000644B5B6C43F480435364624B5B6C03F49E
:1010C0008043FB60FB68604AFB699B08023352F86F
:1010D0002330BB61FB6903F003039B000F2202FA7C
:1010E00003F3DB43BA691340BB617B68574A934201
:1010F00037D07B68564A934231D07B68554A934239
:101100002BD07B68544A934225D07B68534A934244
:101110001FD07B68524A934219D07B68514A934250
:1011200013D07B68504A93420DD07B684F4A93425C
:1011300007D07B684E4A934201D1092312E00A236B
:1011400010E008230EE007230CE006230AE0052345
:1011500008E0042306E0032304E0022302E0012365
:1011600000E00023FA6902F0030292009340BA699A
:101170001343BB613449FB699B080233BA6941F8E8
:1011800023203C4B1B68BB613B69DB43BA691340BE
:10119000BB613B685B6803F48033002B03D0BA6902
:1011A0003B691343BB61334ABB691360314B5B68D6
:1011B000BB613B69DB43BA691340BB613B685B6859
:1011C00003F40033002B03D0BA693B691343BB61BE
:1011D000284ABB695360274B9B68BB613B69DB4373
:1011E000BA691340BB613B685B6803F48013002B52
:1011F00003D0BA693B691343BB611E4ABB69936064
:101200001C4BDB68BB613B69DB43BA691340BB61C4
:101210003B685B6803F40013002B03D0BA693B6999
:101220001343BB61134ABB69D360FB690133FB61A4
:10123000FB690F2B7FF684AE00BF2437BD465DF8F7
:10124000047B704700380240003801400000024033
:101250000004024000080240000C0240001002405E
:101260000014024000180240001C0240002002400E
:1012700000240240003C014080B487B000AF786099
:10128000396000233B610023FB600023BB60002327
:101290007B61DAE001227B6902FA03F33B613A6881
:1012A0003B691340FB60FA683B699A4240F0CA8090
:1012B0007B681A687B695B00032101FA03F3DB4357
:1012C0001A407B681A607B69DA087B69D9087B68F9
:1012D000083153F821107B6903F007039B000F20AE
:1012E00000FA03F3DB4319407B68083243F822100D
:1012F0007B689A687B695B00032101FA03F3DB4397
:101300001A407B689A607B685A6801217B6901FA00
:1013100003F3DB431A407B685A607B68DA687B69B9
:101320005B00032101FA03F3DB431A407B68DA60B8
:101330004B4A7B699B08023352F82330BB607B69C0
:1013400003F003039B000F2202FA03F3BA68134071
:10135000BB607B68434A934237D07B68424A9342E2
:1013600031D07B68414A93422BD07B68404A9342FC
:1013700025D07B683F4A93421FD07B683E4A934208
:1013800019D07B683D4A934213D07B683C4A934214
:101390000DD07B683B4A934207D07B683A4A934220
:1013A00001D1092312E00A2310E008230EE00723ED
:1013B0000CE006230AE0052308E0042306E00323EB
:1013C00004E0022302E0012300E000237A6902F036
:1013D0000302920003FA02F2BB689A4232D17B699F
:1013E00003F003039B000F2202FA03F3BB601C48C7
:1013F0007B699B081A497A699208023251F82210D7
:10140000BA68D2430A40023340F823201F491F4BD9
:101410001A68FB68DB4313400B601C491B4B5A687E
:10142000FB68DB4313404B601849184B9A68FB6814
:10143000DB4313408B601549144BDA68FB68DB43D0
:101440001340CB607B6901337B617B690F2B7FF697
:1014500021AF00BF1C37BD465DF8047B704700BF5D
:101460000038014000000240000402400008024031
:10147000000C02400010024000140240001802401C
:10148000001C02400020024000240240003C0140B9
:1014900080B483B000AF78600B467B8013467B70CE
:1014A0007B78002B03D07A887B689A6103E07B8885
:1014B0001A047B689A6100BF0C37BD465DF8047B57
:1014C000704780B483B000AF78600B467B807B6848
:1014D0005A697B885A407B685A6100BF0C37BD4609
:1014E0005DF8047B7047000080B582B000AF002338
:1014F0007B6000233B60204A1F4B1B6C43F08053F2
:1015000013641D4B1B6C03F080533B603B681B4B0B
:1015100001221A6002F022F9786009E002F01EF957
:1015200002467B68D31AB3F57A7F01D903231FE003
:10153000134B5B6803F48033B3F5803FEED1114B5E
:1015400001221A6002F00AF9786009E002F006F957
:1015500002467B68D31AB3F57A7F01D9032307E0EB
:10156000074B5B6803F40033B3F5003FEED1002373
:1015700018460837BD4680BD0038024040000E4284
:101580000070004044000E4280B586B000AF786025
:101590007B68002B01D101232DE27B681B6803F0DF
:1015A0000103002B75D0A34B9B6803F00C03042BA5
:1015B0000CD0A04B9B6803F00C03082B12D19D4B61
:1015C0005B6803F48003B3F5800F0BD1994B1B6864
:1015D00003F40033002B5BD07B685B68002B57D192
:1015E000012308E27B685B68B3F5803F06D1914A2E
:1015F000904B1B6843F4803313601DE07B685B688D
:10160000B3F5A02F0CD18B4A8A4B1B6843F480237F
:101610001360884A874B1B6843F4803313600BE0E8
:10162000844A844B1B6823F480331360814A814BC6
:101630001B6823F4802313607B685B68002B13D046
:1016400002F08CF8386108E002F088F802463B6945
:10165000D31A642B01D90323CDE1764B1B6803F425
:101660000033002BF0D014E002F078F8386108E085
:1016700002F074F802463B69D31A642B01D90323A4
:10168000B9E16C4B1B6803F40033002BF0D100E090
:1016900000BF7B681B6803F00203002B63D0654B1F
:1016A0009B6803F00C03002B0BD0624B9B6803F08C
:1016B0000C03082B1CD15F4B5B6803F48003002BE9
:1016C00016D15C4B1B6803F00203002B05D07B682E
:1016D000DB68012B01D001238DE15649554B1B6876
:1016E00023F0F8027B681B69DB0013430B603AE0D0
:1016F0007B68DB68002B20D04F4B01221A6002F080
:101700002DF8386108E002F029F802463B69D31A47
:10171000022B01D903236EE1464B1B6803F0020341
:10172000002BF0D04349434B1B6823F0F8027B6841
:101730001B69DB0013430B6015E03F4B00221A606E
:1017400002F00CF8386108E002F008F802463B6944
:10175000D31A022B01D903234DE1364B1B6803F04A
:101760000203002BF0D17B681B6803F00803002BF9
:1017700030D07B685B69002B16D0304B01221A6099
:1017800001F0ECFF386108E001F0E8FF02463B6938
:10179000D31A022B01D903232DE1264B5B6F03F0F3
:1017A0000203002BF0D015E0244B00221A6001F058
:1017B000D5FF386108E001F0D1FF02463B69D31A3A
:1017C000022B01D9032316E11A4B5B6F03F00203CE
:1017D000002BF0D17B681B6803F00403002B00F0A2
:1017E000A0800023FB75134B1B6C03F08053002B70
:1017F0000FD10023FB600F4A0E4B1B6C43F080534C
:1018000013640C4B1B6C03F08053FB60FB680123DB
:10181000FB750B4B1B6803F48073002B21D1084A26
:10182000074B1B6843F48073136001F097FF386126
:1018300011E000BF0038024000004742800E4742DE
:101840000070004001F08AFF02463B69D31A022B68
:1018500001D90323CFE06A4B1B6803F48073002B8C
:10186000F0D07B689B68012B06D1664A654B1B6FE5
:1018700043F0010313671CE07B689B68052B0CD1C8
:10188000604A604B1B6F43F0040313675D4A5D4B76
:101890001B6F43F0010313670BE05A4A594B1B6F50
:1018A00023F001031367574A564B1B6F23F00403C1
:1018B00013677B689B68002B15D001F04FFF3861E0
:1018C0000AE001F04BFF02463B69D31A41F288322D
:1018D000934201D903238EE04A4B1B6F03F00203AE
:1018E000002BEED014E001F039FF38610AE001F07E
:1018F00035FF02463B69D31A41F28832934201D93F
:10190000032378E03F4B1B6F03F00203002BEED163
:10191000FB7D012B05D13B4A3A4B1B6C23F08053D6
:1019200013647B689B69002B64D0364B9B6803F083
:101930000C03082B5CD07B689B69022B41D1324B96
:1019400000221A6001F00AFF386108E001F006FF8A
:1019500002463B69D31A022B01D903234BE0294BE2
:101960001B6803F00073002BF0D126497B68DA690D
:101970007B681B6A1A437B685B6A9B011A437B681E
:101980009B6A5B08013B1B041A437B68DB6A1B06EE
:1019900013434B601C4B01221A6001F0DFFE3861DB
:1019A00008E001F0DBFE02463B69D31A022B01D9A5
:1019B000032320E0134B1B6803F00073002BF0D0CF
:1019C00018E0114B00221A6001F0C8FE386108E0EF
:1019D00001F0C4FE02463B69D31A022B01D903234E
:1019E00009E0084B1B6803F00073002BF0D101E005
:1019F000012300E0002318461837BD4680BD00BF14
:101A000000700040003802406000474280B584B05A
:101A100000AF786039607B68002B01D10123CAE0F8
:101A2000674B1B6803F00F023B689A420CD2644B71
:101A30003A68D2B21A70624B1B6803F00F023B681F
:101A40009A4201D00123B6E07B681B6803F00203D1
:101A5000002B20D07B681B6803F00403002B05D00B
:101A6000584A584B9B6843F4E05393607B681B686B
:101A700003F00803002B05D0524A524B9B6843F4F5
:101A8000604393604F494F4B9B6823F0F0027B68A3
:101A90009B6813438B607B681B6803F00103002B7A
:101AA00044D07B685B68012B07D1464B1B6803F46D
:101AB0000033002B19D101237DE07B685B68022B8A
:101AC00003D07B685B68032B07D13E4B1B6803F098
:101AD0000073002B09D101236DE03A4B1B6803F022
:101AE0000203002B01D1012365E03649354B9B6889
:101AF00023F003027B685B6813438B6001F02EFECA
:101B0000F8600AE001F02AFE0246FB68D31A41F2AF
:101B10008832934201D903234DE02A4B9B6803F09E
:101B20000C027B685B689B009A42EBD1244B1B68DC
:101B300003F00F023B689A420CD9214B3A68D2B2AB
:101B40001A701F4B1B6803F00F023B689A4201D0CA
:101B5000012330E07B681B6803F00403002B08D0EE
:101B60001849184B9B6823F4E0527B68DB681343E9
:101B70008B607B681B6803F00803002B09D01149B8
:101B8000104B9B6823F460427B681B69DB001343A6
:101B90008B6000F01DF801460A4B9B681B0903F09F
:101BA0000F03094AD35C21FA03F3084A13600020AB
:101BB000FEF74CFD002318461037BD4680BD00BF20
:101BC000003C02400038024030600008080000205D
:101BD0002DE9F04F87B000AF0022FA6000227A6151
:101BE0000022BA6000223A61514A926802F00C0267
:101BF000042A07D0082A08D0002A40F090804D4BD4
:101C00003B618FE04C4B3B618CE0494A526802F0EB
:101C10003F02FA60464A526802F48002002A23D04A
:101C2000434B5B689B094FF0000440F2FF114FF0FB
:101C3000000203EA010304EA02043F4A02FB04F142
:101C4000002202FB03F20A443B49A3FB01015318A3
:101C50001946FB684FF000041A462346FEF718FBAE
:101C600003460C467B614CE0314A526892091146AA
:101C70004FF0000240F2FF154FF0000605EA0105A3
:101C800006EA0206294632464FEA421B4BEAD16B6E
:101C90004FEA411A51465A46AA46B34655465E4651
:101CA0004D1B62EB060629463246940144EA9164D4
:101CB0008B015B1A64EB02044FEAC40949EA5379C9
:101CC0004FEAC30843464C4655465E46ED1846EB80
:101CD00004062B463446A2027A607A6842EA93529E
:101CE0007A609B023B6097E8180018462146FB6823
:101CF0004FF000041A462346FEF7CAFA03460C4684
:101D00007B610B4B5B681B0C03F0030301335B002F
:101D1000BB607A69BB68B2FBF3F33B6102E0054B41
:101D20003B6100BF3B6918461C37BD46BDE8F08FDC
:101D3000003802400024F40040787D0180B400AFF8
:101D4000034B1B681846BD465DF8047B704700BF17
:101D50000800002080B500AFFFF7F0FF0146054BFB
:101D60009B689B0A03F00703034AD35C21FA03F341
:101D7000184680BD003802404060000880B500AFC2
:101D8000FFF7DCFF0146054B9B685B0B03F0070385
:101D9000034AD35C21FA03F3184680BD00380240A1
:101DA0004060000880B582B000AF01F0D7FC7860D9
:101DB000714A714B1B6843F00103136008E001F0A6
:101DC000CDFC02467B68D31A022B01D90323CEE057
:101DD000694B1B6803F00203002BF0D0664A664B88
:101DE0001B6843F08003136001F0B8FC7860624B1D
:101DF00000229A600AE001F0B1FC02467B68D31A27
:101E000041F28832934201D90323B0E05A4B9B68D8
:101E100003F00C03002BEED101F0A0FC7860564AD1
:101E2000554B1B6823F45023136008E001F096FC27
:101E300002467B68D31A642B01D9032397E04E4BEB
:101E40001B6803F40033002BF0D101F087FC7860AD
:101E5000494A494B1B6823F08073136008E001F086
:101E60007DFC02467B68D31A022B01D903237EE056
:101E7000414B1B6803F00073002BF0D101F06EFCA6
:101E800078603D4A3C4B1B6823F08063136008E098
:101E900001F064FC02467B68D31A022B01D90323AC
:101EA00065E0354B1B6803F00063002BF0D101F0B7
:101EB00055FC7860304A304B1B6823F08053136028
:101EC00008E001F04BFC02467B68D31A022B01D9D3
:101ED00003234CE0284B1B6803F00053002BF0D188
:101EE000254B264A5A60244B254AC3F88420224BAE
:101EF000234AC3F88820204A1F4BDB6823F4F85399
:101F0000D3601D4A1C4BDB6823F40053D3601A4A8C
:101F1000194BDB6823F48043D360174A164BDB6808
:101F200043F41F03D360144A134BDB6843F40013DC
:101F3000D360114A104BDB6843F48003D3600E4A30
:101F40000D4B5B6F23F0010353670B4A0A4B5B6F2A
:101F500043F0807353670B4B0B4A1A600020FEF767
:101F600075FB0346002B01D0012300E00023184637
:101F70000837BD4680BD00BF003802401030000465
:101F800000300024080000200024F40080B582B056
:101F900000AF78607B68002B01D1012355E07B689E
:101FA00000229A627B6893F85130DBB2002B06D195
:101FB0007B68002283F85020786802F02FF97B6854
:101FC000022283F851207B681B687A6812681268C5
:101FD00022F040021A607B681B687A6851687A6850
:101FE000926811437A68D26811437A681269114382
:101FF0007A68526911437A68926902F40072114357
:102000007A68D26911437A68126A11437A68926ACF
:102010000A431A607B681B687A689269120C02F0A6
:1020200004017A68526A0A435A607B681B687A68BE
:102030001268D26922F40062DA617B6800225A6574
:102040007B68012283F85120002318460837BD46DB
:1020500080BD80B582B000AF78607B68002B01D175
:1020600001231AE07B68022283F851207B681B68F9
:102070007A681268126822F040021A60786802F0EA
:1020800011F97B6800225A657B68002283F8512091
:102090007B68002283F85020002318460837BD468D
:1020A00080BD80B58AB002AFF860B9603B6013466E
:1020B000FB800023BB610023FB77FB6893F8503063
:1020C000012B01D1022323E1FB68012283F8502078
:1020D00001F044FBB861FB6893F85130DBB2012B8F
:1020E00002D00223FB770AE1BB68002B02D0FB88F9
:1020F000002B02D10123FB7701E1FB68032283F867
:102100005120FB6800225A65FB68BA681A63FB68B5
:10211000FA889A86FB68FA88DA86FB6800229A6356
:10212000FB6800229A87FB680022DA87FB6800229E
:102130005A64FB6800221A64FB689B68B3F5004F81
:1021400007D1FB681B68FA681268126842F4804283
:102150001A60FB681B681B6803F04003402B07D024
:10216000FB681B68FA681268126842F040021A6045
:10217000FB68DB68B3F5006F47D1FB685B68002B39
:1021800004D0FB68DB8E9BB2012B38D1FB681B6847
:10219000BA681288DA60BB680233BB60FB68DB8E0A
:1021A0009BB2013B9AB2FB68DA8628E0FB681B68A9
:1021B0009B6803F00203022B0FD1FB681B68BA680F
:1021C0001288DA60BB680233BB60FB68DB8E9BB2AF
:1021D000013B9AB2FB68DA8611E03B68002B0BD01A
:1021E0003B68B3F1FF3F0AD001F0B8FA0246BB6981
:1021F000D21A3B689A4202D30323FB777FE0FB6845
:10220000DB8E9BB2002BD1D148E0FB685B68002BD2
:1022100004D0FB68DB8E9BB2012B3AD1FB681B68B4
:102220000C33BA6812781A70BB680133BB60FB6864
:10223000DB8E9BB2013B9AB2FB68DA8629E0FB6831
:102240001B689B6803F00203022B10D1FB681B681C
:102250000C33BA6812781A70BB680133BB60FB6834
:10226000DB8E9BB2013B9AB2FB68DA8611E03B68D9
:10227000002B0BD03B68B3F1FF3F0AD001F06EFAA0
:102280000246BB69D21A3B689A4202D30323FB770A
:1022900035E0FB68DB8E9BB2002BD0D1BB6900938D
:1022A0003B6801220221F86800F0E3FA0346002BA4
:1022B00002D00323FB7722E0BA693968F86800F09E
:1022C00041FB0346002B05D00123FB77FB6820224E
:1022D0005A6514E0FB689B68002B0AD100237B61E0
:1022E000FB681B68DB687B61FB681B689B687B6124
:1022F0007B69FB685B6D002B01D00123FB77FB68DA
:10230000012283F85120FB68002283F85020FB7FD4
:1023100018462037BD4680BD80B588B002AFF86052
:10232000B9603B601346FB8000233B610023FB75D3
:10233000FB685B68B3F5827F12D1FB689B68002B5A
:102340000ED1FB68042283F85120FA883B68009381
:102350001346BA68B968F86800F0ECF80346E5E09F
:10236000FB6893F85030012B01D10223DEE0FB68BB
:10237000012283F8502001F0F1F93861FB6893F8ED
:102380005130DBB2012B02D00223FB75C5E0BB68E4
:10239000002B02D0FB88002B02D10123FB75BCE08F
:1023A000FB68042283F85120FB6800225A65FB6811
:1023B000BA689A63FB68FA889A87FB68FA88DA87B2
:1023C000FB6800221A63FB6800229A86FB680022E1
:1023D000DA86FB6800221A64FB6800225A64FB68F4
:1023E0009B68B3F5004F07D1FB681B68FA68126859
:1023F000126822F480421A60FB681B681B6803F0B5
:102400004003402B07D0FB681B68FA68126812680B
:1024100042F040021A60FB68DB68002B5BD12AE0C7
:10242000FB681B689B6803F00103012B11D1FB685B
:102430001B680C331B78DAB2BB681A70BB680133B7
:10244000BB60FB68DB8F9BB2013B9AB2FB68DA870B
:1024500011E03B68002B0BD03B68B3F1FF3F0AD083
:1024600001F07CF902463B69D21A3B689A4202D3DA
:102470000323FB7551E0FB68DB8F9BB2002BCFD1B0
:102480002EE0FB681B689B6803F00103012B10D151
:10249000FB681B68DB689AB2BB681A80BB680233B2
:1024A000BB60FB68DB8F9BB2013B9AB2FB68DA87AB
:1024B00011E03B68002B0BD03B68B3F1FF3F0AD023
:1024C00001F04CF902463B69D21A3B689A4202D3AA
:1024D0000323FB7521E0FB68DB8F9BB2002BD0D17F
:1024E000FB685B68B3F5827F11D1FB689B68B3F52D
:1024F000004F04D0FB689B68B3F5806F07D1FB6881
:102500001B68FA681268126822F040021A60FB68C1
:102510005B6D002B01D00123FB75FB68012283F862
:102520005120FB68002283F85020FB7D18461837A5
:10253000BD4680BD80B58CB002AFF860B9607A60EE
:102540007B800023FB610023BB6100237B610123AF
:102550007B62002387F82330FB6893F85030012B0F
:1025600001D1022381E1FB68012283F8502001F0B0
:10257000F5F87861FB6893F85130DBB2FB61FB68DA
:102580005B68BB61FB69012B0ED0BB69B3F5827F31
:1025900006D1FB689B68002B02D1FB69042B03D09A
:1025A000022387F8233056E1BB68002B05D07B68F7
:1025B000002B02D07B88002B03D1012387F8233026
:1025C00049E1FB6893F85130DBB2012B03D1FB6882
:1025D000052283F85120FB6800225A65FB687A685F
:1025E0009A63FB687A88DA87FB687A889A87FB683F
:1025F000BA681A63FB687A88DA86FB687A889A86F2
:10260000FB6800221A64FB6800225A64FB681B689E
:102610001B6803F04003402B07D0FB681B68FA6877
:102620001268126842F040021A60FB68DB68B3F57A
:10263000006F71D1FB685B68002B04D0FB68DB8EF8
:102640009BB2012B5DD1FB681B68BA681288DA6007
:10265000BB680233BB60FB68DB8E9BB2013B9AB266
:10266000FB68DA864DE07B6A002B1CD0FB68DB8EB2
:102670009BB2002B17D0FB681B689B6803F002031A
:10268000022B10D1FB681B68BA681288DA60BB683D
:102690000233BB60FB68DB8E9BB2013B9AB2FB68E6
:1026A000DA8600237B62FB68DB8F9BB2002B18D09D
:1026B000FB681B689B6803F00103012B11D1FB68C9
:1026C0001B68DB689AB27B681A807B6802337B6088
:1026D000FB68DB8F9BB2013B9AB2FB68DA87012370
:1026E0007B623B6BB3F1FF3F0BD001F037F8024642
:1026F0007B69D21A3B6B9A4203D3032387F82330BA
:10270000A9E0FB68DB8E9BB2002BACD1FB68DB8FB2
:102710009BB2002BA7D171E0FB685B68002B04D053
:10272000FB68DB8E9BB2012B5ED1FB681B680C3310
:10273000BA6812781A70BB680133BB60FB68DB8E25
:102740009BB2013B9AB2FB68DA864DE07B6A002BB4
:102750001DD0FB68DB8E9BB2002B18D0FB681B687A
:102760009B6803F00203022B11D1FB681B6803F185
:102770000C02BB68591CB9601B781370FB68DB8EB8
:102780009BB2013B9AB2FB68DA8600237B62FB684E
:10279000DB8F9BB2002B17D0FB681B689B6803F094
:1027A0000103012B10D17B685A1C7A60FA68126809
:1027B000D268D2B21A70FB68DB8F9BB2013B9AB22F
:1027C000FB68DA8701237B623B6BB3F1FF3F0BD0E1
:1027D00000F0C4FF02467B69D21A3B6B9A4203D3D6
:1027E000032387F8233036E0FB68DB8E9BB2002B97
:1027F000ACD1FB68DB8F9BB2002BA7D17B69009328
:102800003B6B01220221F86800F033F80346002BED
:1028100003D0032387F823301DE07A69396BF86809
:1028200000F090F80346002B06D0012387F82330F0
:10283000FB6820225A650EE0FB689B68002B0AD1DA
:1028400000233B61FB681B68DB683B61FB681B681E
:102850009B683B613B69FB68012283F85120FB6860
:10286000002283F8502097F8233018462837BD46B9
:1028700080BD80B584B000AFF860B9607A603B601D
:102880004DE03B68B3F1FF3F49D03B68002B07D0D8
:1028900000F064FF0246BB69D21A3B689A423ED3FD
:1028A000FB681B68FA681268526822F0E0025A60FE
:1028B000FB685B68B3F5827F11D1FB689B68B3F559
:1028C000004F04D0FB689B68B3F5806F07D1FB68AD
:1028D0001B68FA681268126822F040021A60FB68EE
:1028E0009B6AB3F5005F10D1FB681A68FB681B6830
:1028F00019684DF6FF730B401360FB681B68FA689C
:102900001268126842F400521A60FB68012283F8D0
:102910005120FB68002283F8502003230EE0FB685F
:102920001B689A68BB681A40BB689A4201D10122B1
:1029300000E000227B689A42A3D10023184610379A
:10294000BD4680BD80B586B002AFF860B9607A60E0
:102950007B680093BB6800228021F868FFF789FF3D
:102960000346002B07D0FB685B6D43F02002FB6839
:102970005A65032300E0002318461037BD4680BD8A
:1029800080B582B000AF78607B68002B01D1012355
:102990003FE07B6893F83930DBB2002B06D17B68CF
:1029A000002283F83820786801F0A0FC7B6824229C
:1029B00083F839207B681B687A681268D26822F431
:1029C0000052DA60786800F02FF97B681B687A683B
:1029D0001268126922F490421A617B681B687A6857
:1029E0001268526922F02A025A617B681B687A6871
:1029F0001268D26842F40052DA607B680022DA631F
:102A00007B68202283F839207B68202283F83A20D3
:102A1000002318460837BD4680BD80B582B000AFA0
:102A200078607B68002B01D1012316E07B682422AB
:102A300083F83920786801F08BFC7B680022DA6328
:102A40007B68002283F839207B68002283F83A20D3
:102A50007B68002283F83820002318460837BD46DB
:102A600080BD80B588B002AFF860B9603B601346A6
:102A7000FB8000237B61FB6893F83930DBB2202BAD
:102A800040F08280BB68002B02D0FB88002B01D174
:102A900001237AE0FB6893F83830012B01D102233F
:102AA00073E0FB68012283F83820FB680022DA63B8
:102AB000FB68212283F8392000F050FE7861FB6822
:102AC000FA889A84FB68FA88DA8441E0FB68DB8C38
:102AD0009BB2013B9AB2FB68DA84FB689B68B3F552
:102AE000805F21D13B6800937B6900228021F868D8
:102AF00000F04FF80346002B01D0032345E0BB68EC
:102B00003B61FB681B683A691288C2F308025A608D
:102B1000FB681B69002B03D1BB680233BB6017E065
:102B2000BB680133BB6013E03B6800937B69002204
:102B30008021F86800F02DF80346002B01D0032314
:102B400023E0FB681A68BB68591CB9601B785360A6
:102B5000FB68DB8C9BB2002BB8D13B6800937B6990
:102B600000224021F86800F014F80346002B01D041
:102B700003230AE0FB68202283F83920FB68002247
:102B800083F83820002300E0022318461837BD469A
:102B900080BD80B584B000AFF860B9603B6013467B
:102BA000FB712CE0BB69B3F1FF3F28D0BB69002B60
:102BB00007D000F0D3FD02463B68D21ABB699A42A7
:102BC0001DD9FB681B68FA681268D26822F4D072BB
:102BD000DA60FB681B68FA681268526922F0010229
:102BE0005A61FB68202283F83920FB68202283F891
:102BF0003A20FB68002283F8382003230FE0FB68AB
:102C00001B681A68BB681A40BB689A420CBF012354
:102C10000023DBB21A46FB799A42C3D00023184640
:102C20001037BD4680BD0000F0B585B000AF7860BC
:102C30000023FB607B681B681B69FB60FB6823F457
:102C40004053FB607B68DB68FA681343FB607B687A
:102C50001B68FA681A617B681B68DB68FB60FB68AD
:102C600023F4164323F00C03FB607B689A687B68AF
:102C70001B691A437B685B691A437B68DB691343F2
:102C8000FA681343FB607B681B68FA68DA607B684C
:102C90001B685B69FB60FB6823F44073FB607B6827
:102CA0009B69FA681343FB607B681B68FA685A618A
:102CB0007B68DB69B3F5004F40F0E4807B681B68FC
:102CC000AB4A934204D07B681B68AA4A93426CD1FA
:102CD0007B681C68FFF752F8024613469B001344BA
:102CE0009A001A447B685B685B00B2FBF3F3A24A6C
:102CF000A2FB03235B091D01FFF740F802461346C0
:102D00009B0013449A001A447B685B685B00B2FB2B
:102D1000F3F6FFF733F8024613469B0013449A007C
:102D20001A447B685B685B00B2FBF3F3924AA2FB38
:102D300003235B09642202FB03F3F31ADB00323343
:102D40008D4AA2FB03235B095B0003F4F8731D4467
:102D5000FFF714F8024613469B0013449A001A44E6
:102D60007B685B685B00B2FBF3F6FFF707F802468F
:102D700013469B0013449A001A447B685B685B000F
:102D8000B2FBF3F37C4AA2FB03235B09642202FB40
:102D900003F3F31ADB003233774AA2FB03235B0908
:102DA00003F007032B44A36054E17B681C68FEF723
:102DB000D1FF024613469B0013449A001A447B68D5
:102DC0005B685B00B2FBF3F36B4AA2FB03235B0976
:102DD0001D01FEF7BFFF024613469B0013449A00F5
:102DE0001A447B685B685B00B2FBF3F6FEF7B2FF48
:102DF000024613469B0013449A001A447B685B68A2
:102E00005B00B2FBF3F35C4AA2FB03235B09642281
:102E100002FB03F3F31ADB003233574AA2FB03230E
:102E20005B095B0003F4F8731D44FEF793FF024651
:102E300013469B0013449A001A447B685B685B004E
:102E4000B2FBF3F6FEF786FF024613469B001344DF
:102E50009A001A447B685B685B00B2FBF3F3464A56
:102E6000A2FB03235B09642202FB03F3F31ADB00DA
:102E70003233414AA2FB03235B0903F007032B44CF
:102E8000A360E7E07B681B68394A934204D07B6803
:102E90001B68384A934271D17B681C68FEF76EFF4D
:102EA000024613469B0013449A001A447B685B68F1
:102EB0009B00B2FBF3F3304AA2FB03235B091D0125
:102EC000FEF75CFF024613469B0013449A001A4427
:102ED0007B685B689B00B2FBF3F6FEF74FFF024690
:102EE00013469B0013449A001A447B685B689B005E
:102EF000B2FBF3F3204AA2FB03235B09642202FB2B
:102F000003F3F31A1B0132331B4AA2FB03235B09B1
:102F100003F0F0031D44FEF731FF024613469B0009
:102F200013449A001A447B685B689B00B2FBF3F67B
:102F3000FEF724FF024613469B0013449A001A44EE
:102F40007B685B689B00B2FBF3F30B4AA2FB032395
:102F50005B09642202FB03F3F31A1B013233064AB6
:102F6000A2FB03235B0903F00F032B44A36071E072
:102F700000100140001401401F85EB517B681C6864
:102F8000FEF7E8FE024613469B0013449A001A44DB
:102F90007B685B689B00B2FBF3F3304AA2FB032320
:102FA0005B091D01FEF7D6FE024613469B00134443
:102FB0009A001A447B685B689B00B2FBF3F6FEF74D
:102FC000C9FE024613469B0013449A001A447B68CC
:102FD0005B689B00B2FBF3F3204AA2FB03235B096F
:102FE000642202FB03F3F31A1B0132331B4AA2FBD8
:102FF00003235B0903F0F0031D44FEF7ABFE02461A
:1030000013469B0013449A001A447B685B689B003C
:10301000B2FBF3F6FEF79EFE024613469B001344F6
:103020009A001A447B685B689B00B2FBF3F30B4A7F
:10303000A2FB03235B09642202FB03F3F31A1B01C7
:103040003233064AA2FB03235B0903F00F032B4430
:10305000A360FFE700BF1437BD46F0BD1F85EB51ED
:1030600080B500AF53220849002000F08BFE0346D4
:10307000002B06D027220549054801F041FA02231A
:1030800000E00023184680BDC8000020805B0008D7
:103090008453000880B582B000AF7860214B93F86C
:1030A0003020204B1B789A4217D11E4B93F83120C9
:1030B0001C4B5B789A4210D11A4B93F83220194B73
:1030C0009B789A4209D133221749184801F018FA1F
:1030D0007B6800221A7000231FE0124B93F8302007
:1030E000104B1B7E9A4217D10E4B93F831200D4B9B
:1030F0005B7E9A4210D10B4B93F83220094B9B7E9A
:103100009A4209D13B220849094801F0F9F97B6844
:1031100001221A70002300E0022318460837BD463A
:1031200080BD00BFC8000020885B0008D0530008A5
:103130000854000880B483B000AF03460A46FB7110
:103140001346BB71FA79074913465B001344DB0051
:103150000B440833BA791A7000BF0C37BD465DF8CE
:10316000047B7047C800002080B500AF1F4BD3F828
:103170004F301F4A93420ED11C4B93F84C30002B1A
:1031800009D11A4B93F84D30072B04D1174B93F804
:103190004E30072B25D0154B002283F83820002213
:1031A00083F83920002283F83A20002283F83B205C
:1031B0000E4B002283F83C200C4B002283F84C205D
:1031C0000A4B072283F84D20084B072283F84E2034
:1031D00000F018F95B220749074801F091F9012333
:1031E00002E0024B93F83330184680BDC80000203F
:1031F000F145FA90985B00084054000880B483B011
:1032000000AF0346FB71054AFB7982F8333000BFFB
:103210000C37BD465DF8047B704700BFC800002036
:1032200080B483B000AF0346FB71054AFB7982F896
:10323000343000BF0C37BD465DF8047B704700BFDB
:10324000C800002090B484B000AF0346FB71FA7947
:103250001A491A4813465B001344DB00C21801F1F7
:1032600035031188927819809A70FA7913491346B8
:103270005B001344DB000B44D3F803300F4A936325
:103280000023FB7312E0F97BFA79F87B0B4C1346B1
:103290005B001344DB002344034409331A78074BD3
:1032A0000B4483F83D20FB7B0133FB73FB7B0E2B30
:1032B000E9D900BF1037BD4690BC7047C800002058
:1032C00080B483B000AF78600C4BDB79002B04D165
:1032D0007B6800221A70002309E0084BDB7F002B7B
:1032E00004D17B6801221A70002300E001231846F4
:1032F0000C37BD465DF8047B704700BFC800002056
:1033000080B483B000AF0346FB71FA7907491346D6
:103310005B001344DB000B44073301221A7000BF2B
:103320000C37BD465DF8047B704700BFC800002025
:1033300080B400AF0F4B93F830200E4B93F835302C
:103340009A4211D10B4B93F831200A4B93F8363047
:103350009A4209D1074B93F83220064B93F8373045
:103360009A4201D1002300E001231846BD465DF8D2
:10337000047B7047C800002080B400AF034B9B6BF8
:103380001846BD465DF8047B704700BFC8000020AA
:1033900080B483B000AF0346FB71FA79094909484C
:1033A00013465B001344DB00C21801F1300311889F
:1033B000927819809A7000BF0C37BD465DF8047B87
:1033C000704700BFC800002080B400AF034B93F8E3
:1033D0003C301846BD465DF8047B7047C8000020AD
:1033E00080B483B000AF0346FB71054AFB7982F8D5
:1033F0003C3000BF0C37BD465DF8047B704700BF12
:10340000C800002080B500AF184B002262F00E0209
:1034100083F84F20002242F0450283F8502000221A
:1034200062F0050283F85120002262F06F0283F8F7
:103430005220002000F094FD0346002B01D002230F
:1034400011E04FF4C870FDF731F95322074900200D
:1034500000F0FEFC0346002B01D0022303E00A200B
:10346000FDF724F90023184680BD00BFC8000020E6
:1034700080B582B000AF1448FFF7CFFA1348FEF7CB
:10348000E8FDFEF78FFCFDF7ADF8114B00221A6046
:103490000F4B00225A600E4B00229A600D4B1B68A6
:1034A0001A460D4B1A600D4B0D4A9A600C4B1B6867
:1034B0007B607B6883F30888074B1B68984700BFD5
:1034C0000837BD4680BD00BF740100201C010020EC
:1034D00010E000E0048000088C00002000ED00E017
:1034E0000080000890B587B000AF0346FB71002351
:1034F000FB730023FB7500233B610023BB6039E0B5
:10350000FDF758FA3B6903F1007303F50053990086
:10351000BB684FF000041A4623460220FDF7F6F977
:103520000346FB73FDF768FAFB7B002B0AD0FDF71F
:1035300073FA0346FE221E491E4800F0E1FF0223F3
:10354000FB7523E03B6999001B4BA3FB01235A0B3E
:1035500013469B001344DB02CA1A002A07D13B69B9
:103560009B0040F207121249144800F0C9FF3B6962
:1035700001333B6107F10801FB790422184600F092
:1035800035FD0346FB75FB7D002BB9D0FB7D042B7D
:1035900008D0FB7D4FF488720549094800F0B0FF60
:1035A000FB7D00E0002318461C37BD4690BD00BFE0
:1035B000A85B0008A4540008CDCCCCCCF054000883
:1035C0002055000880B588B000AF0023BB770023EA
:1035D000FB770023BB6100237B600123BB600223D8
:1035E000FB600A233B6102237B61FDF7E3F907F1EE
:1035F00018023B1D11461846FDF754FB0346BB77E6
:10360000FDF7FAF9BB7F002B08D00223FB77BB69DB
:103610004FF498720449054800F072FFFB7F18468A
:103620002037BD4680BD00BFB85B00087455000858
:1036300080B582B000AF0346FB71FFF7C3FF0346BE
:10364000002B07D040F241120C490D4800F058FF02
:1036500002230FE0FB791846FFF744FF0346002BD7
:1036600007D04FF4A4720549064800F049FF022331
:1036700000E0002318460837BD4680BDC85B00083F
:10368000B8550008F055000880B582B000AF4FF083
:10369000FF337B60084B9B6B084A7968184600F043
:1036A0000FF878607B68002B01D1002300E0012334
:1036B00018460837BD4680BDC800002000800008BD
:1036C00080B489B000AFF860B9607A607B68FB6154
:1036D00011E0FB695A1CFA611B78FB76FA7EBB6825
:1036E0005340DBB27B61BB681A0A09497B6951F818
:1036F00023305340BB60FB685A1EFA60002BE8D1B0
:10370000BB6818462437BD465DF8047B704700BF90
:10371000D45B000880B400AFBFF34F8F0549054B61
:10372000DB6803F4E062044B1343CB60BFF34F8FBD
:1037300000BFFDE700ED00E00400FA0590B400AF23
:10374000054B18CB013344F10004034A82E818000A
:1037500000BFBD4690BC70479000002090B400AF01
:10376000024B18CB1846BD4690BC70479000002015
:1037700080B586B000AFF860B9607A600023FB7551
:10378000FB68012B0AD0FB68022B07D000F08EFEED
:103790000246092313604FF0FF330EE07B689AB2B4
:1037A0006423B9680748FFF75CF90346FB75FB7DA6
:1037B000002B01D17B6800E0002318461837BD4676
:1037C00080BD00BF7401002080B582B000AFFCF75F
:1037D000E7FE00F037F900F021FA00F0B5F900F04B
:1037E000EFF989228849894800F08AFE00F0B4FA8E
:1037F0000346002B0AD08D228349854800F080FEC5
:1038000041F28830FCF752FFFFF784FFFFF728FCF6
:103810000346002B0AD095227B497E4800F070FEBB
:1038200041F28830FCF742FFFFF774FFFFF79CFC82
:103830000346002B05D09F227349774800F060FEB5
:1038400089E0FFF7C1FD0346042B0FD0FFF770FDA1
:103850000346002B0AD1A7226B49704800F050FEA6
:103860000120FFF7CBFCFFF7CDFD74E0FB1D1846F0
:10387000FFF710FC0346002B62D1FB79002B2AD105
:10388000002000F011FC0346002B10D10020FFF7B0
:10389000CFFE00210020FFF74DFC0120FFF7AEFC1A
:1038A000FB791846FFF7CEFCFFF7ACFD53E0012192
:1038B0000020FFF73FFCFB791846FFF721FD0120B0
:1038C000FFF79CFC0120FFF7ABFC0220FFF788FD0F
:1038D000FFF798FD3FE0FB79012B2AD1012000F092
:1038E000E3FB0346002B10D10120FFF7A1FE0021CE
:1038F0000120FFF71FFC0120FFF780FCFB79184631
:10390000FFF7A0FCFFF77EFD25E001210120FFF776
:1039100011FCFB791846FFF7F3FC0120FFF76EFC62
:103920000120FFF77DFC0320FFF75AFDFFF76AFD3A
:1039300011E0FB79DE223449394800F0E1FD0AE06C
:10394000E4223149374800F0DBFD0120FFF756FC47
:10395000FFF758FD00BFFFF70FFD0346002B46D0D1
:10396000FFF792FE0346012B3AD1F12226492E4859
:1039700000F0C6FDFB1D1846FFF7A2FC0346002B16
:103980001ED1FB791846FFF703FD0020FFF736FC38
:103990000420FFF725FDFFF735FDFB790133FA22FF
:1039A0001949224800F0ACFDFB221749204800F0DD
:1039B000A7FD41F28830FCF779FEFFF7ABFE0FE080
:1039C0004FF4817210491B4800F09AFD4FF40041FA
:1039D0001948FDF776FD4FF47A70FCF767FEF5E7BE
:1039E00040F20B120849154800F08AFD05E040F24C
:1039F0000F120549124800F083FD6420FCF756FEC3
:103A0000FFF736FDFEE700BFD85F00083456000818
:103A100070560008B0560008E85600081C57000809
:103A200068570008A4570008E05700081C58000811
:103A30004C5800087058000800040240B8580008AC
:103A40000459000880B594B000AF0023BB603A4A27
:103A5000394B1B6C43F080531364374B1B6C03F0E2
:103A60008053BB60BB6800237B60344A334B1B68C8
:103A700043F440431360314B1B6803F440437B60C5
:103A80007B6802233B620123FB6210233B6302231A
:103A9000BB630023FB6310233B644FF4B4737B646C
:103AA0000223BB640423FB6407F120031846FDF7DF
:103AB0006BFD0346002B04D040F24311204800F078
:103AC0000FF9FDF711FD0346002B04D04FF4A5714B
:103AD0001B4800F005F90F23FB6002233B61002324
:103AE0007B614FF4A053BB614FF48053FB6107F13E
:103AF0000C0305211846FDF789FF0346002B04D06F
:103B00004FF4AC710E4800F0EBF8FEF717F90246DF
:103B10000C4BA3FB02239B091846FCF7C0FE0420B4
:103B2000FCF7CAFE002200214FF0FF30FCF79BFE9D
:103B300000BF5037BD4680BD0038024000700040D5
:103B400060590008D34D621080B500AF194B1A4A76
:103B50001A60184B4FF482725A60164B00229A601A
:103B6000144B0022DA60134B00221A61114B002221
:103B70005A61104B4FF400729A610E4B2022DA61A9
:103B80000C4B00221A620B4B00225A62094B002296
:103B90009A62084B0A22DA620648FEF7F7F90346F2
:103BA000002B04D04FF4BD71044800F099F800BF19
:103BB00080BD00BF1C01002000300140605900089A
:103BC00080B500AF124B134A1A60114B4FF4E1322B
:103BD0005A600F4B00229A600D4B0022DA600C4BAA
:103BE00000221A610A4B0C225A61094B00229A6189
:103BF000074B0022DA610648FEF7C2FE0346002B9F
:103C000004D040F28D11044800F06AF800BF80BD76
:103C100074010020004400406059000880B588B05D
:103C200000AF0023BB602B4A2A4B1B6B43F0010300
:103C30001363284B1B6B03F00103BB60BB680023BD
:103C40007B60244A234B1B6B43F008031363214B17
:103C50001B6B03F008037B607B6800233B601D4AFD
:103C60001C4B1B6B43F0020313631A4B1B6B03F0DB
:103C700002033B603B6800224FF440411648FDF7C9
:103C800007FC00224FF400411448FDF701FC4FF4FB
:103C90004043FB6001233B6100237B610023BB6148
:103CA00007F10C0319460C48FDF73CF94FF40043AB
:103CB000FB6001233B6100237B610023BB6107F1B3
:103CC0000C0319460548FDF72DF900BF2037BD4606
:103CD00080BD00BF003802400004024000000240E6
:103CE00080B483B000AF78603960FEE780B582B001
:103CF00000AF0023BB8006233B7100224FF400413C
:103D00001148FDF7C5FB391D642301220F48FEF75A
:103D1000C8F90346002B0CD001224FF400410A4899
:103D2000FDF7B6FB39220A490A4800F0E9FB0223F5
:103D300006E001224FF400410348FDF7A9FB0023F0
:103D400018460837BD4680BD000002401C01002017
:103D5000E05F00087059000880B500AF00224FF402
:103D600000410748FDF794FB01224FF4004104484D
:103D7000FDF78EFBFFF7BAFF0023184680BD00BF9A
:103D80000000024080B586B000AFF860B96013460D
:103D9000FB800023FB75FB68264A934206D950221C
:103DA0002549264800F0ACFB02233FE000233B619D
:103DB00003233B74FB681B0CDBB27B74FB681B0AA0
:103DC000DBB2BB74FB68DBB2FB7400224FF4004132
:103DD0001B48FDF75DFB07F110016423042219481D
:103DE000FEF75FF90346002B07D060221249164800
:103DF00000F086FB0223FB7511E0FA884FF47A731A
:103E0000B9681048FEF788FA0346002B07D06622EF
:103E100009490E4800F074FB0223FB7500BF012224
:103E20004FF400410648FDF733FBFB7D1846183779
:103E3000BD4680BDFF1F4000EC5F0008A859000888
:103E4000000002401C01002070590008DC590008E5
:103E500080B586B000AFF860B9601346FB80FFF70D
:103E600045FFFB68364A934206D9762235493648E3
:103E700000F046FB02235EE0FB88B3F5807F06D9A5
:103E80007B223049314800F03BFB022353E0BB6802
:103E9000002B06D180222B492D4800F031FB032353
:103EA00049E000237B6102233B75FB681B0CDBB2FE
:103EB0007B75FB681B0ADBB2BB75FB68DBB2FB756D
:103EC00000224FF400412348FDF7E2FA07F1140104
:103ED000642304222048FEF7E4F80346002B0CD0AC
:103EE00001224FF400411B48FDF7D2FA8E221549FA
:103EF0001A4800F005FB02231DE0FA884FF47A739C
:103F0000B9681548FEF7CDF80346002B0CD0012206
:103F10004FF400410F48FDF7BBFA942209490F48BE
:103F200000F0EEFA022306E001224FF400410948B6
:103F3000FDF7AEFA002318461837BD4680BD00BF16
:103F4000FF1F4000FC5F0008A8590008185A00082D
:103F50004C5A0008000002401C0100207059000863
:103F600080B584B000AF78600023FB6020233B73F2
:103F70007B681B0CDBB27B737B681B0ADBB2BB73F9
:103F80007B68DBB2FB73FFF7B1FE00224FF4004108
:103F90001248FDF77DFA07F10C0164230422104852
:103FA000FEF77FF80346002B0CD001224FF40041AE
:103FB0000A48FDF76DFABB220A490B4800F0A0FA47
:103FC000022306E001224FF400410448FDF760FAA5
:103FD000002318461037BD4680BD00BF00000240D8
:103FE0001C0100200C600008D05A000880B586B083
:103FF00000AF0346B9607A60FB7300237B61BB6846
:10400000002B01D1032344E0244B1B68002B0DD16E
:10401000FB7B002B04D1214B4FF400521A6005E0CA
:10402000FB7B012B02D11D4B1D4A1A60FB7B002B31
:1040300006D11C4BD3F8033003F500537B610AE033
:10404000FB7B012B07D1174BD3F81B3003F5001373
:1040500003F500537B61114B1A687B699A4214D2B5
:104060000E4B1B687A6892B2B9681846FFF78AFE51
:104070000346002B01D001230BE0084B1A687B6834
:104080001344064A1360002303E0044B00221A6025
:10409000042318461837BD4680BD00BF9800002095
:1040A00000202000C800002080B588B000AF034683
:1040B000FB710023FB610023BB6100237B614FF098
:1040C000FF333B618023FB60FB79002B07D1244B3E
:1040D000D3F80330FB614FF40053BB6125E0FB795B
:1040E000012B22D11E4BD3F81B30FB611D4BBB6152
:1040F0001BE080221C49B869FFF744FEFA697B691E
:10410000D31A7F2B03D8FA697B69D31AFB60164A4E
:104110003969F868FFF7D4FA3861FB687A691344A3
:104120007B61FB68BA691344BB617A69FB699A4297
:10413000DFD33B69002B07D14FF491720B490C4838
:1041400000F0DEF9002307E03B694FF49372074962
:10415000084800F0D5F9022318462037BD4680BD37
:10416000C800002000202000B40100201C600008CE
:10417000205B00084C5B000880B582B000AF0023D4
:104180007B60254A244B5B6C43F480435364224B91
:104190005B6C03F480437B607B6800233B601E4ABA
:1041A0001D4B1B6C43F0805313641B4B1B6C03F0C3
:1041B00080533B603B680320FCF74AFB0022002150
:1041C0006FF00B00FCF74FFB002200216FF00A009C
:1041D000FCF749FB002200216FF00900FCF743FBCC
:1041E000002200216FF00400FCF73DFB00220021BB
:1041F0006FF00300FCF737FB002200216FF0010095
:10420000FCF731FB002200214FF0FF30FCF72BFBC5
:1042100000BF0837BD4680BD0038024080B588B079
:1042200000AF78607B681B681A4A93422DD1002347
:10423000BB60194A184B5B6C43F480535364164BB4
:104240005B6C03F48053BB60BB682023FB600223DC
:104250003B6100237B610323BB610523FB6107F105
:104260000C0319460D48FCF75DFE3023FB6002236A
:104270003B6100237B610323BB610523FB6107F1E5
:104280000C0319460648FCF74DFE00BF2037BD461B
:1042900080BD00BF003001400038024000000240F5
:1042A0000004024080B582B000AF78607B681B6874
:1042B0000A4A93420DD10A4A094B5B6C23F480539E
:1042C000536420210748FCF7D7FF30210648FCF74C
:1042D000D3FF00BF0837BD4680BD00BF003001409E
:1042E00000380240000002400004024080B588B05F
:1042F00000AF78607B681B68124A93421DD100238F
:10430000BB60114A104B1B6C43F4003313640E4B1B
:104310001B6C03F40033BB60BB686023FB600223AB
:104320003B6101237B610323BB610723FB6107F131
:104330000C0319460548FCF7F5FD00BF2037BD46C4
:1043400080BD00BF0044004000380240000C024025
:1043500080B582B000AF78607B681B68084A9342E2
:1043600009D1084A074B1B6C23F400331364602106
:104370000548FCF781FF00BF0837BD4680BD00BF80
:104380000044004000380240000C024080B400AFFE
:1043900000BFBD465DF8047B704780B400AFFEE708
:1043A00080B400AFFEE780B400AFFEE780B400AF9A
:1043B000FEE780B400AF00BFBD465DF8047B7047E8
:1043C00080B400AF00BFBD465DF8047B704780B489
:1043D00000AF00BFBD465DF8047B704780B500AFFD
:1043E000FFF7ACF9FCF784FA00BF80BD80B400AFE2
:1043F000164A164BD3F8883043F47003C2F888305D
:10440000134A134B1B6843F001031360104B002247
:104410009A600F4A0E4B1B6823F0847323F4803399
:1044200013600B4B0B4A5A60094A094B1B6823F473
:1044300080231360064B0022DA60044B4FF00062C9
:104440009A6000BFBD465DF8047B704700ED00E058
:104450000038024010300024DFF834D0002103E09F
:104460000C4B5B58435004310B480C4B42189A429A
:10447000F6D30B4A02E0002342F8043B094B9A4270
:10448000F9D3FFF7B3FF00F017F8FFF79DF9704776
:1044900000000320F06000080000002070000020F1
:1044A0007000002038020020FEE70000014B186871
:1044B000704700BF0C00002070B50D4E0D4CA41BC2
:1044C000A4100025A54209D10B4E0C4C00F04EFF64
:1044D000A41BA4100025A54205D170BD56F82530B7
:1044E00098470135EEE756F8253098470135F2E751
:1044F000E8600008E8600008E8600008EC60000878
:104500000FB40A4B13B51C6824B1A36913B9204634
:1045100000F04EF805AB049AA1680193204600F024
:1045200061F902B0BDE8104004B070470C000020F3
:10453000014900F0A9B800BFB9500008002310B528
:10454000044603604360836081814366C2810361E6
:1045500043618361194608225C3000F0B3F8054BD3
:104560006362054BA362054BE362054B2462236340
:1045700010BD00BF5D4D00087F4D0008B74D00081D
:10458000DB4D000870B54A1E682555430E4605F1FF
:10459000740100F09FF8044640B1002180E8420019
:1045A0000C30A06005F1680200F08CF8204670BD68
:1045B000836910B5044633BB8364C3640365124B3F
:1045C000124A1B688262984204BF0123836100F093
:1045D0001FF86060204600F01BF8A060204600F045
:1045E00017F80022E06004216068FFF7A7FF0122AE
:1045F0000921A068FFF7A2FF02221221E068FFF75D
:104600009DFF0123A36110BD4860000831450008EB
:10461000F8B51C4B1E68B369074613B93046FFF75F
:10462000C7FF4836B4687368013B03D5336833B1BC
:104630003668F7E7B4F90C506DB16834F4E704213B
:104640003846FFF79FFF30600028F1D10C233B6014
:1046500004462046F8BD4FF6FF73E3810123A38192
:1046600065662560A560656025616561A5610822B4
:10467000294604F15C0000F025F86563A563A56494
:10468000E564E6E7486000082DE9F843804689467E
:1046900000F14804002614B93046BDE8F883A56847
:1046A0006768013F01D52468F5E7AB89012B07D97D
:1046B000B5F90E30013303D029464046C8470643BA
:1046C0006835EEE702440346934200D1704703F891
:1046D000011BF9E770B5CD1C25F0030508350C2D3D
:1046E00038BF0C25002D064601DBA94203D90C2357
:1046F0003360002070BD00F07FFD234A146821461E
:1047000091B9224C23681BB9304600F017FB20609A
:104710002946304600F012FB431C26D10C2333609F
:10472000304600F06AFDE4E70B685B1B1AD40B2BE4
:104730000FD90B60CD50CC18304600F05EFD04F16F
:104740000B00231D20F00700C31A1BD05A42E25071
:1047500070BD8C420DBF63684B686360136018BF07
:104760000C46E9E70C464968CAE7C41C24F0030478
:10477000A04205D0211A304600F0E0FA0130CDD039
:104780002560D9E770BD00BF9C000020A00000207C
:104790009368013B002B10B4936009DA9469A3423B
:1047A00002DBCBB20A2B03D15DF8044B00F01ABB3D
:1047B0001368581C10601970C8B25DF8044B70473C
:1047C000F8B506460F461446D518AC4201D1002074
:1047D00007E03A4614F8011B3046FFF7D9FF431CA7
:1047E000F3D1F8BD2DE9F04F9DB00C461746039369
:1047F000064618B183690BB9FFF7DAFE7C4B9C4281
:1048000057D17468A38918075DD52369002B5AD046
:104810000023099320238DF8293030238DF82A3086
:104820004FF0010BB846454615F8013B002B55D11A
:10483000B8EB070A0BD053463A4621463046FFF7FD
:10484000BFFF013000F0C480099B5344099398F8DE
:104850000030002B00F0BC8000234FF0FF320493A7
:104860000793059206938DF853301A930522297801
:104870006048FBF7BDFC05F10108049B002831D11D
:10488000D90644BF20228DF853201A0744BF2B229B
:104890008DF853202A782A2A2CD0079A00210A2042
:1048A000A846013598F80030303B092B6DD971B31B
:1048B00026E0514B9C4201D1B468A3E74F4B9C4288
:1048C00008BFF4689EE72146304600F0EFFA002862
:1048D0009ED04FF0FF301DB0BDE8F08F252BA7D044
:1048E000A846A0E7434A801A0BFA00F01843049048
:1048F0004546BBE7039A111D12680391002A01DBAC
:10490000079204E0524243F002030792049398F89E
:1049100000302E2B10D198F801302A2B08F101011C
:1049200037D1039B1A1D1B680392002BB8BF4FF0B1
:10493000FF3308F102080593314D98F80010032267
:104940002846FBF755FC40B14023401B03FA00F01A
:10495000049B0343049308F1010898F800102948C8
:104960008DF82810062208F10107FBF741FC00280A
:1049700034D0254B03BB039B073323F007030833D5
:104980000393099B4B4409934CE700FB023201213E
:1049900086E70023059318460A258846013198F8D2
:1049A0000020303A092A03D9002BC5D00590C3E76F
:1049B00005FB00200123F0E703AB00932246134BD5
:1049C00004A93046AFF30080B0F1FF3F8146D8D153
:1049D000A3895B063FF57DAF09987CE703AB0093A5
:1049E00022460A4B04A9304600F088F8ECE700BFE5
:1049F0006C600008AC6000088C6000084C60000827
:104A0000B2600008B660000800000000C14700085E
:104A10002DE9F04791461F468A680B69DDF8208032
:104A20009342B8BF1346C9F8003091F843200646B8
:104A30000C4612B10133C9F800302368990642BF11
:104A4000D9F800300233C9F80030256815F00605A2
:104A500007D104F1190AE368D9F800209B1A9D4296
:104A600029DB94F843302268003318BF01239206F3
:104A70002ED404F1430239463046C047013021D0DC
:104A80002368E568D9F8002003F00603042B08BF6B
:104A9000AD1AA36822690CBF25EAE575002593428B
:104AA000C4BF9B1AED184FF000091A344D451BD1B5
:104AB0000020BDE8F0870123524639463046C04702
:104AC000013003D14FF0FF30BDE8F0870135C2E778
:104AD000E1185A1C302081F84300224494F8451014
:104AE00082F843100233C4E7012322463946304698
:104AF000C0470130E6D009F10109D7E72DE9F043BD
:104B000017460A7E85B06E2A984606460C460C9BD0
:104B100001F1430E00F0BC801AD8632A2ED00AD8C7
:104B2000002A00F0C880582A00F08A8004F142056B
:104B300084F842202AE0642A01D0692AF6D121684B
:104B40001A6811F0800F23D0111D1960136827E037
:104B5000732A00F0B48008D86F2A2AD0702AE5D1D1
:104B60000A6842F020020A6003E0752A21D0782A00
:104B7000DCD1782284F845206E4964E01A6801F19E
:104B80004205111D1960136884F842300123A3E027
:104B900011F0400F02F104011960D7D0B2F90030D2
:104BA000002B03DA2D225B4284F8432062490A225B
:104BB00017E02068196810F0800F03D0081D1860F6
:104BC0000B6806E010F0400F01F104001860F7D008
:104BD0000B8859496F2A14BF0A220822002084F842
:104BE00043006568A560002DC0F29C80206820F01D
:104BF00004002060002B3FD1002D40F095807546C9
:104C0000082A0BD12368DA0708D5236962689A421B
:104C1000DEBF302305F8013C05F1FF35AEEB05039F
:104C20002361CDF800803B4603AA21463046FFF7BA
:104C3000EFFE013055D14FF0FF3005B0BDE8F083F5
:104C400081F845203C492268186812F0800F00F175
:104C500004051D6001D0036802E05506FBD50388FA
:104C6000D00744BF42F0200222601BB9226822F024
:104C7000200222601022B1E77546B3FBF2F002FB7E
:104C80001033CB5C05F8013D03460028F5D1B7E7AA
:104C900008681A68496910F0800F04D0101D186068
:104CA0001368196007E010F0400F02F1040018606B
:104CB0001368F6D01980002323617546B1E71A689E
:104CC000111D19601568626800212846FBF790FAEB
:104CD00008B1401B606063682361002384F843309F
:104CE0009FE723692A4639463046C0470130A2D0A3
:104CF00023689B0707D5002504F11909E368039A87
:104D00009B1A9D4205DBE068039B9842B8BF18469A
:104D100093E701234A4639463046C04701308AD0DE
:104D20000135EBE7002BA7D10B7884F8423004F172
:104D3000420565E7CE600008BD60000838B5064C46
:104D4000002305460846236000F002FB431C02D105
:104D5000236803B12B6038BD3402002010B50C4627
:104D6000B1F90E1000F098FA0028ABBF636DA3896B
:104D70001B1823F48053ACBF6365A38110BD2DE9DC
:104D8000F0411F468B89DB0505460C46164605D5C6
:104D900002230022B1F90E1000F0B8F9A389B4F98A
:104DA0000E1023F48053A38132463B462846BDE8CB
:104DB000F04100F069B810B50C46B1F90E1000F0E2
:104DC000A5F9431CA38915BF606523F4805343F400
:104DD0008053A38118BFA38110BDB1F90E1000F05C
:104DE000D3B80000F8B50E461446054618B18369DD
:104DF0000BB9FFF7DDFB214B9C422AD16C68A369FC
:104E0000A360A3891A072ED5236963B32369206899
:104E1000C01A6369F6B29842374604DB2146284639
:104E200000F04AF928BBA368013BA36023685A1C21
:104E300022601E7063690130984204D0A389DB07A9
:104E400019D50A2E17D12146284600F035F990B120
:104E50000FE00B4B9C4201D1AC68D0E7094B9C4260
:104E600008BFEC68CBE72146284600F01FF8002871
:104E7000CCD04FF0FF373846F8BD00BF6C6000085B
:104E80008C6000084C60000838B5074C05460846A1
:104E90001146002222601A46FEF76AFC431C02D12A
:104EA000236803B12B6038BD34020020324B70B54B
:104EB0001D6806460C4625B1AB6913B92846FFF7B5
:104EC00077FB2E4B9C420FD16C68B4F90C309AB230
:104ED00015072CD4D00611D40922326043F04003C8
:104EE000A3814FF0FF3070BD254B9C4201D1AC68CF
:104EF000EBE7244B9C4208BFEC68E6E7510712D56C
:104F0000616B41B104F14403994202D0304600F094
:104F100075F900236363A38923F02403A38100238D
:104F2000636023692360A38943F00803A381236995
:104F30004BB9A38903F42073B3F5007F03D0214656
:104F4000304600F019F9A28912F001030CD00023B9
:104F5000A36063695B42A361236953B9B4F90C3060
:104F600013F08000BAD170BD920758BF6369A36087
:104F7000F2E70020F7E700BF0C0000206C6000089B
:104F80008C6000084C60000838B5064C00230546CC
:104F90000846236000F0B4F9431C02D1236803B132
:104FA0002B6038BD340200208A892DE9F041054686
:104FB00010070C465AD44B68002B05DC0B6C002BF9
:104FC00002DC0020BDE8F081E66A002EF9D0002363
:104FD00012F480522F682B6033D0606DA3895A077A
:104FE00005D56368C01A636B0BB1236CC01A00232C
:104FF0000246E66A216A2846B047431CA38906D1C7
:1050000029681D294BD82B4ACA40D60747D500220C
:105010006260D9042269226004D5421C01D12B6848
:1050200003B96065616B2F600029CAD004F14403A5
:10503000994202D0284600F0E1F800206063BDE804
:10504000F081216A01232846B047411CC6D12B6854
:10505000002BC3D01D2B01D0162B01D12F60B0E740
:10506000A38943F04003A381BDE8F0810F69002FBD
:10507000A7D093070E6808BF4B690F6018BF0023C5
:10508000A6EB07088B60B8F1000F9ADD43463A465D
:10509000216AA66A2846B047002807DCA38943F0A6
:1050A0004003A3814FF0FF30BDE8F0810744A8EB37
:1050B0000008E8E70100402038B50B6905460C46BA
:1050C000DBB118B183690BB9FFF772FA0C4B9C4244
:1050D00009D16C68B4F90C307BB121462846BDE893
:1050E0003840FFF761BF074B9C4201D1AC68F1E744
:1050F000054B9C4208BFEC68ECE7002038BD00BFC0
:105100006C6000088C6000084C60000838B5074CE3
:10511000054608461146002222601A4600F008F9AA
:10512000431C02D1236803B12B6038BD3402002038
:1051300070B50E46B1F90E10002990B014461D4608
:1051400007DA00232B60B3891A0610D44FF480636A
:105150000EE001AA00F0B2F80028F2DB029A02F495
:105160007042A2F500535A425A412A60EEE74023AA
:105170000020236010B070BD8B8973B59D07064673
:105180000C4607D504F147032360236101236361C3
:1051900002B070BD01AB6A46FFF7CAFF0099054631
:1051A0003046FFF797FA48B9B4F90C309A05EFD4B6
:1051B00023F0030343F00203A381E3E70D4BB36243
:1051C000A389206043F08003A381009B6361019B5E
:1051D00020615BB1B4F90E10304600F081F828B1BF
:1051E000A38923F0030343F00103A381A3891D4393
:1051F000A581CDE7314500087047704738B50546B1
:10520000002945D051F8043C0C1F002BB8BFE4180E
:10521000FFF7F2FF1F4A1368104633B9636014604A
:105220002846BDE83840FFF7E8BFA3420CD9216803
:105230006218934204BF1A685B68636004BF521827
:1052400022600460ECE713465A680AB1A242FAD918
:1052500019685818A0420BD120680144581882429E
:105260001960DDD1106852685A6001441960D7E7AF
:1052700002D90C232B60D3E7206821188A4204BF8F
:1052800011685268626004BF091821605C60C7E75A
:1052900038BD00BF9C00002038B5074C05460846C5
:1052A0001146002222601A4600F04AF8431C02D13F
:1052B000236803B12B6038BD3402002038B5074C99
:1052C0000023054608461146236000F021F8431CE0
:1052D00002D1236803B12B6038BD00BF3402002027
:1052E00038B5064C002305460846236000F018F840
:1052F000431C02D1236803B12B6038BD3402002067
:10530000024B58221A604FF0FF30704734020020E1
:10531000024B58221A604FF0FF30704734020020D1
:10532000024B58221A600020704700BF3402002050
:10533000024B58221A604FF0FF30704734020020B1
:10534000024B58221A604FF0FF30704734020020A1
:10535000044B1968024609B90349196018680244E8
:105360001A607047A400002038020020F8B500BF82
:10537000F8BC08BC9E467047F8B500BFF8BC08BC36
:045380009E4670478E
:105384003C4552524F523E3C424F4F543E3C252DD9
:105394003330732825303469293E204661696C65B1
:1053A4006420746F2072656164206669726D776130
:1053B40072652073657474696E67732066726F6DAD
:1053C40020666C6173680D0A000000003C4445428D
:1053D40055473E3C424F4F543E3C252D33307328B5
:1053E40025303469293E2056657273696F6E206DCD
:1053F4006174636820696E20617265612023310DD8
:105404000A0000003C44454255473E3C424F4F543D
:105414003E3C252D3330732825303469293E2056EF
:10542400657273696F6E206D6174636820696E20A4
:10543400617265612023320D0A0000003C4445423C
:1054440055473E3C424F4F543E3C252D3330732844
:1054540025303469293E204669726D776172652072
:10546400626F6F742073657474696E677320617200
:1054740065206E6F742076616C69642E2054727995
:1054840020746F206C6F616420696E7465726E6144
:105494006C206170706C69636174696F6E0D0A00D1
:1054A4003C4552524F523E3C424F4F543E3C252DB8
:1054B4003330732825303469293E204661696C6590
:1054C4006420746F2070726F6772616D20696E74EE
:1054D40065726E616C20666C6173682E2045727211
:1054E4006F723A20256C750D0A0000003C44454259
:1054F40055473E3C424F4F543E3C252D3330732894
:1055040025303469293E20256C75206279746573D1
:1055140020636F706965640D0A0000003C455252B7
:105524004F523E3C424F4F543E3C252D333073285E
:1055340025303469293E204661696C656420746FA6
:1055440020636F7079206E65772062696E6172796D
:1055540020746F20696E7465726E616C20666C6174
:1055640073682E204572726F722025750D0A000033
:105574003C4552524F523E3C424F4F543E3C252DE7
:105584003330732825303469293E204661696C65BF
:105594006420746F206572617365206170706C693A
:1055A400636174696F6E2E204572726F7220256C70
:1055B400780D0A003C4552524F523E3C424F4F54E4
:1055C4003E3C252D3330732825303469293E20464E
:1055D40061696C656420746F206572617365204D28
:1055E400435520666C6173680D0A00003C455252B5
:1055F4004F523E3C424F4F543E3C252D333073288E
:1056040025303469293E204661696C656420746FD5
:1056140020636F7079206E65772061707020746FDD
:10562400204D435520666C6173680D0A000000002C
:105634003C44454255473E3C424F4F543E3C252D49
:105644003330732825303469293E20536167654718
:105654006C61737320626F6F746C6F616465722028
:10566400737461727465640D0A0000003C45525203
:105674004F523E3C424F4F543E3C252D333073280D
:1056840025303469293E204661696C656420746F55
:1056940020696E69742053504920666C61736820D8
:1056A4006472697665720D0A000000003C4552522E
:1056B4004F523E3C424F4F543E3C252D33307328CD
:1056C40025303469293E204661696C656420746F15
:1056D40020696E697420626F6F746C6F61646572A7
:1056E4000D0A00003C44454255473E3C424F4F544E
:1056F4003E3C252D3330732825303469293E204E15
:1057040065772061707020666C616720697320631F
:105714006C6561720D0A00003C44454255473E3CAD
:10572400424F4F543E3C252D333073282530346985
:10573400293E204D617463686564207665727369DF
:105744006F6E73206F66206E657720616E642069CA
:105754006E7465726E616C206669726D77617265D4
:105764000D0A00003C4552524F523E3C424F4F54AA
:105774003E3C252D3330732825303469293E2042A0
:105784006F6F74206172656120697320696E636F45
:105794007272656374202D2025640D0A00000000D8
:1057A4003C4552524F523E3C424F4F543E3C252DB5
:1057B4003330732825303469293E20546865726576
:1057C400206973206E6F206D61746368207769743B
:1057D40068206E6577206170700D0A003C45525256
:1057E4004F523E3C424F4F543E3C252D333073289C
:1057F40025303469293E20496E7465726E616C20CF
:105804006669726D7761726520697320696E76616D
:105814006C69640D0A0000003C44454255473E3C17
:10582400424F4F543E3C252D333073282530346984
:10583400293E20417661696C61626C6520617070FB
:10584400202325640D0A00003C44454255473E3C54
:10585400424F4F543E3C252D333073282530346954
:10586400293E205265626F6F740D0A003C43524911
:10587400544943414C3E3C424F4F543E3C252D330A
:1058840030732825303469293E204E6F20617661BB
:10589400696C61626C65206669726D7761726520FE
:1058A400696E2065787465726E616C20666C6173D4
:1058B400680D0A003C44454255473E3C424F4F5414
:1058C4003E3C252D3330732825303469293E204948
:1058D4006E7465726E616C20465720435243206992
:1058E40073204F4B2C207374617274696E6720743B
:1058F4006F206C6F6164206170700D0A00000000FD
:105904003C4552524F523E3C424F4F543E3C252D53
:105914003330732825303469293E20546865726514
:10592400206973206E6F20696E666F2061626F75E7
:105934007420696E7465726E616C204657207369B9
:105944007A652C2063616E27742063616C63756CC7
:10595400617465204352430D0A0000002E2E5C53EF
:1059640072635C6D61696E2E630000003C455252A7
:105974004F523E3C544553543E3C252D33307328FE
:1059840025303469293E2050726F626C656D207732
:1059940069746820646174612073656E64696E67FC
:1059A4000D0A00003C4552524F523E3C544553545C
:1059B4003E3C252D3330732825303469293E20544C
:1059C4006F6F206269672061646472657373207607
:1059D400616C75650D0A00003C4552524F523E3CC5
:1059E400544553543E3C252D3330732825303469B7
:1059F400293E2050726F626C656D2077697468204F
:105A04006461746120726563656976696E670D0A05
:105A1400000000003C4552524F523E3C5445535402
:105A24003E3C252D3330732825303469293E2054DB
:105A34006F6F20626967206C656E67746820766199
:105A44006C75650D0A0000003C4552524F523E3CB5
:105A5400544553543E3C252D333073282530346946
:105A6400293E204E756C6C20706F696E74657220CF
:105A740072656365697665640D0A00003C4552529F
:105A84004F523E3C544553543E3C252D33307328ED
:105A940025303469293E2050726F626C656D207721
:105AA4006974682073656E64696E67204368697001
:105AB40020457261736520636F6D6D616E6420743F
:105AC4006F20666C6173680D0A0000003C455252F9
