:020000040800F2
:2000000000000320413F0008753E0008833E0008893E00088F3E0008953E00080000000032
:200020000000000000000000000000009B3E0008A93E000800000000B73E0008C53E0008E8
:20004000913F0008913F0008913F0008913F0008913F0008913F0008913F0008913F0008E0
:20006000913F0008913F0008913F0008913F0008913F0008913F0008913F0008913F0008C0
:20008000913F0008913F0008913F0008913F0008913F0008913F0008913F0008913F0008A0
:2000A000913F0008913F0008913F0008913F0008913F0008913F0008913F0008913F000880
:2000C000913F0008913F0008913F0008913F0008913F0008913F0008913F0008913F000860
:2000E000913F0008913F0008913F0008913F0008913F0008913F0008913F0008913F000840
:20010000913F0008913F0008913F0008913F0008913F0008913F0008913F0008913F00081F
:20012000913F0008913F0008913F0008913F0008913F0008913F0008913F0008913F0008FF
:20014000913F0008913F0008913F0008913F0008913F0008913F0008913F0008913F0008DF
:20016000913F0008913F0008913F0008913F0008913F0008913F0008913F00080000000097
:20018000913F0008913F0008913F0008913F0008913F0008913F0008913F0008913F00089F
:2001A000913F0008913F0008913F000810B5054C237833B9044B13B10448AFF30080012375
:2001C000237010BD1000002000000000DC3F000808B5034B1BB103490348AFF3008008BD17
:2001E0000000000014000020DC3F000853B94AB9002908BF00281CBF4FF0FF314FF0FF30C9
:2002000000F07AB9ADF1080C6DE904CE00F006F8DDF804E0DDE9022304B070472DE9F04797
:200220008C460D460446089E002B51D18A4217466DD9B2FA82FEBEF1000F0BD0CEF1200C3D
:2002400001FA0EF520FA0CFC02FA0EF74CEA050C00FA0EF44FEA174A250CBCFBFAF81FFAAD
:2002600087F90AFB18CC45EA0C4508FB09F3AB420AD9ED1908F1FF3280F02381AB4240F263
:200280002081A8F102083D44ED1AA4B2B5FBFAF00AFB105544EA054400FB09F9A14509D9FC
:2002A000E41900F1FF3380F00A81A14540F2078102383C44A4EB090440EA08400021002E6C
:2002C00061D024FA0EF4002334607360BDE8F0878B4207D9002E54D0002186E8210008462A
:2002E000BDE8F087B3FA83F1002940F08E80AB4202D3824200F2FA80841A65EB0305012051
:20030000AC46002E3FD086E81010BDE8F08712B90127B7FBF2F7B7FA87FEBEF1000F34D17D
:20032000EB1B3A0C1FFA87FC0121B3FBF2F8250C02FB183345EA03450CFB08F3AB4207D95C
:20034000ED1908F1FF3002D2AB4200F2D1808046ED1AA3B2B5FBF2F002FB105543EA0544DF
:200360000CFB00FCA44507D9E41900F1FF3302D2A44500F2B8801846A4EB0C0440EA08403B
:200380009DE731463046BDE8F087CEF1200405FA0EF307FA0EF720FA04F83A0C25FA04F474
:2003A00048EA0308B4FBF2F14FEA184502FB11441FFA87FC45EA044501FB0CF3AB4200FA90
:2003C0000EF409D9ED1901F1FF3080F08A80AB4240F2878002393D44EB1A1FFA88F5B3FB6D
:2003E000F2F002FB103345EA034500FB0CF3AB4207D9ED1900F1FF386FD2AB426DD90238C1
:200400003D44EB1A40EA01418FE7C1F1200722FA07F88B4005FA01F448EA030320FA07FE6A
:200420004FEA134CFD404EEA040EB5FBFCF94FEA1E440CFB19551FFA83F844EA054509FBD8
:2004400008F4AC4202FA01F200FA01FA08D9ED1809F1FF3043D2AC4241D9A9F102091D449C
:200460002D1B1FFA8EFEB5FBFCF00CFB10554EEA054400FB08F8A04507D9E41800F1FF3525
:2004800029D2A04527D902381C4440EA0940A4EB0804A0FB02894C45C6464D4615D312D0B4
:2004A00056B1BAEB0E0364EB050404FA07F7CB401F43CC40376074600021BDE8F0871846AC
:2004C000F8E69046E0E6C245EAD2B8EB020E69EB03050138E4E72846D7E7404691E78146DB
:2004E000BEE7014678E702383C4445E7084608E7A8F102083D442BE7704700BF80B500AFFE
:200500000E4A0E4B1B6843F4007313600B4A0B4B1B6843F480631360084A084B1B6843F470
:2005200080731360032000F041F9002000F03CF803F096FB0023184680BD00BF003C024045
:2005400080B500AF134B4FF0FF321A62114B00221A62104B4FF0FF325A620E4B00225A62B5
:200560000C4B4FF0FF321A610A4B00221A61094B4FF0FF325A61074B00225A61054B4FF00A
:20058000FF329A61034B00229A6100F005F80023184680BD0038024080B400AF00BFBD46FA
:2005A0005DF8047B7047000080B582B000AF7860124B1A68124B1B7819464FF47A73B3FBB6
:2005C000F1F3B2FBF3F3184600F017F90346002B01D001230EE07B680F2B0AD800227968ED
:2005E0004FF0FF3000F0EDF8064A7B681360002300E0012318460837BD4680BD08000020E6
:20060000040000200000002080B584B000AF786002F006FFB8607B68FB60FB68B3F1FF3F14
:2006200005D0094B1B781A46FB681344FB6000BF02F0F6FE0246BB68D21AFB689A42F7D384
:2006400000BF1037BD4680BD0400002080B485B000AF78607B6803F00703FB600C4BDB686B
:20066000BB60BA684FF6FF031340BB60FB681A02BB68134343F0BF6343F40033BB60044A68
:20068000BB68D36000BF1437BD465DF8047B704700ED00E080B400AF044BDB681B0A03F012
:2006A00007031846BD465DF8047B704700ED00E080B483B000AF03463960FB7197F907304C
:2006C000002B0BDA0D49FB7903F00F03043B3A68D2B21201D2B20B441A7609E0084997F996
:2006E00007303A68D2B21201D2B20B4483F8002300BF0C37BD465DF8047B704700ED00E0BC
:2007000000E100E080B489B000AFF860B9607A60FB6803F00703FB61FB69C3F10703042BA4
:2007200028BF0423BB61FB690433062B02D9FB69033B00E000237B610122BB6902FA03F32E
:200740005A1EBB681A407B699A4001217B6901FA03F3591E7B680B40134318462437BD4638
:200760005DF8047B7047000080B582B000AF78607B68013BB3F1807F01D301230FE00A4A03
:200780007B68013B53600F214FF0FF30FFF790FF054B00229A60044B07221A600023184685
:2007A0000837BD4680BD00BF10E000E080B582B000AF78607868FFF749FF00BF0837BD461E
:2007C00080BD80B586B000AF0346B9607A60FB7300237B61FFF75EFF78617A68B968786909
:2007E000FFF790FF024697F90F3011461846FFF75FFF00BF1837BD4680BD80B582B000AFF0
:2008000078607868FFF7B0FF034618460837BD4680BD000080B483B000AF78607B68042B55
:2008200006D1094A084B1B6843F00403136005E0054A054B1B6823F00403136000BF0C3775
:20084000BD465DF8047B704710E000E080B500AF00F002F800BF80BD80B400AF00BFBD46CB
:200860005DF8047B7047000080B586B000AFF860B960C7E900230123FB75234B1B7E012BC8
:2008800001D102233BE0204B01221A764CF2503000F070F80346FB75FB7D002B2BD1FB6857
:2008A000002B05D13B781946B86800F015F916E0FB68012B05D13B881946B86800F0E8F89A
:2008C0000DE0FB68022B05D13B681946B86800F0BDF804E0D7E90023B86800F08BF84CF266
:2008E000503000F047F80346FB75084A074B1B6923F001031361044B00221A76FB7D184606
:200900001837BD4680BD00BF3C000020003C024080B483B000AF0023FB710B4B1B69002B05
:200920000BDA094B094A5A60074B094A5A60064B1B69002B01DA0123FB71FB7918460C3792
:20094000BD465DF8047B7047003C024023016745AB89EFCD80B400AF054A054B1B6943F092
:200960000043136100231846BD465DF8047B7047003C024080B584B000AF78600023FB60C5
:200980001A4B0022DA6102F04BFDF86010E07B68B3F1FF3F0CD07B68002B07D002F040FD5E
:2009A0000246FB68D21A7B689A4201D9032319E00F4BDB6803F48033002BE8D10C4BDB6823
:2009C00003F00103002B02D0094B0122DA60084BDB6803F4F973002B03D000F09FF80123D0
:2009E00000E0002318461037BD4680BD3C000020003C0240F0B484B000AFF860C7E9002383
:200A0000114A114B1B6923F4407313610E4A0E4B1B6943F4407313610B4A0B4B1B6943F068
:200A200001031361FB683A681A60FB6804331A4697E81800250000262B46136000BF1037F9
:200A4000BD46F0BC704700BF003C024080B483B000AF786039600D4A0C4B1B6923F4407370
:200A600013610A4A094B1B6943F400731361074A064B1B6943F0010313617B683A681A60E8
:200A800000BF0C37BD465DF8047B7047003C024080B483B000AF78600B467B800D4A0D4B5F
:200AA0001B6923F4407313610A4A0A4B1B6943F480731361074A074B1B6943F001031361D7
:200AC0007B687A881A8000BF0C37BD465DF8047B704700BF003C024080B483B000AF7860DC
:200AE0000B46FB700C4A0C4B1B6923F440731361094A094B1B691361074A074B1B6943F0D2
:200B0000010313617B68FA781A7000BF0C37BD465DF8047B704700BF003C024080B400AFCE
:200B20002F4BDB6803F01003002B08D02D4BDB6943F010032B4AD361294B1022DA60284BF1
:200B4000DB6803F02003002B08D0264BDB6943F00803244AD361224B2022DA60204BDB680D
:200B600003F04003002B08D01E4BDB6943F004031C4AD3611A4B4022DA60194BDB6803F020
:200B80008003002B08D0174BDB6943F00203154AD361134B8022DA60114BDB6803F480739B
:200BA000002B09D00F4BDB6943F001030D4AD3610B4B4FF48072DA60094BDB6803F002037D
:200BC000002B08D0074BDB6943F02003054AD361034B0222DA6000BFBD465DF8047B7047AA
:200BE000003C02403C00002080B584B000AF786039600123FB730023BB60324B1B7E012B80
:200C000001D102235AE02F4B01221A764CF25030FFF7B0FE0346FB73FB7B002B4AD13B68FE
:200C20004FF0FF321A607B681B68012B17D17B681B69DAB27B685B681946104600F046F8D4
:200C40004CF25030FFF796FE0346FB731E4A1E4B1B6923F4004323F00403136128E07B686D
:200C60009B68BB601CE07B681B69DBB21946B86800F066F84CF25030FFF77CFE0346FB73B4
:200C8000114A114B1B6923F0FA031361FB7B002B03D03B68BA681A600AE0BB680133BB6086
:200CA0007B68DA687B689B681A44BB689A42DAD800F094F8034B00221A76FB7B1846103783
:200CC000BD4680BD3C000020003C024080B483B000AF03463960FB71184A184B1B6923F436
:200CE000407313613B68032B08D1144A134B1B6943F4004343F0040313610FE03B68012BFD
:200D000006D10E4A0D4B1B6943F00403136105E00A4A0A4B1B6943F4004313610749074B78
:200D20001A69FB791B02134343F480330B6100BF0C37BD465DF8047B704700BF003C024026
:200D400080B485B000AF78600B46FB700023FB60FB78002B02D10023FB6010E0FB78012BEB
:200D600003D14FF48073FB6009E0FB78022B03D14FF40073FB6002E04FF44073FB607B688A
:200D80000B2B02D97B6804337B60134A124B1B6923F44073136110490F4B1A69FB681343E2
:200DA0000B610D4A0C4B1B6923F0F80313610A49094B1A697B68DB00134343F002030B6131
:200DC000054A054B1B6943F48033136100BF1437BD465DF8047B7047003C024080B400AF99
:200DE000204B1B6803F40073002B17D01D4A1D4B1B6823F4007313601A4A1A4B1B6843F4B7
:200E000000631360174A174B1B6823F400631360144A144B1B6843F400731360114B1B688D
:200E200003F48063002B17D00E4A0E4B1B6823F4806313600B4A0B4B1B6843F4805313607A
:200E4000084A084B1B6823F480531360054A054B1B6843F48063136000BFBD465DF8047BC8
:200E6000704700BF003C024080B489B000AF7860396000237B6100233B610023BB610023D1
:200E8000FB6177E10122FB6902FA03F37B613B681A687B6913403B613A697B699A4240F0BE
:200EA00066813B685B68022B03D03B685B68122B23D1FB69DA087B68083253F82230BB6132
:200EC000FB6903F007039B000F2202FA03F3DB43BA691340BB613B681A69FB6903F00703BC
:200EE0009B0002FA03F3BA691343BB61FB69DA087B680832B96943F822107B681B68BB615C
:200F0000FB695B00032202FA03F3DB43BA691340BB613B685B6803F00302FB695B0002FA32
:200F200003F3BA691343BB617B68BA691A603B685B68012B0BD03B685B68022B07D03B682C
:200F40005B68112B03D03B685B68122B30D17B689B68BB61FB695B00032202FA03F3DB4325
:200F6000BA691340BB613B68DA68FB695B0002FA03F3BA691343BB617B68BA699A607B68D1
:200F80005B68BB610122FB6902FA03F3DB43BA691340BB613B685B681B0903F00102FB6965
:200FA00002FA03F3BA691343BB617B68BA695A607B68DB68BB61FB695B00032202FA03F3D2
:200FC000DB43BA691340BB613B689A68FB695B0002FA03F3BA691343BB617B68BA69DA6036
:200FE0003B685B6803F08053002B00F0C0800023FB60654A644B5B6C43F480435364624B69
:201000005B6C03F48043FB60FB68604AFB699B08023352F82330BB61FB6903F003039B00FA
:201020000F2202FA03F3DB43BA691340BB617B68574A934237D07B68564A934231D07B6841
:20104000554A93422BD07B68544A934225D07B68534A93421FD07B68524A934219D07B6872
:20106000514A934213D07B68504A93420DD07B684F4A934207D07B684E4A934201D1092378
:2010800012E00A2310E008230EE007230CE006230AE0052308E0042306E0032304E00223B3
:2010A00002E0012300E00023FA6902F0030292009340BA691343BB613449FB699B0802331A
:2010C000BA6941F823203C4B1B68BB613B69DB43BA691340BB613B685B6803F48033002BBC
:2010E00003D0BA693B691343BB61334ABB691360314B5B68BB613B69DB43BA691340BB6121
:201100003B685B6803F40033002B03D0BA693B691343BB61284ABB695360274B9B68BB612E
:201120003B69DB43BA691340BB613B685B6803F48013002B03D0BA693B691343BB611E4ACC
:20114000BB6993601C4BDB68BB613B69DB43BA691340BB613B685B6803F40013002B03D0F0
:20116000BA693B691343BB61134ABB69D360FB690133FB61FB690F2B7FF684AE00BF24372F
:20118000BD465DF8047B70470038024000380140000002400004024000080240000C0240AE
:2011A000001002400014024000180240001C02400020024000240240003C014080B487B01F
:2011C00000AF7860396000233B610023FB600023BB6000237B61DAE001227B6902FA03F3C2
:2011E0003B613A683B691340FB60FA683B699A4240F0CA807B681A687B695B00032101FA40
:2012000003F3DB431A407B681A607B69DA087B69D9087B68083153F821107B6903F00703FF
:201220009B000F2000FA03F3DB4319407B68083243F822107B689A687B695B00032101FAB0
:2012400003F3DB431A407B689A607B685A6801217B6901FA03F3DB431A407B685A607B68AF
:20126000DA687B695B00032101FA03F3DB431A407B68DA604B4A7B699B08023352F8233055
:20128000BB607B6903F003039B000F2202FA03F3BA681340BB607B68434A934237D07B68D9
:2012A000424A934231D07B68414A93422BD07B68404A934225D07B683F4A93421FD07B6844
:2012C0003E4A934219D07B683D4A934213D07B683C4A93420DD07B683B4A934207D07B6894
:2012E0003A4A934201D1092312E00A2310E008230EE007230CE006230AE0052308E004230F
:2013000006E0032304E0022302E0012300E000237A6902F00302920003FA02F2BB689A4253
:2013200032D17B6903F003039B000F2202FA03F3BB601C487B699B081A497A6992080232F5
:2013400051F82210BA68D2430A40023340F823201F491F4B1A68FB68DB4313400B601C49E9
:201360001B4B5A68FB68DB4313404B601849184B9A68FB68DB4313408B601549144BDA6842
:20138000FB68DB431340CB607B6901337B617B690F2B7FF621AF00BF1C37BD465DF8047B0E
:2013A000704700BF00380140000002400004024000080240000C0240001002400014024076
:2013C00000180240001C02400020024000240240003C014080B483B000AF78600B467B80D6
:2013E00013467B707B78002B03D07A887B689A6103E07B881A047B689A6100BF0C37BD46F1
:201400005DF8047B704780B483B000AF78600B467B807B685A697B885A407B685A6100BF67
:201420000C37BD465DF8047B7047000080B582B000AF00237B6000233B60204A1F4B1B6CAE
:2014400043F0805313641D4B1B6C03F080533B603B681B4B01221A6001F0E2FF786009E086
:2014600001F0DEFF02467B68D31AB3F57A7F01D903231FE0134B5B6803F48033B3F5803FB4
:20148000EED1114B01221A6001F0CAFF786009E001F0C6FF02467B68D31AB3F57A7F01D9D0
:2014A000032307E0074B5B6803F40033B3F5003FEED1002318460837BD4680BD00380240C0
:2014C00040000E420070004044000E4280B586B000AF78607B68002B01D101232DE27B6850
:2014E0001B6803F00103002B75D0A34B9B6803F00C03042B0CD0A04B9B6803F00C03082BE1
:2015000012D19D4B5B6803F48003B3F5800F0BD1994B1B6803F40033002B5BD07B685B6823
:20152000002B57D1012308E27B685B68B3F5803F06D1914A904B1B6843F4803313601DE0D3
:201540007B685B68B3F5A02F0CD18B4A8A4B1B6843F480231360884A874B1B6843F4803306
:2015600013600BE0844A844B1B6823F480331360814A814B1B6823F4802313607B685B68C3
:20158000002B13D001F04CFF386108E001F048FF02463B69D31A642B01D90323CDE1764B71
:2015A0001B6803F40033002BF0D014E001F038FF386108E001F034FF02463B69D31A642B6A
:2015C00001D90323B9E16C4B1B6803F40033002BF0D100E000BF7B681B6803F00203002BF9
:2015E00063D0654B9B6803F00C03002B0BD0624B9B6803F00C03082B1CD15F4B5B6803F4C7
:201600008003002B16D15C4B1B6803F00203002B05D07B68DB68012B01D001238DE15649BF
:20162000554B1B6823F0F8027B681B69DB0013430B603AE07B68DB68002B20D04F4B01225F
:201640001A6001F0EDFE386108E001F0E9FE02463B69D31A022B01D903236EE1464B1B6872
:2016600003F00203002BF0D04349434B1B6823F0F8027B681B69DB0013430B6015E03F4B5B
:2016800000221A6001F0CCFE386108E001F0C8FE02463B69D31A022B01D903234DE1364B06
:2016A0001B6803F00203002BF0D17B681B6803F00803002B30D07B685B69002B16D0304B01
:2016C00001221A6001F0ACFE386108E001F0A8FE02463B69D31A022B01D903232DE1264B35
:2016E0005B6F03F00203002BF0D015E0244B00221A6001F095FE386108E001F091FE024670
:201700003B69D31A022B01D9032316E11A4B5B6F03F00203002BF0D17B681B6803F00403A1
:20172000002B00F0A0800023FB75134B1B6C03F08053002B0FD10023FB600F4A0E4B1B6C6E
:2017400043F0805313640C4B1B6C03F08053FB60FB680123FB750B4B1B6803F48073002B28
:2017600021D1084A074B1B6843F48073136001F057FE386111E000BF003802400000474221
:20178000800E47420070004001F04AFE02463B69D31A022B01D90323CFE06A4B1B6803F465
:2017A0008073002BF0D07B689B68012B06D1664A654B1B6F43F0010313671CE07B689B68E5
:2017C000052B0CD1604A604B1B6F43F0040313675D4A5D4B1B6F43F0010313670BE05A4A50
:2017E000594B1B6F23F001031367574A564B1B6F23F0040313677B689B68002B15D001F0E3
:201800000FFE38610AE001F00BFE02463B69D31A41F28832934201D903238EE04A4B1B6F16
:2018200003F00203002BEED014E001F0F9FD38610AE001F0F5FD02463B69D31A41F28832C0
:20184000934201D9032378E03F4B1B6F03F00203002BEED1FB7D012B05D13B4A3A4B1B6C5A
:2018600023F0805313647B689B69002B64D0364B9B6803F00C03082B5CD07B689B69022BCC
:2018800041D1324B00221A6001F0CAFD386108E001F0C6FD02463B69D31A022B01D903232A
:2018A0004BE0294B1B6803F00073002BF0D126497B68DA697B681B6A1A437B685B6A9B0116
:2018C0001A437B689B6A5B08013B1B041A437B68DB6A1B0613434B601C4B01221A6001F069
:2018E0009FFD386108E001F09BFD02463B69D31A022B01D9032320E0134B1B6803F00073F5
:20190000002BF0D018E0114B00221A6001F088FD386108E001F084FD02463B69D31A022B7D
:2019200001D9032309E0084B1B6803F00073002BF0D101E0012300E0002318461837BD46DE
:2019400080BD00BF00700040003802406000474280B584B000AF786039607B68002B01D10F
:201960000123CAE0674B1B6803F00F023B689A420CD2644B3A68D2B21A70624B1B6803F081
:201980000F023B689A4201D00123B6E07B681B6803F00203002B20D07B681B6803F0040353
:2019A000002B05D0584A584B9B6843F4E05393607B681B6803F00803002B05D0524A524BE5
:2019C0009B6843F4604393604F494F4B9B6823F0F0027B689B6813438B607B681B6803F07D
:2019E0000103002B44D07B685B68012B07D1464B1B6803F40033002B19D101237DE07B6843
:201A00005B68022B03D07B685B68032B07D13E4B1B6803F00073002B09D101236DE03A4BEA
:201A20001B6803F00203002B01D1012365E03649354B9B6823F003027B685B6813438B60C4
:201A400001F0EEFCF8600AE001F0EAFC0246FB68D31A41F28832934201D903234DE02A4B96
:201A60009B6803F00C027B685B689B009A42EBD1244B1B6803F00F023B689A420CD9214BC3
:201A80003A68D2B21A701F4B1B6803F00F023B689A4201D0012330E07B681B6803F00403C1
:201AA000002B08D01849184B9B6823F4E0527B68DB6813438B607B681B6803F00803002B1D
:201AC00009D01149104B9B6823F460427B681B69DB0013438B6000F01DF801460A4B9B6895
:201AE0001B0903F00F03094AD35C21FA03F3084A13600020FEF758FD002318461037BD4630
:201B000080BD00BF003C02400038024008440008080000202DE9F04F87B000AF0022FA609E
:201B200000227A610022BA6000223A61514A926802F00C02042A07D0082A08D0002A40F0B1
:201B400090804D4B3B618FE04C4B3B618CE0494A526802F03F02FA60464A526802F4800297
:201B6000002A23D0434B5B689B094FF0000440F2FF114FF0000203EA010304EA02043F4A1F
:201B800002FB04F1002202FB03F20A443B49A3FB010153181946FB684FF000041A46234694
:201BA000FEF724FB03460C467B614CE0314A5268920911464FF0000240F2FF154FF000067B
:201BC00005EA010506EA0206294632464FEA421B4BEAD16B4FEA411A51465A46AA46B34676
:201BE00055465E464D1B62EB060629463246940144EA91648B015B1A64EB02044FEAC409EA
:201C000049EA53794FEAC30843464C4655465E46ED1846EB04062B463446A2027A607A68DC
:201C200042EA93527A609B023B6097E8180018462146FB684FF000041A462346FEF7D6FAF1
:201C400003460C467B610B4B5B681B0C03F0030301335B00BB607A69BB68B2FBF3F33B61F5
:201C600002E0054B3B6100BF3B6918461C37BD46BDE8F08F003802400024F40040787D0193
:201C800080B400AF034B1B681846BD465DF8047B704700BF0800002080B500AFFFF7F0FFF4
:201CA0000146054B9B689B0A03F00703034AD35C21FA03F3184680BD0038024018440008E2
:201CC00080B500AFFFF7DCFF0146054B9B685B0B03F00703034AD35C21FA03F3184680BD2A
:201CE000003802401844000880B582B000AF01F097FB7860714A714B1B6843F001031360F1
:201D000008E001F08DFB02467B68D31A022B01D90323CEE0694B1B6803F00203002BF0D055
:201D2000664A664B1B6843F08003136001F078FB7860624B00229A600AE001F071FB024602
:201D40007B68D31A41F28832934201D90323B0E05A4B9B6803F00C03002BEED101F060FB81
:201D60007860564A554B1B6823F45023136008E001F056FB02467B68D31A642B01D90323FA
:201D800097E04E4B1B6803F40033002BF0D101F047FB7860494A494B1B6823F0807313606C
:201DA00008E001F03DFB02467B68D31A022B01D903237EE0414B1B6803F00073002BF0D10E
:201DC00001F02EFB78603D4A3C4B1B6823F08063136008E001F024FB02467B68D31A022BDA
:201DE00001D9032365E0354B1B6803F00063002BF0D101F015FB7860304A304B1B6823F0F5
:201E00008053136008E001F00BFB02467B68D31A022B01D903234CE0284B1B6803F00053F0
:201E2000002BF0D1254B264A5A60244B254AC3F88420224B234AC3F88820204A1F4BDB688B
:201E400023F4F853D3601D4A1C4BDB6823F40053D3601A4A194BDB6823F48043D360174AC6
:201E6000164BDB6843F41F03D360144A134BDB6843F40013D360114A104BDB6843F4800303
:201E8000D3600E4A0D4B5B6F23F0010353670B4A0A4B5B6F43F0807353670B4B0B4A1A604B
:201EA0000020FEF781FB0346002B01D0012300E0002318460837BD4680BD00BF003802400F
:201EC0001030000400300024080000200024F40080B582B000AF78607B68002B01D1012338
:201EE00055E07B6800229A627B6893F85130DBB2002B06D17B68002283F85020786801F06D
:201F000001FF7B68022283F851207B681B687A681268126822F040021A607B681B687A687C
:201F200051687A68926811437A68D26811437A68126911437A68526911437A68926902F4D3
:201F4000007211437A68D26911437A68126A11437A68926A0A431A607B681B687A689269B0
:201F6000120C02F004017A68526A0A435A607B681B687A681268D26922F40062DA617B6814
:201F800000225A657B68012283F85120002318460837BD4680BD80B582B000AF78607B689D
:201FA000002B01D101231AE07B68022283F851207B681B687A681268126822F040021A6009
:201FC000786801F0E3FE7B6800225A657B68002283F851207B68002283F850200023184629
:201FE0000837BD4680BD80B58AB002AFF860B9603B601346FB800023BB610023FB77FB682B
:2020000093F85030012B01D1022323E1FB68012283F8502001F004FAB861FB6893F85130A6
:20202000DBB2012B02D00223FB770AE1BB68002B02D0FB88002B02D10123FB7701E1FB6817
:20204000032283F85120FB6800225A65FB68BA681A63FB68FA889A86FB68FA88DA86FB687C
:2020600000229A63FB6800229A87FB680022DA87FB6800225A64FB6800221A64FB689B6809
:20208000B3F5004F07D1FB681B68FA681268126842F480421A60FB681B681B6803F0400324
:2020A000402B07D0FB681B68FA681268126842F040021A60FB68DB68B3F5006F47D1FB687C
:2020C0005B68002B04D0FB68DB8E9BB2012B38D1FB681B68BA681288DA60BB680233BB60A1
:2020E000FB68DB8E9BB2013B9AB2FB68DA8628E0FB681B689B6803F00203022B0FD1FB6823
:202100001B68BA681288DA60BB680233BB60FB68DB8E9BB2013B9AB2FB68DA8611E03B68DB
:20212000002B0BD03B68B3F1FF3F0AD001F078F90246BB69D21A3B689A4202D30323FB7794
:202140007FE0FB68DB8E9BB2002BD1D148E0FB685B68002B04D0FB68DB8E9BB2012B3AD19D
:20216000FB681B680C33BA6812781A70BB680133BB60FB68DB8E9BB2013B9AB2FB68DA862E
:2021800029E0FB681B689B6803F00203022B10D1FB681B680C33BA6812781A70BB68013395
:2021A000BB60FB68DB8E9BB2013B9AB2FB68DA8611E03B68002B0BD03B68B3F1FF3F0AD0A7
:2021C00001F02EF90246BB69D21A3B689A4202D30323FB7735E0FB68DB8E9BB2002BD0D1A9
:2021E000BB6900933B6801220221F86800F0E3FA0346002B02D00323FB7722E0BA6939686E
:20220000F86800F041FB0346002B05D00123FB77FB6820225A6514E0FB689B68002B0AD18F
:2022200000237B61FB681B68DB687B61FB681B689B687B617B69FB685B6D002B01D00123A6
:20224000FB77FB68012283F85120FB68002283F85020FB7F18462037BD4680BD80B588B04E
:2022600002AFF860B9603B601346FB8000233B610023FB75FB685B68B3F5827F12D1FB6866
:202280009B68002B0ED1FB68042283F85120FA883B6800931346BA68B968F86800F0ECF834
:2022A0000346E5E0FB6893F85030012B01D10223DEE0FB68012283F8502001F0B1F838611D
:2022C000FB6893F85130DBB2012B02D00223FB75C5E0BB68002B02D0FB88002B02D1012305
:2022E000FB75BCE0FB68042283F85120FB6800225A65FB68BA689A63FB68FA889A87FB682E
:20230000FA88DA87FB6800221A63FB6800229A86FB680022DA86FB6800221A64FB680022C6
:202320005A64FB689B68B3F5004F07D1FB681B68FA681268126822F480421A60FB681B6836
:202340001B6803F04003402B07D0FB681B68FA681268126842F040021A60FB68DB68002B87
:202360005BD12AE0FB681B689B6803F00103012B11D1FB681B680C331B78DAB2BB681A7048
:20238000BB680133BB60FB68DB8F9BB2013B9AB2FB68DA8711E03B68002B0BD03B68B3F184
:2023A000FF3F0AD001F03CF802463B69D21A3B689A4202D30323FB7551E0FB68DB8F9BB2D3
:2023C000002BCFD12EE0FB681B689B6803F00103012B10D1FB681B68DB689AB2BB681A8005
:2023E000BB680233BB60FB68DB8F9BB2013B9AB2FB68DA8711E03B68002B0BD03B68B3F123
:20240000FF3F0AD001F00CF802463B69D21A3B689A4202D30323FB7521E0FB68DB8F9BB2D2
:20242000002BD0D1FB685B68B3F5827F11D1FB689B68B3F5004F04D0FB689B68B3F5806FF1
:2024400007D1FB681B68FA681268126822F040021A60FB685B6D002B01D00123FB75FB687C
:20246000012283F85120FB68002283F85020FB7D18461837BD4680BD80B58CB002AFF860FE
:20248000B9607A607B800023FB610023BB6100237B6101237B62002387F82330FB6893F8AD
:2024A0005030012B01D1022381E1FB68012283F8502000F0B5FF7861FB6893F85130DBB22D
:2024C000FB61FB685B68BB61FB69012B0ED0BB69B3F5827F06D1FB689B68002B02D1FB6984
:2024E000042B03D0022387F8233056E1BB68002B05D07B68002B02D07B88002B03D1012383
:2025000087F8233049E1FB6893F85130DBB2012B03D1FB68052283F85120FB6800225A6509
:20252000FB687A689A63FB687A88DA87FB687A889A87FB68BA681A63FB687A88DA86FB68E3
:202540007A889A86FB6800221A64FB6800225A64FB681B681B6803F04003402B07D0FB68CF
:202560001B68FA681268126842F040021A60FB68DB68B3F5006F71D1FB685B68002B04D070
:20258000FB68DB8E9BB2012B5DD1FB681B68BA681288DA60BB680233BB60FB68DB8E9BB260
:2025A000013B9AB2FB68DA864DE07B6A002B1CD0FB68DB8E9BB2002B17D0FB681B689B6893
:2025C00003F00203022B10D1FB681B68BA681288DA60BB680233BB60FB68DB8E9BB2013B51
:2025E0009AB2FB68DA8600237B62FB68DB8F9BB2002B18D0FB681B689B6803F00103012B93
:2026000011D1FB681B68DB689AB27B681A807B6802337B60FB68DB8F9BB2013B9AB2FB68EE
:20262000DA8701237B623B6BB3F1FF3F0BD000F0F7FE02467B69D21A3B6B9A4203D303235A
:2026400087F82330A9E0FB68DB8E9BB2002BACD1FB68DB8F9BB2002BA7D171E0FB685B682A
:20266000002B04D0FB68DB8E9BB2012B5ED1FB681B680C33BA6812781A70BB680133BB601A
:20268000FB68DB8E9BB2013B9AB2FB68DA864DE07B6A002B1DD0FB68DB8E9BB2002B18D080
:2026A000FB681B689B6803F00203022B11D1FB681B6803F10C02BB68591CB9601B7813707B
:2026C000FB68DB8E9BB2013B9AB2FB68DA8600237B62FB68DB8F9BB2002B17D0FB681B6884
:2026E0009B6803F00103012B10D17B685A1C7A60FA681268D268D2B21A70FB68DB8F9BB262
:20270000013B9AB2FB68DA8701237B623B6BB3F1FF3F0BD000F084FE02467B69D21A3B6BD9
:202720009A4203D3032387F8233036E0FB68DB8E9BB2002BACD1FB68DB8F9BB2002BA7D15B
:202740007B6900933B6B01220221F86800F033F80346002B03D0032387F823301DE07A697C
:20276000396BF86800F090F80346002B06D0012387F82330FB6820225A650EE0FB689B68E5
:20278000002B0AD100233B61FB681B68DB683B61FB681B689B683B613B69FB68012283F885
:2027A0005120FB68002283F8502097F8233018462837BD4680BD80B584B000AFF860B960D0
:2027C0007A603B604DE03B68B3F1FF3F49D03B68002B07D000F024FE0246BB69D21A3B6807
:2027E0009A423ED3FB681B68FA681268526822F0E0025A60FB685B68B3F5827F11D1FB68AE
:202800009B68B3F5004F04D0FB689B68B3F5806F07D1FB681B68FA681268126822F0400285
:202820001A60FB689B6AB3F5005F10D1FB681A68FB681B6819684DF6FF730B401360FB68AC
:202840001B68FA681268126842F400521A60FB68012283F85120FB68002283F85020032395
:202860000EE0FB681B689A68BB681A40BB689A4201D1012200E000227B689A42A3D10023B9
:2028800018461037BD4680BD80B586B002AFF860B9607A607B680093BB6800228021F86830
:2028A000FFF789FF0346002B07D0FB685B6D43F02002FB685A65032300E0002318461037DF
:2028C000BD4680BD80B582B000AF78607B68002B01D101233FE07B6893F83930DBB2002B18
:2028E00006D17B68002283F83820786801F072FA7B68242283F839207B681B687A6812682D
:20290000D26822F40052DA60786800F04DF87B681B687A681268126922F490421A617B6843
:202920001B687A681268526922F02A025A617B681B687A681268D26842F40052DA607B6863
:202940000022DA637B68202283F839207B68202283F83A20002318460837BD4680BD80B5F0
:2029600082B000AF78607B68002B01D1012316E07B68242283F83920786801F05DFA7B689C
:202980000022DA637B68002283F839207B68002283F83A207B68002283F8382000231846CC
:2029A0000837BD4680BD0000F0B585B000AF78600023FB607B681B681B69FB60FB6823F4FA
:2029C0004053FB607B68DB68FA681343FB607B681B68FA681A617B681B68DB68FB60FB6826
:2029E00023F4164323F00C03FB607B689A687B681B691A437B685B691A437B68DB691343C0
:202A0000FA681343FB607B681B68FA68DA607B681B685B69FB60FB6823F44073FB607B68B1
:202A20009B69FA681343FB607B681B68FA685A617B68DB69B3F5004F40F0E4807B681B68E4
:202A4000AB4A934204D07B681B68AA4A93426CD17B681C68FFF734F9024613469B0013444F
:202A60009A001A447B685B685B00B2FBF3F3A24AA2FB03235B091D01FFF722F902461346E7
:202A80009B0013449A001A447B685B685B00B2FBF3F6FFF715F9024613469B0013449A0084
:202AA0001A447B685B685B00B2FBF3F3924AA2FB03235B09642202FB03F3F31ADB0032335B
:202AC0008D4AA2FB03235B095B0003F4F8731D44FFF7F6F8024613469B0013449A001A446B
:202AE0007B685B685B00B2FBF3F6FFF7E9F8024613469B0013449A001A447B685B685B00DC
:202B0000B2FBF3F37C4AA2FB03235B09642202FB03F3F31ADB003233774AA2FB03235B0987
:202B200003F007032B44A36054E17B681C68FFF7B3F8024613469B0013449A001A447B687B
:202B40005B685B00B2FBF3F36B4AA2FB03235B091D01FFF7A1F8024613469B0013449A000E
:202B60001A447B685B685B00B2FBF3F6FFF794F8024613469B0013449A001A447B685B68AD
:202B80005B00B2FBF3F35C4AA2FB03235B09642202FB03F3F31ADB003233574AA2FB032350
:202BA0005B095B0003F4F8731D44FFF775F8024613469B0013449A001A447B685B685B00A4
:202BC000B2FBF3F6FFF768F8024613469B0013449A001A447B685B685B00B2FBF3F3464A5A
:202BE000A2FB03235B09642202FB03F3F31ADB003233414AA2FB03235B0903F007032B44CA
:202C0000A360E7E07B681B68394A934204D07B681B68384A934271D17B681C68FFF750F8B4
:202C2000024613469B0013449A001A447B685B689B00B2FBF3F3304AA2FB03235B091D0176
:202C4000FFF73EF8024613469B0013449A001A447B685B689B00B2FBF3F6FFF731F802467F
:202C600013469B0013449A001A447B685B689B00B2FBF3F3204AA2FB03235B09642202FB29
:202C800003F3F31A1B0132331B4AA2FB03235B0903F0F0031D44FFF713F8024613469B00A0
:202CA00013449A001A447B685B689B00B2FBF3F6FFF706F8024613469B0013449A001A446F
:202CC0007B685B689B00B2FBF3F30B4AA2FB03235B09642202FB03F3F31A1B013233064A4D
:202CE000A2FB03235B0903F00F032B44A36071E000100140001401401F85EB517B681C68F8
:202D0000FEF7CAFF024613469B0013449A001A447B685B689B00B2FBF3F3304AA2FB032359
:202D20005B091D01FEF7B8FF024613469B0013449A001A447B685B689B00B2FBF3F6FEF70E
:202D4000ABFF024613469B0013449A001A447B685B689B00B2FBF3F3204AA2FB03235B09D9
:202D6000642202FB03F3F31A1B0132331B4AA2FB03235B0903F0F0031D44FEF78DFF0246B0
:202D800013469B0013449A001A447B685B689B00B2FBF3F6FEF780FF024613469B00134412
:202DA0009A001A447B685B689B00B2FBF3F30B4AA2FB03235B09642202FB03F3F31A1B0129
:202DC0003233064AA2FB03235B0903F00F032B44A360FFE700BF1437BD46F0BD1F85EB5120
:202DE00080B500AF53220649002000F095FD0346002B01D0022300E00023184680BD00BFC2
:202E00005C00002080B483B000AF78601D4B93F830201C4B1B789A4212D11A4B93F831200B
:202E2000184B5B789A420BD1164B93F83220154B9B789A4204D17B6800221A7000231AE096
:202E4000104B93F830200F4B1B7E9A4212D10D4B93F831200B4B5B7E9A420BD1094B93F890
:202E60003220084B9B7E9A4204D17B6801221A70002300E0022318460C37BD465DF8047BB3
:202E8000704700BF5C00002080B483B000AF03460A46FB711346BB71FA79074913465B0029
:202EA0001344DB000B440833BA791A7000BF0C37BD465DF8047B70475C00002080B500AFA9
:202EC0001D4BD3F84F301D4A93420ED11A4B93F84C30002B09D1184B93F84D30072B04D142
:202EE000154B93F84E30082B20D0134B002283F83820002283F83920002283F83A200022E4
:202F000083F83B200C4B002283F83C200A4B002283F84C20084B072283F84D20064B08224E
:202F200083F84E2000F010F9012302E0024B93F83330184680BD00BF5C000020F145FA90D8
:202F400080B483B000AF0346FB71054AFB7982F8333000BF0C37BD465DF8047B704700BFB7
:202F60005C00002080B483B000AF0346FB71054AFB7982F8343000BF0C37BD465DF8047B90
:202F8000704700BF5C00002090B484B000AF0346FB71FA791A491A4813465B001344DB0045
:202FA000C21801F135031188927819809A70FA79134913465B001344DB000B44D3F80330C5
:202FC0000F4A93630023FB7312E0F97BFA79F87B0B4C13465B001344DB002344034409339E
:202FE0001A78074B0B4483F83D20FB7B0133FB73FB7B0E2BE9D900BF1037BD4690BC704731
:203000005C00002080B483B000AF78600C4BDB79002B04D17B6800221A70002309E0084BAD
:20302000DB7F002B04D17B6801221A70002300E0012318460C37BD465DF8047B704700BF91
:203040005C00002080B483B000AF0346FB71FA79074913465B001344DB000B4407330122D4
:203060001A7000BF0C37BD465DF8047B704700BF5C00002080B400AF0F4B93F830200E4B8A
:2030800093F835309A4211D10B4B93F831200A4B93F836309A4209D1074B93F83220064BD4
:2030A00093F837309A4201D1002300E001231846BD465DF8047B70475C00002080B400AFFE
:2030C000034B9B6B1846BD465DF8047B704700BF5C00002080B483B000AF0346FB71FA7937
:2030E0000949094813465B001344DB00C21801F130031188927819809A7000BF0C37BD46FD
:203100005DF8047B704700BF5C00002080B400AF034B93F83C301846BD465DF8047B7047D5
:203120005C00002080B483B000AF0346FB71054AFB7982F83C3000BF0C37BD465DF8047BC6
:20314000704700BF5C00002080B500AF184B002262F00E0283F84F20002242F0450283F8B2
:203160005020002262F0050283F85120002262F06F0283F85220002000F082FC0346002BA4
:2031800001D0022311E04FF4C870FDF73DFA53220749002000F010FC0346002B01D0022357
:2031A00003E00A20FDF730FA0023184680BD00BF5C00002080B582B000AF1448FFF7CFFBB9
:2031C0001348FEF7E8FEFEF78FFDFDF7B9F9114B00221A600F4B00225A600E4B00229A60EF
:2031E0000D4B1B681A460D4B1A600D4B0D4A9A600C4B1B687B607B6883F30888074B1B68A6
:20320000984700BF0837BD4680BD00BF08010020B000002010E000E0048000082C00002031
:2032200000ED00E00080000890B587B000AF0346FB710023FB730023FB7500233B61002353
:20324000BB6027E0FDF764FB3B6903F1007303F500539900BB684FF000041A4623460220B9
:20326000FDF702FB0346FB73FDF774FBFB7B002B02D00223FB7519E03B699900104BA3FB0C
:2032800001235A0B13469B001344DB02CA1A3B6901333B6107F10801FB790422184600F03C
:2032A0002BFC0346FB75FB7D002BCBD0FB7D042B01D0FB7D00E0002318461C37BD4690BDFC
:2032C000CDCCCCCC80B588B000AF0023BB770023FB770023BB6100237B600123BB60022316
:2032E000FB600A233B6102237B61FDF711FB07F118023B1D11461846FDF776FC0346BB77A9
:20330000FDF728FBBB7F002B01D00223FB77FB7F18462037BD4680BD80B582B000AF0346FB
:20332000FB71FFF7CFFF0346002B01D0022309E0FB791846FFF778FF0346002B01D0022361
:2033400000E0002318460837BD4680BD80B582B000AF4FF0FF337B60084B9B6B084A79689F
:20336000184600F00FF878607B68002B01D1002300E0012318460837BD4680BD5C000020C0
:203380000080000880B489B000AFF860B9607A607B68FB6111E0FB695A1CFA611B78FB76D5
:2033A000FA7EBB685340DBB27B61BB681A0A09497B6951F823305340BB60FB685A1EFA607A
:2033C000002BE8D1BB6818462437BD465DF8047B704700BF0440000880B400AFBFF34F8F21
:2033E0000549054BDB6803F4E062044B1343CB60BFF34F8F00BFFDE700ED00E00400FA05E0
:2034000090B400AF054B18CB013344F10004034A82E8180000BFBD4690BC70473000002035
:2034200090B400AF024B18CB1846BD4690BC70473000002080B582B000AFFDF75FF800F064
:20344000D3F800F0BDF900F051F900F08BF900F04DFA0346002B05D041F28830FDF7D4F822
:20346000FFF7BAFFFFF7BCFC0346002B05D041F28830FDF7C9F8FFF7AFFFFFF71FFD034607
:20348000002B78D1FFF742FE0346042B0AD0FFF7F1FD0346002B05D10120FFF751FDFFF7A7
:2034A00053FE6BE0FB1D1846FFF7ACFC0346002B5BD1FB79002B2AD1002000F07BFB034653
:2034C000002B10D10020FFF727FF00210020FFF7DBFC0120FFF734FDFB791846FFF754FD35
:2034E000FFF732FE4AE001210020FFF7CDFCFB791846FFF7A7FD0120FFF722FD0120FFF7C2
:2035000031FD0220FFF70EFEFFF71EFE36E0FB79012B32D1012000F04DFB0346002B10D1E0
:203520000120FFF7F9FE00210120FFF7ADFC0120FFF706FDFB791846FFF726FDFFF704FE9F
:203540001CE001210120FFF79FFCFB791846FFF779FD0120FFF7F4FC0120FFF703FD03201C
:20356000FFF7E0FDFFF7F0FD08E00120FFF7E8FCFFF7EAFD02E000BF00E000BFFFF79EFD04
:203580000346002B28D0FFF7E1FE0346012B23D1FB1D1846FFF736FD0346002B12D1FB7917
:2035A0001846FFF797FD0020FFF7CAFC0420FFF7B9FDFFF7C9FD41F28830FDF725F8FFF7C9
:2035C0000BFF09E04FF400410648FDF71CFF4FF47A70FDF719F8F5E76420FDF715F8FFF78E
:2035E000E9FDFEE70004024080B594B000AF0023BB603A4A394B1B6C43F080531364374BC6
:203600001B6C03F08053BB60BB6800237B60344A334B1B6843F440431360314B1B6803F47F
:2036200040437B607B6802233B620123FB6210233B630223BB630023FB6310233B644FF45C
:20364000B4737B640223BB640423FB6407F120031846FDF73BFF0346002B04D040F24D111B
:20366000204800F00FF9FDF7E1FE0346002B04D04FF4AA711B4800F005F90F23FB6002236E
:203680003B6100237B614FF4A053BB614FF48053FB6107F10C0305211846FEF759F90346B0
:2036A000002B04D04FF4B1710E4800F0EBF8FEF7E7FA02460C4BA3FB02239B091846FDF74F
:2036C0009CF80420FDF7A6F8002200214FF0FF30FDF777F800BF5037BD4680BD003802408C
:2036E00000700040F43F0008D34D621080B500AF194B1A4A1A60184B4FF482725A60164B72
:2037000000229A60144B0022DA60134B00221A61114B00225A61104B4FF400729A610E4B3A
:203720002022DA610C4B00221A620B4B00225A62094B00229A62084B0A22DA620648FEF773
:20374000C7FB0346002B04D04FF4C271044800F099F800BF80BD00BFB00000200030014020
:20376000F43F000880B500AF124B134A1A60114B4FF4E1325A600F4B00229A600D4B00229A
:20378000DA600C4B00221A610A4B0C225A61094B00229A61074B0022DA610648FFF792F8CF
:2037A0000346002B04D040F29711044800F06AF800BF80BD0801002000440040F43F000865
:2037C00080B588B000AF0023BB602B4A2A4B1B6B43F001031363284B1B6B03F00103BB6067
:2037E000BB6800237B60244A234B1B6B43F008031363214B1B6B03F008037B607B680023C1
:203800003B601D4A1C4B1B6B43F0020313631A4B1B6B03F002033B603B6800224FF4404104
:203820001648FDF7D7FD00224FF400411448FDF7D1FD4FF44043FB6001233B6100237B61BE
:203840000023BB6107F10C0319460C48FDF70CFB4FF40043FB6001233B6100237B610023B1
:20386000BB6107F10C0319460548FDF7FDFA00BF2037BD4680BD00BF0038024000040240B9
:203880000000024080B483B000AF78603960FEE780B582B000AF0023BB8006233B7100220F
:2038A0004FF400410F48FDF795FD391D642301220D48FEF798FB0346002B07D001224FF419
:2038C00000410848FDF786FD022306E001224FF400410448FDF77EFD002318460837BD46B0
:2038E00080BD00BF00000240B000002080B500AF00224FF400410748FDF76CFD01224FF41E
:2039000000410448FDF766FDFFF7C2FF0023184680BD00BF0000024080B586B000AFF860DB
:20392000B9601346FB800023FB75FB681F4A934201D9022335E000233B6103233B74FB685B
:203940001B0CDBB27B74FB681B0ADBB2BB74FB68DBB2FB7400224FF400411548FDF73AFDF3
:2039600007F11001642304221248FEF73CFB0346002B02D00223FB750CE0FA884FF47A7392
:20398000B9680C48FEF76AFC0346002B02D00223FB7500BF01224FF400410548FDF71AFDBE
:2039A000FB7D18461837BD4680BD00BFFF1F400000000240B000002080B586B000AFF86001
:2039C000B9601346FB80FFF763FFFB68294A934201D902234AE0FB88B3F5807F01D90223A5
:2039E00044E0BB68002B01D103233FE000237B6102233B75FB681B0CDBB27B75FB681B0ADB
:203A0000DBB2BB75FB68DBB2FB7500224FF400411948FDF7DFFC07F114016423042217489A
:203A2000FEF7E1FA0346002B07D001224FF400411148FDF7CFFC022318E0FA884FF47A73DD
:203A4000B9680E48FEF7CFFA0346002B07D001224FF400410848FDF7BDFC022306E0012214
:203A60004FF400410448FDF7B5FC002318461837BD4680BDFF1F400000000240B000002051
:203A800080B584B000AF78600023FB6020233B737B681B0CDBB27B737B681B0ADBB2BB737F
:203AA0007B68DBB2FB73FFF7F3FE00224FF400410F48FDF78FFC07F10C01642304220D48BE
:203AC000FEF791FA0346002B07D001224FF400410748FDF77FFC022306E001224FF4004104
:203AE0000348FDF777FC002318461037BD4680BD00000240B000002080B586B000AF034697
:203B0000B9607A60FB7300237B61BB68002B01D1032344E0244B1B68002B0DD1FB7B002B3F
:203B200004D1214B4FF400521A6005E0FB7B012B02D11D4B1D4A1A60FB7B002B06D11C4BB3
:203B4000D3F8033003F500537B610AE0FB7B012B07D1174BD3F81B3003F5001303F500530E
:203B60007B61114B1A687B699A4214D20E4B1B687A6892B2B9681846FFF7CEFE0346002B2E
:203B800001D001230BE0084B1A687B681344064A1360002303E0044B00221A6004231846FD
:203BA0001837BD4680BD00BF38000020002020005C00002080B588B000AF0346FB710023AF
:203BC000FB610023BB6100237B614FF0FF333B618023FB60FB79002B07D11E4BD3F8033062
:203BE000FB614FF40053BB6125E0FB79012B22D1184BD3F81B30FB61174BBB611BE080222F
:203C00001649B869FFF788FEFA697B69D31A7F2B03D8FA697B69D31AFB60104A3969F86804
:203C2000FFF7B0FB3861FB687A6913447B61FB68BA691344BB617A69FB699A42DFD33B695F
:203C4000002B01D1002300E0022318462037BD4680BD00BF5C000020002020004801002066
:203C600080B582B000AF00237B60254A244B5B6C43F480435364224B5B6C03F480437B6011
:203C80007B6800233B601E4A1D4B1B6C43F0805313641B4B1B6C03F080533B603B6803209B
:203CA000FCF784FD002200216FF00B00FCF789FD002200216FF00A00FCF783FD0022002108
:203CC0006FF00900FCF77DFD002200216FF00400FCF777FD002200216FF00300FCF771FDFC
:203CE000002200216FF00100FCF76BFD002200214FF0FF30FCF765FD00BF0837BD4680BD82
:203D00000038024080B588B000AF78607B681B681A4A93422DD10023BB60194A184B5B6CCD
:203D200043F480535364164B5B6C03F48053BB60BB682023FB6002233B6100237B6103230E
:203D4000BB610523FB6107F10C0319460D48FDF78BF83023FB6002233B6100237B610323FD
:203D6000BB610523FB6107F10C0319460648FDF77BF800BF2037BD4680BD00BF0030014002
:203D800000380240000002400004024080B582B000AF78607B681B680A4A93420DD10A4A72
:203DA000094B5B6C23F48053536420210748FDF705FA30210648FDF701FA00BF0837BD4635
:203DC00080BD00BF0030014000380240000002400004024080B588B000AF78607B681B681A
:203DE000124A93421DD10023BB60114A104B1B6C43F4003313640E4B1B6C03F40033BB6023
:203E0000BB686023FB6002233B6101237B610323BB610723FB6107F10C0319460548FDF771
:203E200023F800BF2037BD4680BD00BF0044004000380240000C024080B582B000AF786018
:203E40007B681B68084A934209D1084A074B1B6C23F40033136460210548FDF7AFF900BFE6
:203E60000837BD4680BD00BF0044004000380240000C024080B400AF00BFBD465DF8047B3F
:203E8000704780B400AFFEE780B400AFFEE780B400AFFEE780B400AFFEE780B400AF00BFA9
:203EA000BD465DF8047B704780B400AF00BFBD465DF8047B704780B400AF00BFBD465DF84A
:203EC000047B704780B500AFFFF79AFAFCF7BEFC00BF80BD80B400AF164A164BD3F888306E
:203EE00043F47003C2F88830134A134B1B6843F001031360104B00229A600F4A0E4B1B6812
:203F000023F0847323F4803313600B4B0B4A5A60094A094B1B6823F480231360064B00222B
:203F2000DA60044B4FF000629A6000BFBD465DF8047B704700ED00E0003802401030002465
:203F4000DFF834D0002103E00C4B5B58435004310B480C4B42189A42F6D30B4A02E00023AD
:203F600042F8043B094B9A42F9D3FFF7B3FF00F011F8FFF75FFA7047000003203044000886
:203F8000000000200C00002010000020C8010020FEE7000070B50D4E0D4CA41BA410002566
:203FA000A54209D10B4E0C4C00F018F8A41BA4100025A54205D170BD56F825309847013555
:203FC000EEE756F8253098470135F2E72844000828440008284400082C440008F8B500BF3B
:203FE000F8BC08BC9E467047F8B500BFF8BC08BC9E4670472E2E5C5372635C6D61696E2E20
:204000006300000000000000963007772C610EEEBA51099919C46D078FF46A7035A563E9EF
:20402000A395649E3288DB0EA4B8DC791EE9D5E088D9D2972B4CB609BD7CB17E072DB8E7FB
:20404000911DBF906410B71DF220B06A4871B9F3DE41BE847DD4DA1AEBE4DD6D51B5D4F4FD
:20406000C785D38356986C13C0A86B647AF962FDECC9658A4F5C0114D96C0663633D0FFA6D
:20408000F50D088DC8206E3B5E10694CE44160D5727167A2D1E4033C47D4044BFD850DD2D0
:2040A0006BB50AA5FAA8B5356C98B242D6C9BBDB40F9BCACE36CD832755CDF45CF0DD6DCFB
:2040C000593DD1ABAC30D9263A00DE518051D7C81661D0BFB5F4B42123C4B3569995BACFEF
:2040E0000FA5BDB89EB802280888055FB2D90CC624E90BB1877C6F2F114C6858AB1D61C155
:204100003D2D66B69041DC760671DB01BC20D2982A10D5EF8985B1711FB5B606A5E4BF9FB8
:2041200033D4B8E8A2C9077834F9000F8EA8099618980EE1BB0D6A7F2D3D6D08976C6491B6
:20414000015C63E6F4516B6B62616C1CD83065854E0062F2ED95066C7BA5011BC1F4088250
:2041600057C40FF5C6D9B06550E9B712EAB8BE8B7C88B9FCDF1DDD62492DDA15F37CD38C58
:20418000654CD4FB5861B24DCE51B53A7400BCA3E230BBD441A5DF4AD795D83D6DC4D1A42F
:2041A000FBF4D6D36AE96943FCD96E34468867ADD0B860DA732D0444E51D03335F4C0AAACE
:2041C000C97C0DDD3C710550AA41022710100BBE86200CC925B56857B3856F2009D466B9DA
:2041E0009FE461CE0EF9DE5E98C9D9292298D0B0B4A8D7C7173DB359810DB42E3B5CBDB758
:20420000AD6CBAC02083B8EDB6B3BF9A0CE2B6039AD2B1743947D5EAAF77D29D1526DB04DB
:204220008316DC73120B63E3843B64943E6A6D0DA85A6A7A0BCF0EE49DFF099327AE000A91
:20424000B19E077D44930FF0D2A3088768F2011EFEC206695D5762F7CB67658071366C19B9
:20426000E7066B6E761BD4FEE02BD3895A7ADA10CC4ADD676FDFB9F9F9EFBE8E43BEB71793
:20428000D58EB060E8A3D6D67E93D1A1C4C2D83852F2DF4FF167BBD16757BCA6DD06B53F0E
:2042A0004B36B248DA2B0DD84C1B0AAFF64A0336607A0441C3EF60DF55DF67A8EF8E6E3191
:2042C00079BE69468CB361CB1A8366BCA0D26F2536E2685295770CCC03470BBBB91602220F
:2042E0002F260555BE3BBAC5280BBDB2925AB42B046AB35CA7FFD7C231CFD0B58B9ED92CBB
:204300001DAEDE5BB0C2649B26F263EC9CA36A750A936D02A906099C3F360EEB8567077270
:2043200013570005824ABF95147AB8E2AE2BB17B381BB60C9B8ED2920DBED5E5B7EFDC7C9C
:2043400021DFDB0BD4D2D38642E2D4F1F8B3DD686E83DA1FCD16BE815B26B9F6E177B06FEC
:204360007747B718E65A0888706A0FFFCA3B06665C0B0111FF9E658F69AE62F8D3FF6B616E
:2043800045CF6C1678E20AA0EED20DD75483044EC2B30339612667A7F71660D04D476949ED
:2043A000DB776E3E4A6AD1AEDC5AD6D9660BDF40F03BD83753AEBCA9C59EBBDE7FCFB24774
:2043C000E9FFB5301CF2BDBD8AC2BACA3093B353A6A3B4240536D0BA9306D7CD2957DE541A
:2043E000BF67D9232E7A66B3B84A61C4021B685D942B6F2A37BE0BB4A18E0CC31BDF055A6E
:204400008DEF022DEC613090000000000000000001020304060708090000000001020304B2
:1C442000FCBDFF7F01000000D1010008AD01000810000000010000000024F4008F
:20800000000003208DDB0208EDD30008EFD30008F1D30008F3D30008F5D3000800000000CF
:2080200000000000000000000000000021480108F7D3000800000000B1480108F9D3000826
:20804000DDDB0208DDDB0208DDDB0208DDDB0208DDDB0208DDDB0208DDDB0208DDDB020810
:20806000DDDB0208DDDB0208DDDB0208DDDB0208DDDB0208DDDB0208DDDB0208DDDB0208F0
:20808000DDDB0208DDDB0208DDDB0208DDDB0208DDDB0208DDDB0208DDDB0208DDDB0208D0
:2080A000DDDB0208DDDB0208DDDB0208DDDB0208DDDB0208DDDB0208DDDB0208DDDB0208B0
:2080C000DDDB0208DDDB0208DDDB0208DDDB0208DDDB0208DDDB0208DDDB0208DDDB020890
:2080E000DDDB0208DDDB0208DDDB0208DDDB02083DD4000849D40008DDDB0208DDDB0208B6
:2081000009D40008DDDB0208DDDB0208DDDB0208DDDB0208DDDB0208DDDB0208DDDB02082C
:20812000DDDB0208DDDB0208DDDB0208DDDB0208DDDB020815D40008DDDB0208DDDB020800
:20814000DDDB0208DDDB0208DDDB0208DDDB0208DDDB0208DDDB0208DDDB0208DDDB02080F
:20816000DDDB0208DDDB0208DDDB0208DDDB0208DDDB0208DDDB0208DDDB020800000000B1
:20818000DDDB0208DDDB0208DDDB0208DDDB0208DDDB0208DDDB0208DDDB0208DDDB0208CF
:2081A0002DD4000821D4000831D40008FFFFFFFF10B5054C237833B9044B13B10448AFF312
:2081C00000800123237010BDF431002000000000A0B8030808B5034B1BB103490348AFF3E3
:2081E000008008BD00000000F8310020A0B8030810F8012B11F8013B012A28BF9A42F7D060
:20820000D01A7047034613F8012B002AFBD1181A0138704700000000000000000000000025
:2082200001F0FF01102A2BDB10F0070F08D010F8013B013A8B422DD010F0070F42B3F6D104
:20824000F0B441EA012141EA014122F007047FF000070023F0E80256083C85EA010586EAB1
:20826000010685FA47F5A3FA87F586FA47F6A5FA87F68EB9EED1F0BC01F0FF0102F00702AC
:2082800032B110F8013B013A83EA010313B1F8D10020704701387047002D06BF354603380F
:2082A000073815F0010F07D1013015F4807F02BF013015F4C03F0130F0BC0138704700BFD3
:2082C00081F0004102E000BF83F0004330B54FEA41044FEA430594EA050F08BF90EA020FCD
:2082E0001FBF54EA000C55EA020C7FEA645C7FEA655C00F0E2804FEA5454D4EB5555B8BFA3
:208300006D420CDD2C4480EA020281EA030382EA000083EA010180EA020281EA0303362D59
:2083200088BF30BD11F0004F4FEA01314FF4801C4CEA113102D0404261EB410113F0004FC3
:208340004FEA03334CEA133302D0524263EB430394EA050F00F0A780A4F10104D5F1200E01
:208360000DDB02FA0EFC22FA05F2801841F1000103FA0EF2801843FA05F359410EE0A5F149
:2083800020050EF1200E012A03FA0EFC28BF4CF0020C43FA05F3C01851EBE37101F0004555
:2083A00007D54FF0000EDCF1000C7EEB00006EEB0101B1F5801F1BD3B1F5001F0CD34908CF
:2083C0005FEA30004FEA3C0C04F101044FEA445212F5800F80F09A80BCF1004F08BF5FEAAE
:2083E000500C50F1000041EB045141EA050130BD5FEA4C0C404141EB010111F4801FA4F1B8
:208400000104E9D191F0000F04BF01460020B1FA81F308BF2033A3F10B03B3F120020CDA5C
:208420000C3208DD02F1140CC2F10C0201FA0CF021FA02F10CE002F11402D8BFC2F1200CD5
:2084400001FA02F120FA0CFCDCBF41EA0C019040E41AA2BF01EB0451294330BD6FEA04040F
:208460001F3C1CDA0C340EDC04F11404C4F1200220FA04F001FA02F340EA030021FA04F360
:2084800045EA030130BDC4F10C04C4F1200220FA02F001FA04F340EA0300294630BD21FA7E
:2084A00004F0294630BD94F0000F83F4801306BF81F480110134013D4EE77FEA645C18BF5C
:2084C0007FEA655C29D094EA050F08BF90EA020F05D054EA000C04BF1946104630BD91EA96
:2084E000030F1EBF0021002030BD5FEA545C05D14000494128BF41F0004130BD14F58004F3
:208500003CBF01F5801130BD01F0004545F0FE4141F470014FF0000030BD7FEA645C1ABF6E
:20852000194610467FEA655C1CBF0B46024650EA013406BF52EA033591EA030F41F400215D
:2085400030BD00BF90F0000F04BF0021704730B54FF4806404F132044FF000054FF000018A
:2085600050E700BF90F0000F04BF0021704730B54FF4806404F1320410F0004548BF4042D6
:208580004FF000013EE700BF42004FEAE2014FEA31014FEA02701FBF12F07F4393F07F4F50
:2085A00081F06051704792F0000F14BF93F07F4F704730B54FF4607401F0004521F00041F2
:2085C00020E700BF50EA010208BF704730B54FF000050AE050EA010208BF704730B511F066
:2085E000004502D5404261EB41014FF4806404F132045FEA915C3FF4DCAE4FF003025FEA7D
:20860000DC0C18BF03325FEADC0C18BF033202EBDC02C2F1200300FA03FC20FA02F001FA88
:2086200003FE40EA0E0021FA02F11444C1E600BF70B54FF0FF0C4CF4E06C1CEA11541DBFF3
:208640001CEA135594EA0C0F95EA0C0F00F0DEF82C4481EA030621EA4C5123EA4C5350EA41
:20866000013518BF52EA033541F4801143F4801338D0A0FB02CE4FF00005E1FB02E506F079
:208680000042E0FB03E54FF00006E1FB03569CF0000F18BF4EF0010EA4F1FF04B6F5007FDA
:2086A00064F5407404D25FEA4E0E6D4146EB060642EAC62141EA55514FEAC52040EA5E506D
:2086C0004FEACE2EB4F1FD0C88BFBCF5E06F1ED8BEF1004F08BF5FEA500E50F1000041EBA1
:2086E000045170BD06F0004646EA010140EA020081EA0301B4EB5C04C2BFD4EB0C0541EA74
:20870000045170BD41F480114FF0000E013C00F3AB8014F1360FDEBF002001F0004170BD03
:20872000C4F10004203C35DA0C341BDC04F11404C4F1200500FA05F320FA04F001FA05F205
:2087400040EA020001F0004221F0004110EBD37021FA04F642EB06015EEA430E08BF20EA77
:20876000D37070BDC4F10C04C4F1200500FA04F320FA05F001FA04F240EA020001F000419B
:2087800010EBD37041F100015EEA430E08BF20EAD37070BDC4F1200500FA05F24EEA020E7B
:2087A00020FA04F301FA05F243EA020321FA04F001F0004121FA04F220EA020000EBD370F8
:2087C0005EEA430E08BF20EAD37070BD94F0000F0FD101F00046400041EB010111F4801F03
:2087E00008BF013CF7D041EA060195F0000F18BF704703F00046520043EB030313F4801FF5
:2088000008BF013DF7D043EA0603704794EA0C0F0CEA135518BF95EA0C0F0CD050EA4106DA
:2088200018BF52EA4306D1D181EA030101F000414FF0000070BD50EA410606BF1046194632
:2088400052EA430619D094EA0C0F02D150EA013613D195EA0C0F05D152EA03361CBF1046D3
:2088600019460AD181EA030101F0004141F0FE4141F470014FF0000070BD41F0FE4141F4F6
:20888000780170BD70B54FF0FF0C4CF4E06C1CEA11541DBF1CEA135594EA0C0F95EA0C0F4F
:2088A00000F0A7F8A4EB050481EA030E52EA03354FEA013100F088804FEA03334FF08055BB
:2088C00045EA131343EA12634FEA022245EA111545EA10654FEA00260EF000419D4208BF07
:2088E000964244F1FD0404F5407402D25B084FEA3202B61A65EB03055B084FEA32024FF4DE
:2089000080104FF4002CB6EB020E75EB030E22BFB61A754640EA0C005B084FEA3202B6EB23
:20892000020E75EB030E22BFB61A754640EA5C005B084FEA3202B6EB020E75EB030E22BFF1
:20894000B61A754640EA9C005B084FEA3202B6EB020E75EB030E22BFB61A754640EADC0062
:2089600055EA060E18D04FEA051545EA16754FEA06164FEAC30343EA52734FEAC2025FEA23
:208980001C1CC0D111F4801F0BD141EA00014FF000004FF0004CB6E711F4801F04BF014350
:2089A0000020B4F1FD0C88BFBCF5E06F3FF6AFAEB5EB030C04BFB6EB020C5FEA500C50F109
:2089C000000041EB045170BD0EF0004E4EEA113114EB5C04C2BFD4EB0C0541EA045170BDC6
:2089E00041F480114FF0000E013C90E645EA060E8DE60CEA135594EA0C0F08BF95EA0C0FA3
:208A00003FF43BAF94EA0C0F0AD150EA01347FF434AF95EA0C0F7FF425AF104619462CE757
:208A200095EA0C0F06D152EA03353FF4FDAE1046194622E750EA410618BF52EA43067FF465
:208A4000C5AE50EA41047FF40DAF52EA43057FF4EBAE12E74FF0FF3C06E000BF4FF0010C01
:208A600002E000BF4FF0010C4DF804CD4FEA410C7FEA6C5C4FEA430C18BF7FEA6C5C1BD0C1
:208A800001B050EA410C0CBF52EA430C91EA030F02BF90EA020F0020704710F1000F91EA0D
:208AA000030F58BF994208BF90422CBFD8176FEAE37040F0010070474FEA410C7FEA6C5CF4
:208AC00002D150EA013C07D14FEA430C7FEA6C5CD6D152EA033CD3D05DF8040B704700BF1C
:208AE0008446104662468C461946634600E000BF01B5FFF7B7FF002848BF10F1000F01BDD6
:208B00004DF808EDFFF7F4FF0CBF012000205DF808FB00BF4DF808EDFFF7EAFF34BF0120E2
:208B200000205DF808FB00BF4DF808EDFFF7E0FF94BF012000205DF808FB00BF4DF808ED0A
:208B4000FFF7CEFF94BF012000205DF808FB00BF4DF808EDFFF7C4FF34BF012000205DF82B
:208B600008FB00BF4FEA410C7FEA6C5C02D150EA013C0AD14FEA430C7FEA6C5C02D152EA8F
:208B8000033C02D14FF0000070474FF0010070474FEA410212F5001215D211D56FF4787326
:208BA000B3EB625212D94FEAC12343F0004343EA505311F0004F23FA02F018BF40427047A6
:208BC0004FF00000704750EA013005D111F0004008BF6FF0004070474FF00000704700BF4B
:208BE0004A0011D212F5001211D20DD56FF47873B3EB62520ED44FEAC12343F0004343EA28
:208C0000505323FA02F070474FF00000704750EA013002D14FF0FF3070474FF0000070479C
:208C200053B94AB9002908BF00281CBF4FF0FF314FF0FF3000F07AB9ADF1080C6DE904CE58
:208C400000F006F8DDF804E0DDE9022304B070472DE9F0478C460D460446089E002B51D168
:208C60008A4217466DD9B2FA82FEBEF1000F0BD0CEF1200C01FA0EF520FA0CFC02FA0EF7B4
:208C80004CEA050C00FA0EF44FEA174A250CBCFBFAF81FFA87F90AFB18CC45EA0C4508FB18
:208CA00009F3AB420AD9ED1908F1FF3280F02381AB4240F22081A8F102083D44ED1AA4B263
:208CC000B5FBFAF00AFB105544EA054400FB09F9A14509D9E41900F1FF3380F00A81A14553
:208CE00040F2078102383C44A4EB090440EA08400021002E61D024FA0EF4002334607360C8
:208D0000BDE8F0878B4207D9002E54D0002186E821000846BDE8F087B3FA83F1002940F0A4
:208D20008E80AB4202D3824200F2FA80841A65EB03050120AC46002E3FD086E81010BDE8BA
:208D4000F08712B90127B7FBF2F7B7FA87FEBEF1000F34D1EB1B3A0C1FFA87FC0121B3FB5D
:208D6000F2F8250C02FB183345EA03450CFB08F3AB4207D9ED1908F1FF3002D2AB4200F269
:208D8000D1808046ED1AA3B2B5FBF2F002FB105543EA05440CFB00FCA44507D9E41900F13C
:208DA000FF3302D2A44500F2B8801846A4EB0C0440EA08409DE731463046BDE8F087CEF1DF
:208DC000200405FA0EF307FA0EF720FA04F83A0C25FA04F448EA0308B4FBF2F14FEA184591
:208DE00002FB11441FFA87FC45EA044501FB0CF3AB4200FA0EF409D9ED1901F1FF3080F0B0
:208E00008A80AB4240F2878002393D44EB1A1FFA88F5B3FBF2F002FB103345EA034500FB89
:208E20000CF3AB4207D9ED1900F1FF386FD2AB426DD902383D44EB1A40EA01418FE7C1F170
:208E4000200722FA07F88B4005FA01F448EA030320FA07FE4FEA134CFD404EEA040EB5FBEB
:208E6000FCF94FEA1E440CFB19551FFA83F844EA054509FB08F4AC4202FA01F200FA01FA0F
:208E800008D9ED1809F1FF3043D2AC4241D9A9F102091D442D1B1FFA8EFEB5FBFCF00CFB10
:208EA00010554EEA054400FB08F8A04507D9E41800F1FF3529D2A04527D902381C4440EA47
:208EC0000940A4EB0804A0FB02894C45C6464D4615D312D056B1BAEB0E0364EB050404FA7B
:208EE00007F7CB401F43CC40376074600021BDE8F0871846F8E69046E0E6C245EAD2B8EB15
:208F0000020E69EB03050138E4E72846D7E7404691E78146BEE7014678E702383C4445E7BF
:208F2000084608E7A8F102083D442BE7704700BF70B5104C2568DDB10F49104830F09CFC44
:208F40000F4B0E4800221A800E4B01261E70FFF759F9334682B20949284614F05DF908B1CF
:208F6000062070BD206814F027FD0028F8D170BD012070BDA0320020AABC030800240220D9
:208F80009A320020C832002030B585B00024019402F0C0FC01AA02904FF0FF3108200394DF
:208FA00002F01CFA0C4D03902868012388B10B4A14800B4A01A913700C2214F02DF910B14C
:208FC000062005B030BD286814F0F6FC0028F7D1F7E71846F5E700BFC0320020BA3200205E
:208FE000C93200207FB50646019102921C46002502236A464FF0FF310C200093039502F09C
:20900000EDF90390B6B1012310226946304614F003F9304614F0D0FC74B1084B1D70084B57
:209020001D80084B1D70084B18680BF017F9284604B070BD0120FBE72046F9E7B832002033
:20904000BA320020C9320020C4320020F7B52F4D2F4E2A8843F6972300249A428DF80740BD
:209060001FD92C80347002F04FFC6FF014022146074602F081FC274B27481B68006883F88C
:2090800029406FF0140201236FF0FE01FFF7AAFF337843B102F0D6FC2B881844288003B004
:2090A000F0BD2746F4E70DF1070003F0EBFC9DF80740002CF3D1FFF767FF062810D1174B43
:2090C0001C70174B18680BF0C9F8124B2C801B68347083F82940104B186812F0FDFADEE7B9
:2090E0000028DCD021466FF01402384602F044FC084B09481B68006883F829406FF0140228
:2091000001236FF0FE01FFF76DFFC8E7BA320020C9320020BC320020C0320020B83200206B
:20912000C43200202DE9F04F85B00C4690461F46054602F0F5FB019002F0E6FB8246002D7C
:2091400000F0C580002C00F0C280B8F1000F00F0BE80604B02931D603FB1404611F0D0FA98
:2091600000252C462A46002192E0B8F80810204611F0E6FE584B1A789946002A00F0A080F4
:20918000019BB8F808200C339A4240F09D80D8F804B0DBF80020012ADBF804201FBF89F8FB
:2091A00000706FF016056FF0FE04012602BF3D463C460226039202F0ADFB039A824207D0E8
:2091C000002289F800206FF012056FF0FE040126B8F80810584602F0A9FBE8B1DFF8FCB0B6
:2091E00002F0B2FB9BF8003001338BF80030002389F80030019302F0A7FB9BF80020019BDB
:20920000032A3BD98BF8003002F0A6FB6FF011056FF0FE04012631E00BF108030199019384
:20922000184602F0E3FB019B8346B8B9184602F0FDFB2A4B83F800B002F094FBC8B902F04E
:2092400045FB044680B9504605F0A6FF98B3504606F0DEFB90B3212526460AE06FF0100518
:209260006FF0FE040126E7E76FF00D056FF0FE0401261B4A002389F800301380404611F04C
:209280003FFA022E13D0002E7FF46CAF2A460121504602F071FB029B12481B68006800223C
:2092A00083F82920214601232A46FFF79BFE384605B0BDE8F08F1E250446CDE72025FBE7A1
:2092C0003D463C460226D9E76FF01305A0E76FF00F07ECE7BC320020C932002010320020D0
:2092E000BA320020C0320020194B1A78012A70B51D4603D02AD3042A1BD970BD5B681B7832
:2093000023B11448BDE870400FF068B9114C636A2BB120460FF0CEF920460FF035F9696812
:209320000C4801F109034A1DBDE87040013111F093B8BFF34F8F0849084BCA6802F4E06203
:209340001343CB60BFF34F8F00BFFDE770BD00BFF82302200425022000ED00E00400FA0515
:20936000124B1B6810B50446F3B1114A1268DAB1002283F82920012399B10E491C2213F00E
:209380004BFF204614F018FB0B4B00241C800B4B1C700B4B1C700B4B18680AF05FFF204698
:2093A00010BD14220849EAE7012010BD9C320020A0320020B5BC03089A320020C832002038
:2093C000B8320020A4320020D2BC03082DE9F74F0E4615461C46002800F0A180002900F035
:2093E0009E80002A00F09B804E4B18604CB1104611F086F901264C4B31461868FFF7B0FFDC
:2094000022E0DFF838811189304611F099FD98F80030002B35D06E89802E73D0D5F80490DA
:2094200042492822484630F043FA88B9404B18680AF014FF02F08CF9061C18BF012628460E
:2094400011F05EF9022ED6D1204603B0BDE8F08FDFF8ECB0DFF8ECA09BF80030FBB9802EA5
:2094600011D98022494633482FF08DFA01238BF80030314BAAF800404FF4FA621A8088F8C2
:2094800000400226DBE701233246494629488BF800302FF078FA6B89AAF80030F1E7BAF872
:2094A0000070BB19802B18D1DFF888A00193324649460AEB07002FF066FA019B504619462E
:2094C00002F01AF900280CBF022601268BF80040194B88F800401C80B1E77F2B0ADC15483D
:2094E0003246384449462FF04EFA6B891F44AAF80070C6E7104B4FF4FA621A800F4A00235C
:209500001370BEE70E4B1B78002BF3D13146686802F0F2F800280CBF02260126D8E76FF0C5
:209520000F0491E79C320020A0320020E6BC0308A4320020113200209A320020C8320020B4
:20954000A83200209232002073B5244D2B880024B3F5FA6F8DF8074014D3214E3378002BB4
:2095600035D0204B18680AF079FE1F4B34701C701E4B2C801B68012083F8294002F0DAF88F
:2095800002B070BD184E327812B114332B80F7E70DF1070003F076FA9DF80740002CEFD119
:2095A000FFF7C6FC062810D1114B2C801C700F4B34701B6883F829400E4B186812F08CF88C
:2095C000084B18680AF04AFEDAE70028D8D0094B01211868FFF7C4FED2E700BF9A320020D3
:2095E000A8320020A4320020C83200209C320020B8320020A032002008B5002006F0AEFBFB
:20960000044B18680BF06CF8034B1868BDE808400BF066B89C350020B435002030B585B034
:20962000002405466846009401940294ADF80C4001F0EAFF1E4B1F4A5B680A21D3F81330B5
:2096400001A830F0B3F802F07BFF1B491B4802F0E1FF01A91A4802F0DDFF009B194893F830
:20966000351002F0B1FF009B174893F8361002F0ABFF009B154893F8371002F0A5FF009BA1
:20968000134893F84C1002F09FFF009B114893F84D1002F099FF009B0F4893F84E1002F0C5
:2096A00093FF02F0EFFF2860204605B030BD00BFF823022038BA03083EBA0308DCD70308EE
:2096C00045BA030852BA03085BBA030864BA03086DBA030877BA030881BA030870B586B011
:2096E00000211222064601A800912FF071F9684605F00EFD009B9A78002A40F0B180DA78CE
:20970000002A40F0AD801D79003518BF012593F82C20002A40F0A68093F82D20002A40F071
:20972000A18093F82E40003418BF012402F008FF504802F031FF009B4F48997802F044FFB4
:20974000009B4E48D97802F03FFF009B4C48197902F03AFF009B4B48996802F035FF009B7B
:209760004948D3F80F1002F02FFF009B4748D3F8171002F029FF009911221B3101A830F037
:20978000A9F801A9424802F045FF002D6CD0009BB3F90D103F4802F017FF009B3E4859796F
:2097A00002F012FF009B3D48997902F00DFF009B3B48D97902F008FF02F048FF394802F061
:2097C000EBFE009B2C4893F82C1002F0FDFE009B2A4893F82D1002F0F7FE009B284893F88B
:2097E0002E1002F0F1FE009B2648D3F8321002F0EBFE009B2448D3F8391002F0E5FE009BCE
:209800002248D3F8411002F0DFFE00991122453101A830F05FF801A91D4802F0FBFE34B3B0
:20982000009BB3F937101B4802F0CEFE009B1A4893F82F1002F0C8FE009B184893F8301034
:2098400002F0C2FE009B164893F8311002F0BCFE02F0FCFE02F016FF3060002006B070BD5F
:20986000012554E7012461E76FF0150192E76FF01501D8E789BB03088FBB03089CBB0308F2
:20988000A9BB0308B43A0408B6BB0308C2BB0308CCBB0308D6BB030852BA03085BBA0308F6
:2098A00064BA0308DCBB0308F0B5102585B01A4C2A460746002168462FF08AF8616A0E1C46
:2098C00018BF012602F03CFE3146144802F07CFE2A466946201D0FF001FF6946104802F0CB
:2098E00099FE2A46694604F108000FF0F7FE69460C4802F08FFE2A46694604F10C000FF020
:20990000EDFE6946084802F085FE02F0BBFE3860002005B0F0BD00BF0425022005BA03084F
:2099200017BA030821BA03082EBA030870B586B004460021102202A801912FF049F8002CB2
:2099400044D001AA2349244D204602F0F6FE019B93B16B6801221A700AF0CCF8044600288F
:2099600036D104232B701D4B4FF4FA6118680AF04BFC204606B070BD102302AA1849204668
:2099800002F0A0FE28B102A86E680FF09BFEC6F80100102302AA1349204602F093FE28B18A
:2099A00002A86E680FF08EFEC6F80500102302AA0D49204602F086FE28B102A86C680FF072
:2099C00081FEC4F809006B680022C4E70220D1E70120CFE705BA0308F82302209432002005
:2099E00017BA030821BA03082EBA030830B50E4B0E4A5B6885B0002401940294ADF80C40E4
:209A0000D3F8133005460A2101A82FF0CFFE02F097FD01A9064802F0FDFD02F033FE286018
:209A2000204605B030BD00BFF823022038BA030845BA03087FB501AE0023019373603381FA
:209A400000283ED0214CD4F81350002D3BD10A2332461F4902F036FE10B9012004B070BDFD
:209A60003046FEF7CFFB0828F7D8C0B22B46DAB290421FD830462EF0DBFEE42363731E23EF
:209A8000A3730A23E37382232374030A6374A074C4F813000AF02EF804460028DDD10D4B92
:209AA00004221A700C4B4FF4FA6118680AF0ACFB2046D3E7F25C303A092A03F10103CCD839
:209AC000D5E70220CAE70320C8E700BFE82402200BC70308F82302209432002030B520240F
:209AE0008FB005462246002106A82EF071FF114B1B681A6C5B6CC2F30721D2B203921A0ECD
:209B00000292C3F307420192C3F307220491DBB22146009206A8084A2FF048FE02F010FDC1
:209B200006A9064802F076FD02F0ACFD286000200FB030BD3C2502208BBA0308A9BA030893
:209B40002DE9F04F0024BFB08046322221461DA8179418942EF03CFF1022214619A82EF0AF
:209B600037FFB8F1000F00F02F8132231DAA9749404602F0A7FD08B9012083E01DA8FEF740
:209B800041FB1E28F8D8C1B212221DA805F0D8FF0028F1D11F221DA92AA82FF09BFE17AAFF
:209BA0008B49404602F0C9FD0028E5D0179B40F2DD34A3F10A02A242DED89BB21293BDF8E0
:209BC00048308449ADF8CB3017AA404602F0B5FD0028D1D0179F012FCED817AA7E498DF853
:209BE000C770404602F0A9FD0028C5D0179BA3F10A02A242C0D818AA7849ADF8C9304046DE
:209C000002F09BFD0028B7D0189E731E072BB3D80FB9042EB0DC00258DF8CD601595149557
:209C20001395AB46AA461195A9460124189B9C422BDD082E0BD03EABC6F1080100221E440A
:209C4000FF20D3B28B4202F10102C0F2B980129803F0C0FE00288FD12EAD0FCD6C460FC493
:209C60000FCD0FC40FCD0FC495E80F0007C424F8023B1B0C23702AAB0FCB04F0EDF8003064
:209C800018BF01203FB0BDE8F08F554A1021234619A82FF08BFD17AA19A9404602F04DFDD3
:209CA00000283FF469AF179B632B3FF665AF012F67D11E2B37D012DC032B4DD0092B56D05D
:209CC000002B7FF459AFB9F1000F7FF455AF3EAB2344002203F82B2C4FF001092DE0372B32
:209CE00062D00FDC212B7FF447AF119B002B7FF443AF3EAB23444FF0010203F82B2C01234E
:209D000011931AE05A2B1BD0632B7FF435AFBBF1000F7FF431AF3EAB2344032203F82B2C7B
:209D20004FF0010B09E0139B002B7FF425AF3EAB2344062203F82B2C13970134E4B275E734
:209D4000149B002B7FF418AF3EAB2344042203F82B2C01231493F0E7159B002B7FF40CAF7C
:209D60003EAB2344072203F82B2C1597E5E7002D7FF402AF3EAB2344052203F82B2C3D4603
:209D8000DBE71C2BB1D00BDC002B7FF4F5AEB9F1000F7FF4F1AE3EAB234403F82B9C9BE7B2
:209DA000312B01D0522BB0E7BAF1000F7FF4E4AE3EAB2344022203F82B2C4FF0010ABCE7F0
:209DC000334403F82A0C3CE702205BE72FBC03083DBC0308DCD703084ABC030853BC030871
:209DE00062BC030870B5AEB00446322200210FA82EF0EEFD002C45D032230FAA2249204618
:209E000002F060FC10B901202EB070BD0FA8FEF7F9F92828F7D8C1B217220FA805F090FE5C
:209E20000028F0D11CAE0FA930462FF025FD0EAA1649204602F081FC0028E4D00E9B40F25D
:209E4000DD32A3F10A019142DDD8ADF899309DF89B3020AD43F001038DF89B300FCD6C461C
:209E60000FC40FCD0FC40FCD0FC495E8030044F8040B218096E80F0004F0F4F8003018BFD1
:209E80000120C1E70220BFE71FBC03084ABC030838B50D460A492FF032FD034670B10730B8
:209EA000DC79034624B92EF0C3FC2880204638BD303C092C02D813F8014FF3E7012038BD81
:209EC000E8BB030870B59AB00C4610220021064602A82EF07DFD1AA9002321F8623D20462E
:209EE000FFF7D6FF012801D1012026E0BDF8061006A803F023FC05460028F5D102F020FBA4
:209F000006A95148514C02F085FB9DF83710504802F05AFBBDF839104E4802F055FB9DF8C4
:209F20003D104D4802F050FB9DF83D20EBB29A4205D802F0A7FB306000201AB070BD9DF8EA
:209F40003720012A4ED11AAA1A4412F92A2C072ACAD8DFE802F05504111A232C353E0821E2
:209F60000DEB0100013322462FF020FC212102A802F02AFB0135D7E708210DEB01000133C4
:209F800022462FF013FC3721F1E708210DEB0100013322462FF00AFC6321E8E708210DEBA4
:209FA0000100013322462FF001FC5A21DFE708210DEB0100013322462FF0F8FB0921D6E7F0
:209FC00008210DEB0100013322462FF0EFFB1E21CDE708210DEB0100013322462FF0E6FB09
:209FE0000321C4E7002A7FF47FAF1AAA1A4412F92A2C032A3FF678AFDFE802F0020B141DC4
:20A0000008210DEB0100013322462FF0CFFB0021ADE708210DEB0100013322462FF0C6FB46
:20A020001C21A4E708210DEB0100013322462FF0BDFB31219BE708210DEB01000133224631
:20A040002FF0B4FB522192E72FBC030862BC0308DCD703084ABC030853BC030830B589B020
:20A06000054608460DF10201FFF712FF044618B10124204609B030BDBDF8021001A803F098
:20A08000A1FB0028F4D102F05BFA01A9054802F0C1FABDF81910044802F096FA02F0F2FAC2
:20A0A0002860E6E72FBC03084ABC030830B595B0054608460DF10601FFF7EAFE044618B18B
:20A0C0000124204615B030BDBDF8061002A803F0A9FB0028F4D102F033FA02A9054802F041
:20A0E00099FABDF83110044802F06EFA02F0CAFA2860E6E72FBC03084ABC0308F0B59BB02F
:20A1000000230593074600284AD032230DAA254902F0D8FA10B901201BB0F0BD0DA8FEF7AB
:20A1200071F81428F7D806AC15220DA920462FF0D1FB05AA1C49384602F0FFFA0028EAD05C
:20A14000059D40F2DD36A5F10A03B342E3D8ADB205AA1649ADF82F50384602F0EEFA0028B4
:20A16000D9D0059BA3F10A02B242D4D8ADF82D30284601238DF8313003F052FC0028CAD1D8
:20A180000AAA07CA6B4603C323F8022B120C1A7094E80F0003F0CAFD003018BF0120BBE7C4
:20A1A0000220B9E72FBC03083DBC03084ABC03087FB504AC002344F8103D054604F0DEFE27
:20A1C0000646204604F0E2FE01A803F0D7FC00284AD19DF801409DF800309DF80220642170
:20A1E00014FB01F44FF47A7101FB03430A2414FB02349DF803301C4402F0A2F99DF80430FA
:20A20000012B2DD027D3022B2CD09DF80510174802F0DAF9BDF80810154802F0D5F99DF8A5
:20A220000A10144802F0D0F93146134802F0CCF92146124802F0C8F99DF80C10104B11488B
:20A2400001EB4101194402F0E5F902F01BFA2860002004B070BD0C490C4802F0DBF9D4E7E9
:20A260000B49F9E70B49F7E70120F2E72FBB03083FBB03084ABB03085ABB03086CBB030822
:20A280009EBC03087ABB03080EBB030814BB030824BB030829BB030830B518228DB0002511
:20A2A000044629460DEB020001952EF091FB0295ADF800508DF80250002C00F09C801823D5
:20A2C0000DEB03024D49204602F0FCF910B901200DB030BD03A906A804F02CFE0028F6D1A3
:20A2E00001AA4749204602F028FA0028EFD0019B642BECD801AA43498DF80D30204602F082
:20A300001CFA0028E3D0019BB3F5167FDFD801AA3D49ADF81030204602F00FFA0028D6D077
:20A32000019B5A1F372AD2D801AA38498DF81230204602F002FA0028C9D0019D012DC6D88B
:20A3400001AA3349204602F0F8F90028BFD0019942F20F739942BAD84FF47A7391FBF3F377
:20A360008DF808300A23642291FBF2F292FBF3F003FB10228DF8092091FBF3F292FBF3F0CE
:20A3800003FB10208DF80A0003FB1213E8B202A98DF80B3004F006FE002898D103236A4679
:20A3A0001C49204602F08EF9F8B11B496846FDF71FFF40B98DF8140003A803F0EDFB003044
:20A3C00018BF012084E715496846FDF711FF18B901238DF81430EFE711496846FDF708FF73
:20A3E00000287FF474AF0223F3E705A805F0B6FB0028E1D06CE702206AE700BF14BB030815
:20A400002FBB03083FBB03084ABB03085ABB03086CBB03087ABB03089EBC0308A1BC0308D3
:20A42000A4BC030810B5A2B0002300930446002863D06A46324902F080F910B9012022B0ED
:20A4400010BD009B40F2DD32A3F10A019142F5D86A462C49ADF85930204602F06EF90028DA
:20A46000ECD0009BFF2B3ED102228DF870206A4625498DF86630204602F05FF90028DDD055
:20A48000009B002B32D101236A4620498DF86F30204602F052F90028D0D09DF87030022BC5
:20A4A00003D0009B33BB8DF87030322301AA1849204602F007F90028C0D001A8FDF7A2FE6D
:20A4C0001428BBD801A90DF171002FF0D5F901A8FDF798FE8DF886000EA803F0A1FF0030F0
:20A4E00018BF0120ABE7632BC1D9A7E7012BA5D10223C9E7012BA1D1D5E702209FE700BFE4
