:020000040800F2
:208000000000032015DA02083DD400083FD4000841D4000843D4000845D4000800000000B3
:208020000000000000000000000000000147010847D40008000000009147010849D40008C6
:2080400065DA020865DA020865DA020865DA020865DA020865DA020865DA020865DA0208D8
:2080600065DA020865DA020865DA020865DA020865DA020865DA020865DA020865DA0208B8
:2080800065DA020865DA020865DA020865DA020865DA020865DA020865DA020865DA020898
:2080A00065DA020865DA020865DA020865DA020865DA020865DA020865DA020865DA020878
:2080C00065DA020865DA020865DA020865DA020865DA020865DA020865DA020865DA020858
:2080E00065DA020865DA020865DA020865DA02088DD4000899D4000865DA020865DA0208EC
:2081000059D4000865DA020865DA020865DA020865DA020865DA020865DA020865DA02082B
:2081200065DA020865DA020865DA020865DA020865DA020865D4000865DA020865DA0208FF
:2081400065DA020865DA020865DA020865DA020865DA020865DA020865DA020865DA0208D7
:2081600065DA020865DA020865DA020865DA020865DA020865DA020865DA02080000000000
:2081800065DA020865DA020865DA020865DA020865DA020865DA020865DA020865DA020897
:2081A0007DD4000871D4000881D40008FFFFFFFF10B5054C237833B9044B13B10448AFF322
:2081C00000800123237010BDF43100200000000028B7030808B5034B1BB103490348AFF35C
:2081E000008008BD00000000F831002028B7030810F8012B11F8013B012A28BF9A42F7D0D9
:20820000D01A7047034613F8012B002AFBD1181A0138704700000000000000000000000025
:2082200001F0FF01102A2BDB10F0070F08D010F8013B013A8B422DD010F0070F42B3F6D104
:20824000F0B441EA012141EA014122F007047FF000070023F0E80256083C85EA010586EAB1
:20826000010685FA47F5A3FA87F586FA47F6A5FA87F68EB9EED1F0BC01F0FF0102F00702AC
:2082800032B110F8013B013A83EA010313B1F8D10020704701387047002D06BF354603380F
:2082A000073815F0010F07D1013015F4807F02BF013015F4C03F0130F0BC0138704700BFD3
:2082C00081F0004102E000BF83F0004330B54FEA41044FEA430594EA050F08BF90EA020FCD
:2082E0001FBF54EA000C55EA020C7FEA645C7FEA655C00F0E2804FEA5454D4EB5555B8BFA3
:208300006D420CDD2C4480EA020281EA030382EA000083EA010180EA020281EA0303362D59
:2083200088BF30BD11F0004F4FEA01314FF4801C4CEA113102D0404261EB410113F0004FC3
:208340004FEA03334CEA133302D0524263EB430394EA050F00F0A780A4F10104D5F1200E01
:208360000DDB02FA0EFC22FA05F2801841F1000103FA0EF2801843FA05F359410EE0A5F149
:2083800020050EF1200E012A03FA0EFC28BF4CF0020C43FA05F3C01851EBE37101F0004555
:2083A00007D54FF0000EDCF1000C7EEB00006EEB0101B1F5801F1BD3B1F5001F0CD34908CF
:2083C0005FEA30004FEA3C0C04F101044FEA445212F5800F80F09A80BCF1004F08BF5FEAAE
:2083E000500C50F1000041EB045141EA050130BD5FEA4C0C404141EB010111F4801FA4F1B8
:208400000104E9D191F0000F04BF01460020B1FA81F308BF2033A3F10B03B3F120020CDA5C
:208420000C3208DD02F1140CC2F10C0201FA0CF021FA02F10CE002F11402D8BFC2F1200CD5
:2084400001FA02F120FA0CFCDCBF41EA0C019040E41AA2BF01EB0451294330BD6FEA04040F
:208460001F3C1CDA0C340EDC04F11404C4F1200220FA04F001FA02F340EA030021FA04F360
:2084800045EA030130BDC4F10C04C4F1200220FA02F001FA04F340EA0300294630BD21FA7E
:2084A00004F0294630BD94F0000F83F4801306BF81F480110134013D4EE77FEA645C18BF5C
:2084C0007FEA655C29D094EA050F08BF90EA020F05D054EA000C04BF1946104630BD91EA96
:2084E000030F1EBF0021002030BD5FEA545C05D14000494128BF41F0004130BD14F58004F3
:208500003CBF01F5801130BD01F0004545F0FE4141F470014FF0000030BD7FEA645C1ABF6E
:20852000194610467FEA655C1CBF0B46024650EA013406BF52EA033591EA030F41F400215D
:2085400030BD00BF90F0000F04BF0021704730B54FF4806404F132044FF000054FF000018A
:2085600050E700BF90F0000F04BF0021704730B54FF4806404F1320410F0004548BF4042D6
:208580004FF000013EE700BF42004FEAE2014FEA31014FEA02701FBF12F07F4393F07F4F50
:2085A00081F06051704792F0000F14BF93F07F4F704730B54FF4607401F0004521F00041F2
:2085C00020E700BF50EA010208BF704730B54FF000050AE050EA010208BF704730B511F066
:2085E000004502D5404261EB41014FF4806404F132045FEA915C3FF4DCAE4FF003025FEA7D
:20860000DC0C18BF03325FEADC0C18BF033202EBDC02C2F1200300FA03FC20FA02F001FA88
:2086200003FE40EA0E0021FA02F11444C1E600BF70B54FF0FF0C4CF4E06C1CEA11541DBFF3
:208640001CEA135594EA0C0F95EA0C0F00F0DEF82C4481EA030621EA4C5123EA4C5350EA41
:20866000013518BF52EA033541F4801143F4801338D0A0FB02CE4FF00005E1FB02E506F079
:208680000042E0FB03E54FF00006E1FB03569CF0000F18BF4EF0010EA4F1FF04B6F5007FDA
:2086A00064F5407404D25FEA4E0E6D4146EB060642EAC62141EA55514FEAC52040EA5E506D
:2086C0004FEACE2EB4F1FD0C88BFBCF5E06F1ED8BEF1004F08BF5FEA500E50F1000041EBA1
:2086E000045170BD06F0004646EA010140EA020081EA0301B4EB5C04C2BFD4EB0C0541EA74
:20870000045170BD41F480114FF0000E013C00F3AB8014F1360FDEBF002001F0004170BD03
:20872000C4F10004203C35DA0C341BDC04F11404C4F1200500FA05F320FA04F001FA05F205
:2087400040EA020001F0004221F0004110EBD37021FA04F642EB06015EEA430E08BF20EA77
:20876000D37070BDC4F10C04C4F1200500FA04F320FA05F001FA04F240EA020001F000419B
:2087800010EBD37041F100015EEA430E08BF20EAD37070BDC4F1200500FA05F24EEA020E7B
:2087A00020FA04F301FA05F243EA020321FA04F001F0004121FA04F220EA020000EBD370F8
:2087C0005EEA430E08BF20EAD37070BD94F0000F0FD101F00046400041EB010111F4801F03
:2087E00008BF013CF7D041EA060195F0000F18BF704703F00046520043EB030313F4801FF5
:2088000008BF013DF7D043EA0603704794EA0C0F0CEA135518BF95EA0C0F0CD050EA4106DA
:2088200018BF52EA4306D1D181EA030101F000414FF0000070BD50EA410606BF1046194632
:2088400052EA430619D094EA0C0F02D150EA013613D195EA0C0F05D152EA03361CBF1046D3
:2088600019460AD181EA030101F0004141F0FE4141F470014FF0000070BD41F0FE4141F4F6
:20888000780170BD70B54FF0FF0C4CF4E06C1CEA11541DBF1CEA135594EA0C0F95EA0C0F4F
:2088A00000F0A7F8A4EB050481EA030E52EA03354FEA013100F088804FEA03334FF08055BB
:2088C00045EA131343EA12634FEA022245EA111545EA10654FEA00260EF000419D4208BF07
:2088E000964244F1FD0404F5407402D25B084FEA3202B61A65EB03055B084FEA32024FF4DE
:2089000080104FF4002CB6EB020E75EB030E22BFB61A754640EA0C005B084FEA3202B6EB23
:20892000020E75EB030E22BFB61A754640EA5C005B084FEA3202B6EB020E75EB030E22BFF1
:20894000B61A754640EA9C005B084FEA3202B6EB020E75EB030E22BFB61A754640EADC0062
:2089600055EA060E18D04FEA051545EA16754FEA06164FEAC30343EA52734FEAC2025FEA23
:208980001C1CC0D111F4801F0BD141EA00014FF000004FF0004CB6E711F4801F04BF014350
:2089A0000020B4F1FD0C88BFBCF5E06F3FF6AFAEB5EB030C04BFB6EB020C5FEA500C50F109
:2089C000000041EB045170BD0EF0004E4EEA113114EB5C04C2BFD4EB0C0541EA045170BDC6
:2089E00041F480114FF0000E013C90E645EA060E8DE60CEA135594EA0C0F08BF95EA0C0FA3
:208A00003FF43BAF94EA0C0F0AD150EA01347FF434AF95EA0C0F7FF425AF104619462CE757
:208A200095EA0C0F06D152EA03353FF4FDAE1046194622E750EA410618BF52EA43067FF465
:208A4000C5AE50EA41047FF40DAF52EA43057FF4EBAE12E74FF0FF3C06E000BF4FF0010C01
:208A600002E000BF4FF0010C4DF804CD4FEA410C7FEA6C5C4FEA430C18BF7FEA6C5C1BD0C1
:208A800001B050EA410C0CBF52EA430C91EA030F02BF90EA020F0020704710F1000F91EA0D
:208AA000030F58BF994208BF90422CBFD8176FEAE37040F0010070474FEA410C7FEA6C5CF4
:208AC00002D150EA013C07D14FEA430C7FEA6C5CD6D152EA033CD3D05DF8040B704700BF1C
:208AE0008446104662468C461946634600E000BF01B5FFF7B7FF002848BF10F1000F01BDD6
:208B00004DF808EDFFF7F4FF0CBF012000205DF808FB00BF4DF808EDFFF7EAFF34BF0120E2
:208B200000205DF808FB00BF4DF808EDFFF7E0FF94BF012000205DF808FB00BF4DF808ED0A
:208B4000FFF7CEFF94BF012000205DF808FB00BF4DF808EDFFF7C4FF34BF012000205DF82B
:208B600008FB00BF4FEA410C7FEA6C5C02D150EA013C0AD14FEA430C7FEA6C5C02D152EA8F
:208B8000033C02D14FF0000070474FF0010070474FEA410212F5001215D211D56FF4787326
:208BA000B3EB625212D94FEAC12343F0004343EA505311F0004F23FA02F018BF40427047A6
:208BC0004FF00000704750EA013005D111F0004008BF6FF0004070474FF00000704700BF4B
:208BE0004A0011D212F5001211D20DD56FF47873B3EB62520ED44FEAC12343F0004343EA28
:208C0000505323FA02F070474FF00000704750EA013002D14FF0FF3070474FF0000070479C
:208C200053B94AB9002908BF00281CBF4FF0FF314FF0FF3000F07AB9ADF1080C6DE904CE58
:208C400000F006F8DDF804E0DDE9022304B070472DE9F0478C460D460446089E002B51D168
:208C60008A4217466DD9B2FA82FEBEF1000F0BD0CEF1200C01FA0EF520FA0CFC02FA0EF7B4
:208C80004CEA050C00FA0EF44FEA174A250CBCFBFAF81FFA87F90AFB18CC45EA0C4508FB18
:208CA00009F3AB420AD9ED1908F1FF3280F02381AB4240F22081A8F102083D44ED1AA4B263
:208CC000B5FBFAF00AFB105544EA054400FB09F9A14509D9E41900F1FF3380F00A81A14553
:208CE00040F2078102383C44A4EB090440EA08400021002E61D024FA0EF4002334607360C8
:208D0000BDE8F0878B4207D9002E54D0002186E821000846BDE8F087B3FA83F1002940F0A4
:208D20008E80AB4202D3824200F2FA80841A65EB03050120AC46002E3FD086E81010BDE8BA
:208D4000F08712B90127B7FBF2F7B7FA87FEBEF1000F34D1EB1B3A0C1FFA87FC0121B3FB5D
:208D6000F2F8250C02FB183345EA03450CFB08F3AB4207D9ED1908F1FF3002D2AB4200F269
:208D8000D1808046ED1AA3B2B5FBF2F002FB105543EA05440CFB00FCA44507D9E41900F13C
:208DA000FF3302D2A44500F2B8801846A4EB0C0440EA08409DE731463046BDE8F087CEF1DF
:208DC000200405FA0EF307FA0EF720FA04F83A0C25FA04F448EA0308B4FBF2F14FEA184591
:208DE00002FB11441FFA87FC45EA044501FB0CF3AB4200FA0EF409D9ED1901F1FF3080F0B0
:208E00008A80AB4240F2878002393D44EB1A1FFA88F5B3FBF2F002FB103345EA034500FB89
:208E20000CF3AB4207D9ED1900F1FF386FD2AB426DD902383D44EB1A40EA01418FE7C1F170
:208E4000200722FA07F88B4005FA01F448EA030320FA07FE4FEA134CFD404EEA040EB5FBEB
:208E6000FCF94FEA1E440CFB19551FFA83F844EA054509FB08F4AC4202FA01F200FA01FA0F
:208E800008D9ED1809F1FF3043D2AC4241D9A9F102091D442D1B1FFA8EFEB5FBFCF00CFB10
:208EA00010554EEA054400FB08F8A04507D9E41800F1FF3529D2A04527D902381C4440EA47
:208EC0000940A4EB0804A0FB02894C45C6464D4615D312D056B1BAEB0E0364EB050404FA7B
:208EE00007F7CB401F43CC40376074600021BDE8F0871846F8E69046E0E6C245EAD2B8EB15
:208F0000020E69EB03050138E4E72846D7E7404691E78146BEE7014678E702383C4445E7BF
:208F2000084608E7A8F102083D442BE7704700BF70B5104C2568DDB10F49104830F0E0FB01
:208F40000F4B0E4800221A800E4B01261E70FFF759F9334682B20949284614F0CDF808B160
:208F6000062070BD206814F097FC0028F8D170BD012070BDA032002073BB03083825022069
:208F80009A320020C832002030B585B00024019402F0F2FC01AA02904FF0FF3108200394AD
:208FA00002F09CFA0C4D03902868012388B10B4A14800B4A01A913700C2214F09DF810B15D
:208FC000062005B030BD286814F066FC0028F7D1F7E71846F5E700BFC0320020BA320020EE
:208FE000C93200207FB50646019102921C46002502236A464FF0FF310C200093039502F09C
:209000006DFA0390B6B1012310226946304614F073F8304614F040FC74B1084B1D70084BF7
:209020001D80084B1D70084B18680BF08BF8284604B070BD0120FBE72046F9E7B8320020C0
:20904000BA320020C9320020C4320020F7B52F4D2F4E2A8843F6972300249A428DF80740BD
:209060001FD92C80347002F081FC6FF014022146074602F0B3FC274B27481B68006883F828
:2090800029406FF0140201236FF0FE01FFF7AAFF337843B102F008FD2B881844288003B0D1
:2090A000F0BD2746F4E70DF1070003F01BFD9DF80740002CF3D1FFF767FF062810D1174B12
:2090C0001C70174B18680BF03DF8124B2C801B68347083F82940104B186812F06DFADEE7D5
:2090E0000028DCD021466FF01402384602F076FC084B09481B68006883F829406FF01402F6
:2091000001236FF0FE01FFF76DFFC8E7BA320020C9320020BC320020C0320020B83200206B
:20912000C43200202DE9F04F85B00C4690461F46054602F027FC019002F018FC8246002D16
:2091400000F0C580002C00F0C280B8F1000F00F0BE80604B02931D603FB1404611F040FA28
:2091600000252C462A46002192E0B8F80810204611F056FE584B1A789946002A00F0A08084
:20918000019BB8F808200C339A4240F09D80D8F804B0DBF80020012ADBF804201FBF89F8FB
:2091A00000706FF016056FF0FE04012602BF3D463C460226039202F0DFFB039A824207D0B6
:2091C000002289F800206FF012056FF0FE040126B8F80810584602F0DBFBE8B1DFF8FCB084
:2091E00002F0E4FB9BF8003001338BF80030002389F80030019302F0D9FB9BF80020019B77
:20920000032A3BD98BF8003002F0D8FB6FF011056FF0FE04012631E00BF108030199019352
:20922000184602F015FC019B8346B8B9184602F02FFC2A4B83F800B002F0C6FBC8B902F0B6
:2092400077FB044680B9504605F01AFF98B3504606F046FB90B3212526460AE06FF010050A
:209260006FF0FE040126E7E76FF00D056FF0FE0401261B4A002389F800301380404611F04C
:20928000AFF9022E13D0002E7FF46CAF2A460121504602F0A3FB029B12481B68006800229B
:2092A00083F82920214601232A46FFF79BFE384605B0BDE8F08F1E250446CDE72025FBE7A1
:2092C0003D463C460226D9E76FF01305A0E76FF00F07ECE7BC320020C932002010320020D0
:2092E000BA320020C0320020194B1A78012A70B51D4603D02AD3042A1BD970BD5B681B7832
:2093000023B11448BDE870400FF0D8B8114C636A2BB120460FF03EF920460FF0A5F86968C4
:209320000C4801F109034A1DBDE87040013111F003B8BFF34F8F0849084BCA6802F4E06293
:209340001343CB60BFF34F8F00BFFDE770BD00BF302502203C26022000ED00E00400FA05A2
:20936000124B1B6810B50446F3B1114A1268DAB1002283F82920012399B10E491C2213F00E
:20938000BBFE204614F088FA0B4B00241C800B4B1C700B4B1C700B4B18680AF0D3FE204647
:2093A00010BD14220849EAE7012010BD9C320020A03200207EBB03089A320020C832002070
:2093C000B8320020A43200209BBB03082DE9F74F0E4615461C46002800F0A180002900F06D
:2093E0009E80002A00F09B804E4B18604CB1104611F0F6F801264C4B31461868FFF7B0FF6D
:2094000022E0DFF838811189304611F009FD98F80030002B35D06E89802E73D0D5F804906A
:2094200042492822484630F087F988B9404B18680AF088FE02F0BEF9061C18BF0126284626
:2094400011F0CEF8022ED6D1204603B0BDE8F08FDFF8ECB0DFF8ECA09BF80030FBB9802E36
:2094600011D98022494633482FF0D1F901238BF80030314BAAF800404FF4FA621A8088F87F
:2094800000400226DBE701233246494629488BF800302FF0BCF96B89AAF80030F1E7BAF82F
:2094A0000070BB19802B18D1DFF888A00193324649460AEB07002FF0AAF9019B50461946EB
:2094C00002F04CF900280CBF022601268BF80040194B88F800401C80B1E77F2B0ADC15480B
:2094E0003246384449462FF092F96B891F44AAF80070C6E7104B4FF4FA621A800F4A002319
:209500001370BEE70E4B1B78002BF3D13146686802F024F900280CBF02260126D8E76FF092
:209520000F0491E79C320020A0320020AFBB0308A4320020113200209A320020C8320020EC
:20954000A83200209232002073B5244D2B880024B3F5FA6F8DF8074014D3214E3378002BB4
:2095600035D0204B18680AF0EDFD1F4B34701C701E4B2C801B68012083F8294002F00CF9E9
:2095800002B070BD184E327812B114332B80F7E70DF1070003F0A6FA9DF80740002CEFD1E9
:2095A000FFF7C6FC062810D1114B2C801C700F4B34701B6883F829400E4B186811F0FCFF16
:2095C000084B18680AF0BEFDDAE70028D8D0094B01211868FFF7C4FED2E700BF9A32002060
:2095E000A8320020A4320020C83200209C320020B8320020A032002008B5002006F022FB87
:20960000044B18680AF0E0FF034B1868BDE808400AF0DABF9C350020A835002030B585B04C
:20962000002405466846009401940294ADF80C4002F01EF81E4B1F4A5B680A21D3F8133087
:2096400001A82FF0F7FF02F0ABFF1B491B4803F011F801A91A4803F00DF8009B194893F862
:20966000351002F0E1FF009B174893F8361002F0DBFF009B154893F8371002F0D5FF009B11
:20968000134893F84C1002F0CFFF009B114893F84D1002F0C9FF009B0F4893F84E1002F065
:2096A000C3FF03F01FF82860204605B030BD00BF3025022001B9030807B90308A4D6030803
:2096C0000EB903081BB9030824B903082DB9030836B9030840B903084AB9030870B586B099
:2096E00000211222064601A800912FF0B5F8684605F082FC009B9A78002A40F0B180DA7818
:20970000002A40F0AD801D79003518BF012593F82C20002A40F0A68093F82D20002A40F071
:20972000A18093F82E40003418BF012402F038FF504802F061FF009B4F48997802F074FF24
:20974000009B4E48D97802F06FFF009B4C48197902F06AFF009B4B48996802F065FF009BEB
:209760004948D3F80F1002F05FFF009B4748D3F8171002F059FF009911221B3101A82FF0D8
:20978000EDFF01A9424802F075FF002D6CD0009BB3F90D103F4802F047FF009B3E485979C4
:2097A00002F042FF009B3D48997902F03DFF009B3B48D97902F038FF02F078FF394802F0A1
:2097C0001BFF009B2C4893F82C1002F02DFF009B2A4893F82D1002F027FF009B284893F8F8
:2097E0002E1002F021FF009B2648D3F8321002F01BFF009B2448D3F8391002F015FF009B3B
:209800002248D3F8411002F00FFF00991122453101A82FF0A3FF01A91D4802F02BFF34B304
:20982000009BB3F937101B4802F0FEFE009B1A4893F82F1002F0F8FE009B184893F83010D4
:2098400002F0F2FE009B164893F8311002F0ECFE02F02CFF02F046FF3060002006B070BD9E
:20986000012554E7012461E76FF0150192E76FF01501D8E752BA030858BA030865BA03089A
:2098800072BA0308783904087FBA03088BBA030895BA03089FBA03081BB9030824B90308BB
:2098A0002DB90308A5BA03082DE9F04114228AB0002107460DEB02002EF0CEFF02F070FEE3
:2098C0006946002006F09AF800284BD101213648364D374EDFF8E48002F0A6FE9DF80010CF
:2098E000344802F0A1FE0DF10101334802F0C2FE0224601E6946C0B206F080F823462A4622
:209900001421F0B90DEB01002FF094FE9DF8001005A802F089FE14210DEB010023463246E5
:209920002FF088FE0DF1010105A8013402F0A2FE0B2CDED102F0D6FE386000200AB0BDE84B
:20994000F0810DEB01002FF075FE002105A802F06BFE14210DEB0100234632462FF06AFE4C
:209960004146E1E700211048104E114D02F05CFE01241421234632460DEB01002FF05AFE6C
:20998000002105A802F050FE142123462A460DEB01002FF04FFE0134084905A802F06AFEB9
:2099A0000B2CE6D1C6E700BF8DB80308ABB80308B3B8030899B80308A0B80308BFB80308D8
:2099C000F0B5102585B01A4C2A460746002168462EF042FF616A0E1C18BF012602F0E0FD65
:2099E0003146144802F020FE2A466946201D0FF0E5FD6946104802F03DFE2A46694604F1FF
:209A000008000FF0DBFD69460C4802F033FE2A46694604F10C000FF0D1FD6946084802F063
:209A200029FE02F05FFE3860002005B0F0BD00BF3C260220CEB80308E0B80308EAB8030872
:209A4000F7B8030870B586B004460021102202A801912EF001FF002C44D001AA2349244D32
:209A6000204602F09AFE019B93B16B6801221A7009F0B4FF0446002836D104232B701D4B47
:209A80004FF4FA6118680AF033FB204606B070BD102302AA1849204602F044FE28B102A8DA
:209AA0006E680FF07FFDC6F80100102302AA1349204602F037FE28B102A86E680FF072FD07
:209AC000C6F80500102302AA0D49204602F02AFE28B102A86C680FF065FDC4F809006B68BE
:209AE0000022C4E70220D1E70120CFE7CEB803083025022094320020E0B80308EAB80308AA
:209B0000F7B8030830B50E4B0E4A5B6885B0002401940294ADF80C40D3F8133005460A2139
:209B200001A82FF087FD02F03BFD01A9064802F0A1FD02F0D7FD2860204605B030BD00BF12
:209B40003025022001B903080EB903087FB501AE002301937360338100283ED0214CD4F867
:209B60001350002D3BD10A2332461F4902F0DAFD10B9012004B070BD3046FEF743FB0828CF
:209B8000F7D8C0B22B46DAB290421FD830462EF093FDE42363731E23A3730A23E37382233E
:209BA0002374030A6374A074C4F8130009F016FF04460028DDD10D4B04221A700C4B4FF477
:209BC000FA6118680AF094FA2046D3E7F25C303A092A03F10103CCD8D5E70220CAE70320C9
:209BE000C8E700BF20260220D3C50308302502209432002030B520248FB005462246002153
:209C000006A82EF029FE114B1B681A6C5B6CC2F30721D2B203921A0E0292C3F307420192E1
:209C2000C3F307220491DBB22146009206A8084A2FF000FD02F0B4FC06A9064802F01AFD66
:209C400002F050FD286000200FB030BD7426022054B9030872B903082DE9F04F0024BFB07F
:209C60008046322221461DA8179418942EF0F4FD1022214619A82EF0EFFDB8F1000F00F02C
:209C80002C8132231DAA9649404602F04BFD08B9012080E01DA8FEF7B5FA1E28F8D8C1B228
:209CA00012221DA805F0CAFE0028F1D11F221DA92AA82FF053FD17AA8A49404602F06DFD46
:209CC0000028E5D0179B40F2DD34A3F10A02A242DED89BB21293BDF848308349ADF8CC30EC
:209CE00017AA404602F059FD0028D1D0179F012FCED817AA7D498DF8C770404602F04DFD7B
:209D00000028C5D0179BA3F10A02A242C0D818AA7749ADF8CA30404602F03FFD0028B7D034
:209D2000189E731E072BB3D80FB9042EB0DC00258DF8CE60159514951395AB46AA4611953F
:209D4000A9460124189B9C4228DD082E0BD03EABC6F1080100221E44FF20D3B28B4202F1B7
:209D60000102C0F2B680129803F030FE00288FD12EAD0FCD6C460FC40FCD0FC40FCD0FC40B
:209D800095E80F0084E80F002AAB0FCB04F046F8003018BF01203FB0BDE8F08F554A1021D0
:209DA000234619A82FF046FC17AA19A9404602F0F4FC00283FF46CAF179B632B3FF668AF2B
:209DC000012F67D11E2B37D012DC032B4DD0092B56D0002B7FF45CAFB9F1000F7FF458AF5C
:209DE0003EAB2344002203F82A2C4FF001092DE0372B62D00FDC212B7FF44AAF119B002B3C
:209E00007FF446AF3EAB23444FF0010203F82A2C012311931AE05A2B1BD0632B7FF438AFDD
:209E2000BBF1000F7FF434AF3EAB2344032203F82A2C4FF0010B09E0139B002B7FF428AFF4
:209E40003EAB2344062203F82A2C13970134E4B278E7149B002B7FF41BAF3EAB23440422D8
:209E600003F82A2C01231493F0E7159B002B7FF40FAF3EAB2344072203F82A2C1597E5E7A1
:209E8000002D7FF405AF3EAB2344052203F82A2C3D46DBE71C2BB1D00BDC002B7FF4F8AE6E
:209EA000B9F1000F7FF4F4AE3EAB234403F82A9C9BE7312B01D0522BB0E7BAF1000F7FF4D3
:209EC000E7AE3EAB2344022203F82A2C4FF0010ABCE7334403F8290C3FE702205BE700BF4B
:209EE000F8BA030806BB0308A4D6030813BB03081CBB03082BBB030870B5AEB00446322287
:209F000000210FA82EF0A8FC002C44D032230FAA2249204602F006FC10B901202EB070BD9F
:209F20000FA8FEF76FF92828F7D8C1B217220FA805F084FD0028F0D11CAE0FA930462FF015
:209F4000DFFB0EAA1649204602F027FC0028E4D00E9B40F2DD32A3F10A019142DDD8ADF803
:209F60009A309DF89C3020AD43F001038DF89C300FCD6C460FC40FCD0FC40FCD0FC495E825
:209F8000030084E8030096E80F0004F03DF8003018BF0120C2E70220C0E700BFE8BA030893
:209FA00013BB030838B50D460A492FF0ECFB034670B10730DC79034624B92EF07DFB2880D5
:209FC000204638BD303C092C02D813F8014FF3E7012038BDB1BA030870B59AB00C461022F7
:209FE0000021064602A82EF037FC1AA9002321F8623D2046FFF7D6FF012801D1012026E008
:20A00000BDF8061006A803F0B9FB05460028F5D102F0C6FA06A95148514C02F02BFB9DF8A3
:20A020003710504802F000FBBDF83A104E4802F0FBFA9DF83E104D4802F0F6FA9DF83E208B
:20A04000EBB29A4205D802F04DFB306000201AB070BD9DF83720012A4ED11AAA1A4412F966
:20A06000292C072ACAD8DFE802F05504111A232C353E08210DEB0100013322462FF0DAFA08
:20A08000212102A802F0D0FA0135D7E708210DEB0100013322462FF0CDFA3721F1E7082127
:20A0A0000DEB0100013322462FF0C4FA6321E8E708210DEB0100013322462FF0BBFA5A21CE
:20A0C000DFE708210DEB0100013322462FF0B2FA0921D6E708210DEB0100013322462FF06D
:20A0E000A9FA1E21CDE708210DEB0100013322462FF0A0FA0321C4E7002A7FF47FAF1AAAF5
:20A100001A4412F9292C032A3FF678AFDFE802F0020B141D08210DEB0100013322462FF024
:20A1200089FA0021ADE708210DEB0100013322462FF080FA1C21A4E708210DEB0100013372
:20A1400022462FF077FA31219BE708210DEB0100013322462FF06EFA522192E7F8BA030845
:20A160002BBB0308A4D6030813BB03081CBB030830B589B0054608460DF10201FFF712FFEF
:20A18000044618B10124204609B030BDBDF8021001A803F02FFB0028F4D102F001FA01A96A
:20A1A000054802F067FABDF81A10044802F03CFA02F098FA2860E6E7F8BA030813BB03083D
:20A1C00030B595B0054608460DF10601FFF7EAFE044618B10124204615B030BDBDF80610BE
:20A1E00002A803F02DFB0028F4D102F0D9F902A9054802F03FFABDF83210044802F014FA83
:20A2000002F070FA2860E6E7F8BA030813BB0308F0B59BB0002305930746002847D032236B
:20A220000DAA244902F07EFA10B901201BB0F0BD0DA8FDF7E7FF1428F7D806AC15220DA9F5
:20A2400020462FF08BFA05AA1B49384602F0A5FA0028EAD0059D40F2DD36A5F10A03B34271
:20A26000E3D8ADB205AA1549ADF83050384602F094FA0028D9D0059BA3F10A02B242D4D8E3
:20A28000ADF82E30284601238DF8323003F0C2FB0028CAD10AAB93E807008DE8070094E8A0
:20A2A0000F0003F027FD003018BF0120BEE70220BCE700BFF8BA030806BB030813BB0308C5
:20A2C0007FB504AC002344F8103D054604F0CEFD0646204604F0D2FD01A803F039FC002876
:20A2E0004AD19DF801409DF800309DF80220642114FB01F44FF47A7101FB03430A2414FBBB
:20A3000002349DF803301C4402F04AF99DF80430012B2DD027D3022B2CD09DF8051017488C
:20A3200002F082F9BDF80810154802F07DF99DF80A10144802F078F93146134802F074F97F
:20A340002146124802F070F99DF80C10104B114801EB4101194402F08DF902F0C3F9286043
:20A36000002004B070BD0C490C4802F083F9D4E70B49F9E70B49F7E70120F2E7F8B90308EE
:20A3800008BA030813BA030823BA030835BA030867BB030843BA0308D7B90308DDB90308C5
:20A3A000EDB90308F2B9030830B518228DB00025044629460DEB020001952EF04DFA029570
:20A3C000002C00F09B8018230DEB03024C49204602F0A8F910B901200DB030BD03A906A892
:20A3E00004F020FD0028F6D101AA4649204602F0D4F90028EFD0019B642BECD801AA4249F2
:20A400008DF80D30204602F0C8F90028E3D0019BB3F5167FDFD801AA3C49ADF8103020467B
:20A4200002F0BBF90028D6D0019B5A1F372AD2D801AA37498DF81230204602F0AEF900286F
:20A44000C9D0019D012DC6D801AA3249204602F0A4F90028BFD0019942F20F739942BAD86A
:20A460004FF47A7391FBF3F38DF808300A23642291FBF2F292FBF3F003FB10228DF809200C
:20A4800091FBF3F292FBF3F003FB10208DF80A0003FB1213E8B202A98DF80B3004F0FAFC0C
:20A4A000002898D1ADF800008DF8020003236A461949204602F036F918B903238DF8143060
:20A4C00006E016496846FDF793FE40B98DF8140003A803F04BFB003018BF01207CE71049AA
:20A4E0006846FDF785FE08B90123E7E70D496846FDF77EFE0028E0D10223DFE702206BE7D8
:20A50000DDB90308F8B9030808BA030813BA030823BA030835BA030843BA030867BB030822
:20A520006ABB03086DBB030810B5A2B0002300930446002863D06A46324902F02EF910B939
:20A54000012022B010BD009B40F2DD32A3F10A019142F5D86A462C49ADF85A30204602F074
:20A560001CF90028ECD0009BFF2B3ED102228DF871206A4625498DF86730204602F00DF93C
:20A580000028DDD0009B002B32D101236A4620498DF87030204602F000F90028D0D09DF80D
:20A5A0007130022B03D0009B33BB8DF87130322301AA1849204602F0B5F80028C0D001A884
:20A5C000FDF720FE1428BBD801A90DF172002FF097F801A8FDF716FE8DF887000EA803F06C
:20A5E000E3FE003018BF0120ABE7632BC1D9A7E7012BA5D10223C9E7012BA1D1D5E7022017
:20A600009FE700BF13BB0308ABBA0308AED80308EC1B040833BB030873B5002300930646E5
:20A62000002837D06A461C4902F0B7F810B9012002B070BD009C40F2DD33A4F10A029A4211
:20A64000F5D86A461549304602F0A7F80028EED0009D012DEBD86A461149304602F09DF89D
:20A660000028E4D0009A012AE1D89DF8063062F3000365F341038DF8063003F00303022BE0
:20A68000D5D0ADF80440019804F02CF9003018BF0120CDE70220CBE713BB0308AED8030860
:20A6A000F1BA03082DE9F04F89B04FF000081022414601900DEB0200CDF80C802EF0CCF898
:20A6C00003A800F0D5FF039A5D4F92F833405D4E5D4DDFF89891DFF898B1DFF898A101F04F
:20A6E0005FFF5A4801F088FF039A3846117801F09BFF039A3046517801F096FF039A284646
:20A70000917801F091FF039A4846D2F8031001F08BFF03990F22093104A82FF01FF804A996
:20A72000584601F0A7FF039A117AB1FA81F14909504601F079FF01F0B9FF454801F05CFFCC
:20A74000039A3846117E01F06FFF039A3046517E01F06AFF039A2846917E01F065FF039AA8
:20A760004846D2F81B1001F05FFF03990F22213104A82EF0F3FF04A9584601F07BFF039AD9
:20A7800092F82010B1FA81F14909504601F04CFF01F08CFF2F4801F02FFF039A4846916B85
:20A7A00001F042FF039A2C48916BB1EB080118BF012101F039FF039A284892F83C1001F0BF
:20A7C00033FF01F073FF264801F016FF039A384692F84C1001F028FF039A304692F84D105D
:20A7E00001F022FF039A284692F84E10B4FA84F401F01AFF640901F059FF1A4801F0FCFE21
:20A800002146194801F010FF039A384692F8301001F00AFF039A304692F8311001F004FFBF
:20A82000039A284692F8321001F0FEFE01F03EFF01F058FF019B1860404609B0BDE8F08F67
:20A8400058BA030865BA030872BA030852BA0308A5BA03088AB9030895B903089EB90308F0
:20A86000A8B90308B1B90308BAB9030884B9030895BA03089FBA030873B5064602A8002530
:20A8800040F8045D00F0F4FE019B93F83C40FF2C08BF2C4601F084FE2146044801F0C4FE5D
:20A8A00001F020FF3060284602B070BDD3C5030813B50023009301930446B0B101A800F0B2
:20A8C000D7FE6A460B49204601F067FF78B1009B6BB90199532281F83C30184602F0AAFA12
:20A8E000003018BF012002B010BD0220FBE70120F9E700BFD3C5030870B50E4612492EF058
:20A9000042FF0446E8B100F108052846FDF77AFC082816D8247A2B463CB910222146284614
:20A920002EF0CCFF3060204670BDA4F13002092A04D924F02004413C052C02D813F8014F19
:20A94000EAE7012070BD00BF84B803081FB5002304468DF807300293ADF80C3008461346B8
:20A96000EAB9B1F1807F02D3022004B010BD01220DF1070102F002F90028F5D19DF807205B
:20A980000C4902A82EF08AFE01F00AFE02A90A4801F070FE01F0A6FE20600020E5E701F1CA
:20A9A0007843A3F50043B3F5FC1FDDD20B788DF80730E3E77DB90308D3C50308F0B585B0C8
:20A9C00000240E460194029403948DF80340074610B9022005B0F0BD0C2301AA1E4901F0A9
:20A9E000A1FE08B90120F5E71022214601A82EF065FF0C23054601AA1849384601F092FEB1
:20AA00000028EFD01022214601A82EF057FF8DF8030066B9B5F1807FDBD2334601220DF106
:20AA20000301284602F006FA0028D2D1D2E705F17843A3F50043B3F5FC1FCAD206F04CF809
:20AA40009DF8032000232946204606F08BF806F055F82046BEE700BFB4C00308D3C503089E
:20AA6000F0B58DB0002608AF05460C4610223146384603960496059606962DF0EDFE079644
:20AA8000002C5ED0002D5CD02F4E32781AB1012420460DB0F0BD03AA2C49204601F07DFE28
:20AAA0000028F4D004AA2A49204601F076FE0028EDD005AA2749204601F06FFE0028E6D018
:20AAC00006AA2549204601F068FE0028DFD010233A462249204601F025FE0028D7D007AAAC
:20AAE0001F49204601F059FE0028D0D01D4B1E491D60284610F004FA1C49284610F02EFAC5
:20AB000004221B49284610F047FA1A49284610F00FFA079B0193009703A80FC800F0D2FD14
:20AB20000028B4D1FEF768FD01233370FEF700FA04460028ABD1104B1421186809F0D8FA8F
:20AB4000A6E70224A4E700BFB832002042BB030848BB03084EBB030884B90308F2C10308BE
:20AB600054BB0308A0320020CD930008336F0108F96E0108E16E0108A43200202DE9F041B1
:20AB800098B00DF14C080D46064600211122404609910A910B910C910D910E910F911091B6
:20ABA000119112912DF058FE002D00F0E880002E00F0E580734F74493B7809AA002B284657
:20ABC0000CBF00246FF0FE0401F0E7FD099B6F49002808BF4FF0FF340AAAB3F5807F2846CA
:20ABE00028BF4FF0FF3401F0D8FD0A9B6849002808BF6FF001040BAAB3F5807F284628BFDC
:20AC00006FF0010401F0C9FD0B9B6249002808BF6FF002040FAAB3F5807F284628BF6FF060
:20AC2000020401F0BAFD0F9B002803F1FF3308BF6FF00304022B28BF6FF0030404F002FAD7
:20AC40000F9B5549002B10AA284608BF6FF0030401F0A3FD109B002808BF6FF00404802BEF
:20AC600007D0B3F5807F04D0B3F5007F18BF6FF0040411AA4949284601F08FFD12AA002801
:20AC80004749284608BF6FF0060401F09CFD1123002842464349284608BF6FF0110401F0F2
:20ACA00041FD0CAA00284049284608BF6FF0070401F073FD0DAA00283C49284608BF6FF0F7
:20ACC000080401F06AFD0EAA00283949284608BF6FF0090401F061FD60B174B100232246FD
:20ACE0006FF0FE013046FEF77DF90125284618B0BDE8F0816FF00A04F0E72E4B2E491E60F1
:20AD0000304610F0FDF82D49304610F027F904222B49304610F040F92A49304610F008F989
:20AD2000129B0693119B0593109B03930F9B02930E9B01930D9BCDF81C800494009309A8E7
:20AD40000FC800F08DFD10B123462246C8E70126FEF752FC3E70FEF717F9054608B13C7094
:20AD6000C3E7194B1C6800F09FFE4FF47A7303FB00F12046B1FBF3F109F0BAF9B6E702252F
:20AD8000B4E700BFB832002042BB030848BB03084EBB030854BB030859BB0308783904082F
:20ADA00063BB0308F2C103081BB9030824B903082DB90308C032002025910008336F010879
:20ADC000F96E0108E16E0108C43200202DE9F34102A8002540F8045D00F04AFC019C0F22DF
:20ADE000302104F109002DF037FD6FF07F03032723714FF002081F2363710F22302101260C
:20AE0000E575E570A571277084F80180A770E571257204F121002DF01FFD0F22302184F888
:20AE20002F50E57625776577A57725766576A576E67784F8206004F13D002DF00DFD84F8E5
:20AE40004B5084F8385084F8395084F83A5084F83B5084F8357084F8368084F8377084F84F
:20AE60003C5084F8305084F8315084F832502B4653222146284601F0DDFF40B902F028F8BC
:20AE8000A84214BF4046284602B0BDE8F0813046FAE7000030B585B0002305460093019333
:20AEA000029303930C4600293ED000283CD0684600F0DEFB01AA3849204601F06EFC10B97D
:20AEC000012005B030BD02AA3449204601F065FC0028F5D003AA3249204601F05EFC0028E0
:20AEE000EED0009B019A1978914209D158780299884205D198780399884201D1197AA9B1E0
:20AF0000197E8A420AD1597E029A914206D1997E039A914202D193F820203AB1012483F826
:20AF2000334000F0ABFBCBE70220CAE7012313221C49284612F0E0F8284612F0ADFC009BC9
:20AF4000002283F83320019A83F83020029A83F83120039A83F832206FF00E0283F84F2070
:20AF6000452283F850206FF0050283F851206FF06F0283F8522000F081FB044600289FD122
:20AF8000094B03221A70094B4FF4FA61186809F0AFF8204695E700BF42BB030848BB0308E5
:20AFA0004EBB03089BBB0308302502209432002013B500240094019440B36A46144901F0B9
:20AFC000ECFB10B9012002B010BD009B013B012BF8D801A804F010F89DE806002A204B1E6B
:20AFE00000FB0323B3F90D301E3B9BB2012BE9D8517004F017F8074B04221A70064B4FF45A
:20B00000FA61186809F074F82046DCE70220DAE754BB0308302502209432002073B50646F9
:20B0200002A8002340F8043D00F022FB019B6FF00E0283F84F20452283F850206FF0050210
:20B0400083F8512001246FF06F0283F8334083F8522000F013FB0546A0B9234613220A49A1
:20B06000304612F049F8304612F016FC074B04221A70074B4FF4FA61186809F039F8284683
:20B0800002B070BD2046FBE79BBB030830250220943200202DE9F041194C98462368074669
:20B0A0000E46154633B301F07BFA4146154801F0BBFA3946144801F0B7FA3146134801F0CB
:20B0C000B3FA2946124801F0AFFA01F00BFB0546FDF798F8421C012392B22946206812F0DB
:20B0E0000BF850B9206812F0D7FB003018BF0120BDE8F0810220BDE8F0810120BDE8F0813B
:20B10000B4320020C3B90308CAB9030813BB0308ABBA030807B50DF101020DF1020168465F
:20B1200003F02CFA01A803F095FE0198012806D1114B1B78012B07D10130019002E000286F
:20B14000FADC012003F08CFE019B9DF80120BDF802109DF80000FFF79DFF48B10198012880
:20B1600003D00138019003F07BFE03B05DF804FB014B01221A70F8E79832002007B50DF143
:20B1800001020DF10201684603F0F8F901A803F061FE019B9DF80120BDF802109DF8000070
:20B1A000FFF778FF18B1034B186808F0CBFF03B05DF804FBAC32002038B5134C23680546A2
:20B1C00043B1834206D0114B186808F0BBFF206810F0F2F92B7A0E49256043F008032B7283
:20B1E0004FF6FF731322C5F894302846032311F083FF206812F050FB064B4EF66021186860
:20B2000008F076FF002038BDB4320020B03200209BBB0308AC3200202DE9F04F93B0074660
:20B22000102200210EA82DF017FB00230D93002F00F0CD8010230EAA6649384601F072FA32
:20B2400000287DD00EA82DF037FA3A215FFA80FA0EA82EF047FA441C20462DF02DFA3A21CD
:20B260005FFA80FB20462EF03DFA01302DF024FABAF1170FC5B268D8BBF13B0F65D83B2DB0
:20B2800094BF002401240DAA5349384601F085FA00285CD09DF834300B93013B062B88BF32
:20B2A00001240DAA4D49384601F077FA002851D09DF834300993013B0B2B88BF01240DAAC9
:20B2C0004749384601F069FA002846D09DF8348008F1FF331E2B88BF01240DAA41493846E6
:20B2E00001F05BFA00283BD09DF834300A93133B502B88BF012410230EAA3B49384601F02C
:20B3000011FA80B30EA82DF0D7F93A215FFA80F90EA82EF0E7F901302DF0CEF9B9F1170F86
:20B32000C6B224D83C2E28BF012410230EAA2F49384601F0F7F9E0B9012013B0BDE8F08FC0
:20B3400001240546834682469DE701249BE701240B90A6E701240990B1E701248046BCE790
:20B3600001240A90C7E7012406468146DDE70124DBE70EA82DF0A0F93A21C7B20EA82EF069
:20B38000B1F901302DF098F9172FD5D8C0B23B28D2D8002CD0D13C2313FB096203FB070305
:20B3A0009A42C9DC0B9B02930A9B0193099B0690009305970496CDF80C9043462A4659469C
:20B3C000504602F01DFC003018BF0120B5E70220B3E700BFF2C10308B9BA0308C3BA0308C9
:20B3E000C9BA0308D4BA0308D9BA0308E1BA03087FB506A8224B40F8143D0022114608F099
:20B4000067FE204B186018B9012007B05DF804FB06A81D4B40F8103D0022012108F058FEBA
:20B420001A4B18600028EFD006A8194B40F80C3D0022114608F04CFE164B18600028E3D046
:20B4400006A8154B40F8083D0022012108F040FE124B18600028D7D006A8114B40F8043DC0
:20B460000022012108F034FE0E4B18600028CBD00D4808F0ADFA00F00FF90020C5E700BF53
:20B4800015B10008B03200207DB10008AC320020E99200089432002049950008A432002063
:20B4A0004D900008C43200203425022008B5084B1B6863B1074B0521186808F019FE064B17
:20B4C0004EF660211868BDE8084008F011BE08BDB4320020B0320020AC32002010B5074C90
:20B4E0001044824201D1084610BD12F8013B4B40DBB254F8233083EA1121F2E7D8BB030834
:20B50000044808B5044B036004F08AFCB0FA80F0400908BD8C33002000300240044B02220A
:20B520005A711A68936843F001039360704700BF8C330020024B02681B681A60704700BF1A
:20B540008C330020024B01225A711B68186870478C3300202DE9F34102AE0024074646F88F
:20B56000044DFFF7DBFF4FEA910821F00305A3B2984504F1010411D8A9420AD002AB002216
:20B5800043F8042D4A1B184679192DF040F9FFF7D1FFFFF7D7FF02B0BDE8F08157F8233098
:20B5A00001933046FFF7C6FFE1E77047704700001FB500238DF80C308DF80D3064230093FC
:20B5C00003AA02237021054805F056FE002814BF0220002005B05DF804FB00BF9433002086
:20B5E00030B587B0002306AA0493ADF814306425032302F8093D04460095012370211648FB
:20B6000005F03AFE10B1022007B030BD0095062304AA7021104805F0FDFE0028F3D19DF8B0
:20B6200010109DF813208B09012B1CBF012323709DF8123008BF207042EA03229DF811307B
:20B64000A28043EA0123C3F30D0363809DF81530A3710020D8E700BF9433002008B5142268
:20B66000002102482DF0F8F8002008BD20330020014B036000207047CA32002008B5002378
:20B6800053220449184601F0D5FB002814BF0220002008BDCA32002010B5094C0023184610
:20B6A0005322214601F06AFA022338B9032284F8352084F8363084F8372010BD184610BDA0
:20B6C000CA3200202DE9F041079E751E012D3BD81F4C5FFA80F81820684304EB000ECFB2F1
:20B6E000D5B204F800800930CEF803308EF801708EF802500F22069920442EF02FF86FF06E
:20B700000E0384F84F30452384F850306FF0050384F851306FF06F03012284F852300D4B0B
:20B7200084F8308096424FF000001A7084F83170094A84F8325008BF4FF400521E749860E8
:20B740005860DA60BDE8F0810220BDE8F08100BFCA320020203300200020200070B50A46A6
:20B7600088B181B10B4C2378012B0CD1A568E6686B1CA3600146002306EBC51001F05AFB08
:20B7800018B1FFF76BFF022070BD63688033636070BD00BF20330020044B054A1B7C182123
:20B7A000013B01FB032318720020704720330020CA32002070B5A0B08022002168462DF038
:20B7C0004BF8254E00254FF0FF34B3689D4223D3337C224A1821013B01FB03238CBBDC71E6
:20B7E0001C726FF00E0382F84F30452382F850306FF0050382F851306FF06F0382F83440CF
:20B8000082F8334082F85230002353221349184601F010FB48B909E0F0680023802269463B
:20B8200000EBC51001F0AAF918B10224204620B070BD21466A468020FFF750FE01350446E7
:20B84000C3E70021D9710121197282F8341082F833100224D8E700BF20330020CA32002078
:20B860002DE9F74F0E9E06F1FF3A0024BAF1010F83460F4691469846019455D801A803F080
:20B88000BBFB01980C9B4FF02A0E0EFB06050EFB0AFA05F8243C0D9B05F8233C05F828BCD8
:20B8A00005F8277C05F8269C05F8258C0AF11B051122214628442CF0CFFF1398FCF7A2FC34
:20B8C00002460198139928442DF048FF019B9A44119BCAF80830129BCAF81330134B0122B8
:20B8E000012E1A70119A9A6014BF4FF420024FF4A0021A61BDF83C209A82129A1A624FF0BE
:20B90000FF329A620F9ADC60B2F5007F0CBF3C2214225C6083F824609C61DC6183F82C20D4
:20B92000204603B0BDE8F08F0220FAE73433002037B502A800240C4D40F8044D2C7003F015
:20B940005BFB2A6AAB6A9A4295F82420019B13440BBF012283F8554083F85520022403F042
:20B9600061FB204603B030BD34330020014B93F82400704734330020014BD868704700BFA3
:20B9800034330020014B988A704700BF3433002008B50B4602464FF0FF311846FFF79EFD01
:20B9A000002814BF0220002008BD0000024A936901339361704700BF34330020014BDA688A
:20B9C000DA61704734330020034B58689B68984234BF022000207047343300202DE9F34146
:20B9E000044602A80023144D40F8043D174688462B7003F001FB019E601E2A2303FB0063D6
:20BA0000103303F8048CEA6923F8037C6AB1C3F807202A2303FB0060AB69C0F80F3003F0C5
:20BA200001FB002002B0BDE8F0814FF0FF32DA711A725A729A72ECE73433002008B530229A
:20BA4000002102482CF008FF002008BD34330020F8B50A4690B189B10C4C2378012B0DD177
:20BA6000E568A78A26696B1CE3600146002305FB076001F0DFF918B1FFF7E0FF0220F8BDE0
:20BA80006368A28A13446360F8BD00BF3433002010B5044C0246A16AA08AFFF71FFDA062F4
:20BAA00010BD00BF34330020014B93F82C00704734330020054A13780133DBB2052B1370E4
:20BAC00002D9002004F0C4B8704700BF84330020024B002201201A7004F0BAB88433002057
:20BAE00008B52022002102482CF0B6FE002008BD6433002008B52022002102482CF0ACFE40
:20BB0000002008BD64330020F7B500230546174600930C46002900F0CD8068492046FCF7BD
:20BB200067FB48B9E869FFF747FB002840F0AA8001233B7003B0F0BD61492046FCF758FB12
:20BB4000C8B96846FDF73CFF002840F09B80002401263E70002785F82970002C00F09480AE
:20BB600033461C225749E86911F0C6FAE86911F093FE3846DEE71822534920462DF0DCFD04
:20BB800020B921466846FEF727FADDE719224F4920462DF0D1FD20B921466846FEF7E8FAF4
:20BBA000D2E74B492046FCF723FB18B96846FEF787FBC9E747492046FCF71AFB18B968469E
:20BBC000FDF72CFDC0E744492046FCF711FB18B96846FDF783FDB7E740492046FCF708FB39
:20BBE00018B96846FDF760FEAEE73D492046FCF7FFFA18B96846FDF785FFA5E7394920469C
:20BC0000FCF7F6FA18B96846FDF7F4FF9CE736492046FCF7EDFA18B96846FEF743FD93E76B
:20BC200032492046FCF7E4FA18B96846FEF724FE8AE71A222E4920462DF07EFD50B901A9E7
:20BC40002046FEF759FE0246E0B901996846FEF77DFE79E71A22274920462DF06DFD30B9B7
:20BC600001A92046FEF748FE60B90122EDE71822214920462DF060FD20B921466846FEF702
:20BC80009FFA61E7022463E7032313221B49E86911F032FA009F3846FCF7B4FA421C334681
:20BCA00092B23946E86911F027FAE86911F0F4FD20463FE76FF00F003CE700BFDCBF030889
:20BCC000F3BF03087EBB030807C0030820C003083AC0030854C0030865C0030879C003080E
:20BCE0008AC00308A4C00308BCC00308DCC00308F3C003080EC1030829C103089BBB030864
:20BD00002DE9F843DDF82080044617461D460E4600297FD00A894B899A4277D83F492846FF
:20BD2000FCF766FA8146E0B93946E069FEF798FE58B184F829903A4901231D22E06911F08F
:20BD4000DBF9E06911F0A8FD02E0012384F82930012388F8003030460EF042FC0020BDE8FA
:20BD6000F88316222F4928462DF0E6FC814640B93946E069FEF702FF0028E6D084F829909A
:20BD8000E6E729492846FCF733FA40B984F829003946E069FFF77EF80028D9D0CBE7234915
:20BDA0002846FCF725FA28B984F82900E069FFF735F9F1E71E492846FCF71AFA48B984F8DF
:20BDC0002900FFF703F80028B5D1012313221949B4E719492846FCF70BFA28B984F82900F7
:20BDE0003846FFF7E5F8EEE7002384F829301D2201230B49E06911F07FF9E06911F04CFD19
:20BE0000012388F8003030460EF0EAFB6FF00500BDE8F8836FF00F00BDE8F88342C10308D5
:20BE20007EBB030853C1030869C103087CC103088EC103089BBB0308A5C103082DE9F041AF
:20BE4000044617461D468846002900F0F080069B794901261E702846FCF7CAF948B984F8C8
:20BE600029003846FDF7EEFD0123002800F0BE8022E072492846FCF7BBF9A8B984F82900EA
:20BE80003846FDF763FE03283346EED16C492422E06911F031F9E06911F0FEFC40460EF035
:20BEA0009FFB0020BDE8F08166492846FCF7A0F928B984F8290001231D226349E8E76349F9
:20BEC0002846FCF795F928B984F829003846FEF7EFFCC9E75E492846FCF78AF9014628B92C
:20BEE00084F829003846FEF769FDBDE759492846FCF77EF918B984F829003146F2E7564941
:20BF00002846FCF775F928B984F829003846FFF783F9A9E751492846FCF76AF928B984F891
:20BF200029003846FDF7E8FF9EE74D492846FCF75FF928B9002384F8293002F095FC93E7D5
:20BF400048492846FCF754F928B984F829003846FDF782FE88E744492846FCF749F920B9B2
:20BF600084F8290002F0F6FB7EE740492846FCF73FF928B984F829003846FEF749F973E71D
:20BF80003B492846FCF734F940B984F8290002F039FC012350B31B22364979E7364928469A
:20BFA000FCF726F928B984F829003846FEF7FCF95AE732492846FCF71BF928B984F82900CA
:20BFC0003846FEF729FB4FE717222D4928462DF0B3FB70B984F829003846FEF7A5FA10B10B
:20BFE000FFF768FD67E7FFF773FD0123142225494EE71D22244928462DF09EFB20B984F810
:20C00000290002F0A5FF2FE700231D220E4984F82930E069012311F06FF8E06911F03CFC66
:20C0200040460EF0DDFA6FF00500BDE8F0816FF00F00BDE8F08100BFF3BF03088AC00308D6
:20C04000BDC10308A4C003087EBB0308DCC00308F3C003080EC10308E1C10308F7C10308F5
:20C0600014C2030834C2030851C2030871C203088FC20308B0C203083AC00308CBC203080C
:20C08000E4C203089BBB0308FCC20308084601492DF064BB64330020002070470FB413B5D8
:20C0A000094C04AA204652F8041B01922DF008FD4FF47A7382B22146044807F03FFB02B0FF
:20C0C000BDE8104004B07047000000102035002008B520F0ABFC20F0E3FD4FF4FA7001F079
:20C0E00017F820F0DFFDFEE708B507F091FC074B6421186807F0FCFF012002F06FFF6420D1
:20C1000001F006F8012007F0DBFFFBE76035002070B53024A0B02246002108A82CF09CFBF2
:20C120001422002103A82CF097FB0021224614A82CF092FB0024264B01941A6C42F08052AD
:20C140001A641B6C03F080530193019B214B02941A6842F440421A601B6803F4404302939C
:20C16000029B0923089301230D934FF480030F9308231093B42302254FF48036119308A816
:20C180000423139309960E95129505F035FD05F0F7FC0F2303934FF4A0530521069303A872
:20C1A0004FF4805307930495059405F0D3FE282314936023189305231A9314A8064B1E9324
:20C1C0001D9605F0A5FF05F099FE20B070BD00BF0038024000700040000310002DE98048B0
:20C1E00097B003F05FFDFFF793FF142200210FA800242CF031FBB24B02941A6BB148B24D97
:20C2000042F020021A631A6B02F020020292029A03941A6B42F004021A631A6B02F0040236
:20C220000392039A04941A6B42F001021A631A6B02F001020492049A05941A6B42F00202FB
:20C240001A631A6B02F002020592059A06941A6B42F040021A631A6B02F040020692069AAF
:20C2600007941A6B42F010021A631A6B02F010020792079A08941A6B42F008021A631B6BBA
:20C2800003F00803089301224FF40071089B04F03DFE01224FF400418C4804F037FE012691
:20C2A0004FF400770FA987480F9710961194129404F0A0FC4FF400430FA984480F931096C4
:20C2C0001296119404F096FC04230FA980480F931196109404F08EFC32464FF440417D4878
:20C2E00004F014FE0FA94FF440437A480F9310961194129404F07EFC7748784B036003F01F
:20C300008FFDFFF7FDF8764A764BAC6085E80C0028464FF480432B61EC606C61AC61EC612D
:20C320002C6204F005FF2146284605F0E1F92146284605F0FCF96C4D6C4B2C6185E8180092
:20C340007F23AB60284641F68363EB606C61AC6106F028F822460FA928468DF83C408DF856
:20C360003D408DF83E401294139406F074F822460BA928468DF82C608DF82D608DF82E60CE
:20C380008DF82F6006F0D7F859485A4987614FF4827380E80A004FF010080A23C362846061
:20C3A000C46004614461C46104624462846206F05FFA424621460BA82CF04EFA1C2221463E
:20C3C0000FA84D4D09940A942CF046FA4B48AC604FF42F7385E809004FF47A732846EB6092
:20C3E0002C61AC6106F082FE4FF480530BA928460B9306F051FF284606F092FE09A92846FD
:20C4000009940A9407F00AF822460FA9602328460F9310941194139406F0D2FE284600F021
:20C42000ABFF3748374B84604FF4E13780E88800354FC4600C23436104618461C46107F041
:20C440004FF9324BC7F808804AF6C87B40F2CF7A384687E80808C7F80CA03C61BC6106F0BA
:20C4600045FE3B682A4F6FF00109C3F81090294BC7F80880384687E80808C7F80CA03C61D9
:20C48000BC6106F033FE3B6816A8C3F8109040F8584D07F07FFE204B21461860284606F09D
:20C4A0009DFF16A81D4B40F8543D2246214607F00FFE1B4B2246186021461A4B099333E05D
:20C4C0000038024000140240943300200000024000100240000402408C330020003002407A
:20C4E00000540040A0860100E8330020002800400834002000300140E03400200008004095
:20C50000203500200044004060340020001C0040A034002000200040883300203DEC0008B2
:20C520006835002059D7000809A807F0D1FD0D4B3146186022460C4B0B930BA807F0C8FD7D
:20C540000A4E0B4B18600FCE0FAD0FC533682B6021460FA807F09CFD064B186007F08CFD2B
:20C56000FEE700BF643500203DD6000840B70308603500206C35002070470000F8B507461A
:20C58000064DFBF73FFE2C68064602463946204634442DF0E3F82C60F8BD00BF0800002074
:20C5A00010B5084C4FF40062204600212CF054F9054B06481C60064B0122BDE810401A60D0
:20C5C000FFF7DCBF00040010080000203CC303087035002070B5064D064E00242B689C425E
:20C5E00000DB70BD3046FFF7C9FF0134F6E700BF703500200400002010B50446FFF7EAFF57
:20C600000648FFF7BBFF2046FFF7B8FF0448FFF7B5FF044A13680133136010BD2DC30308DB
:20C6200039C303087035002038B50D460446FFF7D1FF0B48FFF7A2FF20460A4CFFF79EFFA5
:20C640000948FFF79BFF2A46084920462DF026F82046FFF793FF0648BDE83840FFF78EBFFB
:20C660002DC303087435002026C303084B14040830C3030838B50C460546FFF7ABFF08481F
:20C68000FFF77CFF2846FFF779FF0648FFF776FF2046FFF773FF0448BDE83840FFF76EBF3A
:20C6A0002DC303082AC303082FC30308094A0A4808B51368023B1360FFF760FF074A1368DC
:20C6C000013B1360FFF786FF0548BDE80840FFF755BF00BF08000020ADBB030870350020CD
:20C6E00035C303080A4A0B4808B51368991E1160002223F8022CFFF741FF074A1368013B87
:20C700001360FFF767FF0548FFF738FF044808BD08000020ADBB03087035002033C303085E
:20C7200000040010F8B50F4615461E462DF02BF8044678B33846FBF765FD215C222904EBE6
:20C74000000327D15A783A2A24D1581C2CF0CAFF10B342780D2A1BD842F20143D340DB430A
:20C7600013F0010316D07D2A14D07B2A12D001300023222A03D10022EA540120F8BD0A2ADC
:20C78000F9D0B342F7D0EA54013310F8012FF0E72C2AE8D10020F8BDF8BD70B50E46154626
:20C7A0002CF0F1FF044660B13046FBF72BFD235C222B06D1023020442BF07EFF2860012008
:20C7C00070BD002070BD70B50E4615462CF0DBFF044658B13046FBF715FD02300A220021C9
:20C7E00020442DF0FFF82860012070BD70BD000038B5074C05464FF0FF31206807F0CEFC7B
:20C80000044B20681D70BDE8384007F04DBD00BF90350020843500201FB5002205234FF4B8
:20C8200000411048ADF808208DF80C308DF80D2004F06CFB6423009302AA03A902230A48DB
:20C8400006F0FBF8012204464FF40041054804F05DFB2CB99DF8090000F0010004B010BD70
:20C860000120FBE700000240083400202DE9F047C0B004468946904600214FF48072684667
:20C880002BF0EAFFB4F1807F4ED2284E284D30684FF0FF3107F082FC2A78002A42D1012366
:20C8A0004FF4004123482B7004F030FB03238DF80030230C8DF80130230A8DF80230042205
:20C8C000642369461C488DF8034006F00EF840B9DFF864A004464EF66027444511D3002480
:20C8E00000E00224002301224FF4004111482B7004F00CFB306807F0D7FC204640B0BDE81C
:20C90000F087A8EB0403BB4238BF9FB23A464FF47A7309EB0401504606F07FF90028E0D13B
:20C920003C44DAE70424E5E70224E6E79035002084350020000002400834002013B502ACFD
:20C94000062304F8043D00224FF400410B4804F0DDFA214601226423094805F0C6FF044647
:20C9600001224FF40041054824B104F0CFFA022002B010BD04F0CAFA2046F9E70000024050
:20C9800008340020B0F1807F37B50C46154622D2B2F5807F1FD899B302238DF80430030C38
:20C9A0008DF805308DF80700030A00224FF4004114488DF8063004F0A9FA042264230DEB2B
:20C9C0000201114805F091FF38B101224FF400410C4804F09BFA022010E021464FF47A7360
:20C9E0002A46094805F081FF04460028EDD1054801224FF4004104F089FA204603B030BD60
:20CA00000320FBE700000240083400202DE9F84F1D4E9DF82C8083468A4691461D4637461A
:20CA20006421306807F053FD044618B9642007F047FBF5E700F1080680F800B0C0F804A05B
:20CA40004FF48072002130462BF006FF2A46494630462BF0DCFEC4F80851B8F1000F09D0DA
:20CA60002B1DFF2B06D80A9B7351D4F808310433C4F808312146386807F02EFD002814BFA8
:20CA800002200020BDE8F88F8C35002013B520238DF80430030C8DF805308DF80700030A21
:20CAA00000224FF400410D488DF8063004F02EFA04220DEB02016423094805F016FF044657
:20CAC00001224FF40041054824B104F01FFA022002B010BD04F01AFA2046F9E7000002404F
:20CAE0000834002038B5054668B1074C4FF0FF31206807F053FB054B20681B782B70BDE84F
:20CB0000384007F0D1BB38BD903500208435002013B50021144807F0AFFC144B186010B9E0
:20CB2000022002B010BD02A8002440F8084D07F031FB0F4B18600028F2D002A840F8044DE7
:20CB400007F028FB0B4B18600028E9D022464FF40041094804F0DAF9074801224FF4004112
:20CB600004F0D4F92046DCE740C303088C3500209035002080350020000002402DE9F74390
:20CB80009946002306468846174601930A253A4641463046FFF76AFE042804460BD14FF4E9
:20CBA0009670013D07F08CFA15F0FF05EFD1204603B0BDE8F0830028F9D1B9F1000FF6D049
:20CBC00040463946FEF7C6FC0A2580463E4404220DEB02013046FFF749FE0428044608D1FF
:20CBE0004FF49670013D07F06BFA15F0FF05EED1DDE70028DBD1019CB4EB080418BF0124AE
:20CC0000D5E700002DE9F04FADF5077D00238DF80B30FFF77DFFA0BBC82000F079FADFF80B
:20CC20000CA2DFF80CB200240022DAF8001003A807F07EFC039B202B4DD1049D002D4AD07E
:20CC40002B78002B53D16B68C3F30B03DBB90220FFF7CEFD05F108060DF10B00FFF742FF90
:20CC60009DF80B30032B10D0042B1BD0022B1DD1FFF764FE6868FFF709FF0320FFF7B8FDAD
:20CC800014E0C920C9E70320E2E7FFF7C5FD68B9FFF754FEB5F8082168683146FFF772FE77
:20CCA0000420EBE7FFF7B8FD0028E7D00DF10B00FFF718FF9DF80B30032B0CBF50200A207B
:20CCC00007F0FEF99DF80B30002BC5D1574B2946186807F069FC0134E4B2C72C03D902202C
:20CCE00002F09CFF00240A2007F0EAF99CE7012BECD14FF0FF31DBF8000007F04FFA4FF052
:20CD0000FF394FF000084E4608F120073F0207F100614FF4807201F5C04106A82BF077FDDD
:20CD200041F67F73984506AA314631D1FC20FEF7D5FB030A8DF81531030C8DF81631030E1F
:20CD400006468DF814018DF81731494606AA4FF48070FEF7C3FB17F4706F81460CBF02205D
:20CD60000320FFF745FD0DF10B00FFF7BBFE9DF80B30032B12D0042B1DD0022B1FD1FFF791
:20CD8000DDFD3846FFF782FE0320FFF731FD16E04FF48070FEF7A2FB0646D6E7FFF73CFD8B
:20CDA00068B9FFF7CBFD4FF4807206A93846FFF7E9FD0420E9E7FFF72FFD0028E5D005203E
:20CDC00007F07EF90DF10B00FFF78CFE9DF80B30002BC8D10134E4B2312C05D9022001930C
:20CDE00002F01CFF019B1C4608F10108B8F5FC5F8AD14FF400564FF0FF3700234FF480725D
:20CE000046A93046FFF7BAFE394646AA4FF48070FEF764FB06F58076B6F5FD1F0746ECD147
:20CE2000DBF8000007F040FA50E700BF8C350020803500202DE9F3470746894615461E4617
:20CE400023B311464846FEF785FB04248046DFF87CA00021DAF8000007F0A0F9FF2833D014
:20CE60002C44DAF8000007F01FFAC4F30F23E4B2002C0CBF1C465C1CA4B207EB0424BA46A0
:20CE80000020544505D102B0BDE8F0871C469846DDE70028F7D1B5F5807F2B4628BF4FF4FD
:20CEA0008073BAF1807FA5EB03050BD2AAEB07020196CDF800804A445146FFF7A7FD0AF528
:20CEC000807ADEE70220FAE70420DCE78035002007B50023019300931A4619460120FFF7F8
:20CEE00095FD03B05DF804FB2DE9F743224C05464FF00008012610274FF6FF722146CDF809
:20CF0000048084E8C000A660C4F80C8005F0F3FB02234FF6FF722146284684E888004FF04D
:20CF20000409A660C4F80C8005F0E5FB03234FF6FF722146284684E88800C4F80890C4F80C
:20CF40000C8005F0D8FB40F221230193019BC4F8009021464FF6FF7228466760A660E360F0
:20CF600005F0C9FB40F26A51284605F0DBFB00B1FEE703B0BDE8F083B8250220F0B507784E
:20CF800087B004466FB92C4E0FCE01AD0FC533682B60394601A807F07BF8284B1860012348
:20CFA000237063797BB167786FB9254E0FCE01AD0FC533682B60394601A807F069F8214BEB
:20CFC000186001236370A3797BB1A7786FB91E4E0FCE01AD0FC533682B60394601A807F043
:20CFE00057F81A4B18600123A370E3797BB1E7786FB9174E0FCE01AD0FC533682B60394656
:20D0000001A807F045F8134B18600123E370237A7BB127796FB9104E0FCE01AD0FC53368FD
:20D020002B60394601A807F033F80C4B18600123237107B0F0BD00BF54B70308A435002062
:20D0400068B70308A83500207CB703089C35002090B7030894350020A4B70308AC350020D8
:20D0600030B5002187B02848284C07F005FA002320608DF805308DF806308DF807308DF840
:20D0800008308DF809308DF800308DF801308DF802308DF803308DF804306846FFF76EFFF6
:20D0A0004FF0FF32216803A807F042FA039B202B0AD1049D45B12B88B3F5967F1BD008D803
:20D0C000642B10D0C82B12D02946206807F06CFAE3E7B3F5FA7F12D0B3F5167FF4D10123C5
:20D0E0008DF80930F0E701238DF80830ECE701238DF80530E8E701238DF80630E4E701236C
:20D100008DF80730E0E700BF4CC303089835002038B5064C05466421206807F0D8F9014620
:20D120000580206807F0D8F9C0B238BD9835002007B50F4B00220092596C41F48041596484
:20D14000596C01F48041009100990192196C41F0805119641B6C03F0805301930F216FF023
:20D160000100019B02F0F0FD03B05DF804FB00BF003802400268094B9A4282B00BD1002328
:20D180000193074B1A6B42F480521A631B6B03F480530193019B02B0704700BF0030024085
:20D1A0000038024030B5044689B01422002103A82BF052FB2268144B9A4223D1134C1448AF
:20D1C00000250195236B43F002032363236B03F002030193019BC023039312230493012329
:20D1E00005930323069303A90423079303F002FD0295236C43F400132364236C03F40013E9
:20D200000293029B09B030BD0054004000380240000402400268034B9A4202BF024B01221D
:20D220001A607047002800403C0E4742F0B5044689B01422002103A82BF00EFB22681E4B41
:20D240009A4236D103F58433002400945A6C1B4842F480525A645A6C02F480520092009ADB
:20D2600001941A6B42F001021A631A6B02F001020192019A02941A6B42F002021A631B6BE6
:20D2800003F002030293029B022720230326052503A9039304970696079503F0ABFC3023A3
:20D2A00003A907480393049705940696079503F0A1FC09B0F0BD00BF003001400000024009
:20D2C000000402401FB50368264A93420ED100230093254B5A6C42F001025A645B6C03F00C
:20D2E00001030093009B05B05DF804FB1F4A93420CD1002301931C4B1A6C42F004021A647E
:20D300001B6C03F004030193019BECE7184A934213D1154B00220292196C41F080011964A4
:20D320001B6C03F0800302932C200521029B02F00BFD2C2002F03CFDD5E70E4A9342D2D14F
:20D34000094B00220392196C41F4807119641B6C03F4807303932D200521039B02F0F4FCA0
:20D360002D20E7E7000001400038024000080040001C00400020004010B5044686B0142258
:20D38000002101A82BF068FA22680D4B9A4215D1002300930B4B0C481A6B42F008021A6304
:20D3A0001B6B03F008030093009B4FF48053019301A902230293059303F01CFC06B010BD87
:20D3C0000008004000380240000C024010B5044688B01422002103A82BF03EFA2268154BB7
:20D3E0009A4224D103F5FA33002101911A6C124842F400321A641A6C02F400320192019AE2
:20D4000002911A6B42F008021A631B6B03F008030293029B602303930223049301230593F4
:20D420000323069303A90723079303F0E3FB08B010BD00BF00440040000C02407047FEE73A
:20D44000FEE7FEE7FEE7704708B502F045FCBDE8084007F0AFB80000014805F03EB900BF37
:20D46000F8230220014803F0D8B800BF74260220014804F0A3BA00BF50230220FFF7F8BF8D
:20D48000014802F01FBE00BF10230220014805F025BD00BF60340020014805F01FBD00BFF4
:20D4A000A03400207047000070B5ADF5487D4FF44872002168462BF0CFF9154C154D00269D
:20D4C00000234FF4487269462046FFF757FB48B14FF4165200210F482BF0BEF900200DF5BF
:20D4E000487D70BDA8194FF44872694604F580542BF08DF9B4F5820F06F54876E0D195F82E
:20D500002630FF2BE4D06B8C002BE1D0E6E700BF00404000FC450020F0B5ADF5357D4FF45B
:20D520003472002168462BF097F9144C144E154F002500234FF4347269462046FFF71EFB50
:20D5400090B970194FF43472694604F580542BF05EF9BC4205F53475EBD1738D013B9BB23C
:20D560004FF6FD72934205D94FF40762002104482BF072F900200DF5357DF0BD0060430081
:20D58000C83600200090430008B50522002304490448FFF74FFC002814BF0220002008BDB7
:20D5A000BE3600200010440084B0F8B50B4E06AC84E80F006421306806F089FF06AD074601
:20D5C00004460FCD0FC495E8070084E8070039463068BDE8F84004B006F07EBFE825022051
:20D5E0000368114A934210B5044605D10F4BBDE81040186806F034BE0D4A934212D10D4A8E
:20D600001378013B13F0FF0301D0137010BDB4231370094B186806F023FE2046BDE810407D
:20D6200005F042BC10BD00BF00200040D0250220001C00400D000020E425022070B5404D8E
:20D64000404C2B7826780133DBB22B7056B9642B08D9012332464FF440413B48237003F0B9
:20D6600055FC2E702378002B69D004213748384C03F046FC238810B9013323801BE0DA1E21
:20D68000072A09D800224FF440412F4803F03EFC304A00231370F0E7A3F10B02272A1ED80F
:20D6A00000224FF44041284803F030FC002323800222284B1A702388A3F10B02262A2AD870
:20D6C0004FF48041204803F01BFCB0FA80F252094FF480411C48BDE8704003F017BCA3F146
:20D6E0003302312A09D800224FF44041164803F00DFC002323800322DBE7642B09D9002239
:20D700004FF44041104803F001FC002323800422CFE70023B1E7A3F13202322A03D801227E
:20D720004FF44041D6E7642B09D900224FF48041054803F0EBFB01224FF40041CAE770BD26
:20D74000B1350020B73600200004024000100240B2350020B035002000B58DB003238DF875
:20D7600014300CAB13E907008DE8070005AB0FCBFFF71AFF0DB05DF804FB0000F8B5D8B14F
:20D780000F4C00235027264607FB0345DAB295F820E01EF0010F11D06D8C8D4203D00133F7
:20D7A000782BF1D11A4602EB820106EB011150222BF02DF80020F8BD0320F8BD0220F8BDFB
:20D7C000FC450020F0B50A4C0023502505FB0342DEB292F82070FF0708D5528C824202D10E
:20D7E0000E700020F0BD0133782BEFD10220F0BDFC45002070B5E0B1104D00242B46AE7E43
:20D80000E2B2C6B1EE8A8E4205D001343C2C05F11C05F4D12246C2EBC20203EB820303F127
:20D820001C0253F8041B40F8041B9342F9D1002070BD032070BD022070BD00BF583F002008
:20D84000F8B5D8B10F4C00234827264607FB0345DAB295F82CE01EF0010F11D06D8D8D4202
:20D8600003D001331E2BF1D11A4602EBC20106EBC10148222AF0CBFF0020F8BD0320F8BDD8
:20D880000220F8BDC8360020F0B50A4C0023482505FB0342DEB292F82C70FF0708D5528D4B
:20D8A000824202D10E700020F0BD01331E2BEFD10220F0BDC836002010B5074A00234821BA
:20D8C00001FB0324D8B294F82C40E40703D501331E2BF5D1184610BDC83600200A4B0B48AC
:20D8E000598D30B50023502404FB030292F82050ED0705D5928C8A4204D00133782BF3D1A1
:20D90000022030BD002030BDC8360020FC45002010B508490023482000FB031292F82C40C5
:20D92000E40701D5508D10BD01331E2BF4D14FF6FF7010BDC836002078B10B4B93F82C2045
:20D94000D2070CD50022027093F8743013F0010307D00123037010467047032070470220CC
:20D9600070471846704700BFC83600202DE9F04132B32BB3134EDFF850E04827002407FBF7
:20D980000060147025468446BEF82480468DB045E7B20CD19EF839608E4208BF167805F18C
:20D9A000010504BF01361670EDB208BF1F709CF82D60AE4204D90134782C0EF1500EE3D114
:20D9C000BDE8F081C8360020FC450020F7B502A9002301F8013D0446FFF756FFA8B90C4DB2
:20D9E00002460346502606FB025191F82070FF0709D5898CA14203D10133DBB2132B04D828
:20DA00000132782AEFD103B0F0BD0220FBE700BFFC45002013B502A9002301F8013D0446D6
:20DA2000FFF732FF70B9084A0346917E09B902B010BD118BA14203D10133DBB2132B01D880
:20DA40001C32F2E70220F2E7583F00202DE9F74F174D002480468946924627462646A5F12D
:20DA60003A0B502202FB04B292F82020D2071AD535F8162C424511D10137FFB24F4512D86B
:20DA800015F8012C022A09D11A462946504601932BF052FE019B08B90136F6B20134782CCD
:20DAA00005F15005DDD1304603B0BDE8F08F00BF36460020F8B505460846E1B100230F4E6D
:20DAC0001C46502707FB036191F820E01EF0010F0AD0B1F824E0AE4503D1A24206D901341A
:20DAE000E4B20133782BEDD10220F8BD50222AF08EFE0020F8BD0320F8BD00BFFC4500203F
:20DB0000F0B501B3114C00231D46264680B2A77E5FB1278B874203D1AA4208D90135EDB205
:20DB200001333C2B04F11C04F1D10220F0BD1C2202FB03639A1853F8040B41F8040B9342DA
:20DB4000F9D10020F0BD0320F0BD00BF583F002040B1054B1A6802605A6842601B89038137
:20DB60000020704703207047F045002010B503468CB028B3134A016811604168516001895F
:20DB800011810CAC596800681B89042204F81C2D06AA03C213800CAB13E907008DE80700C5
:20DBA00094E80F00FFF700FD074B01221A70074B4FF49671186806F09BFA00200CB010BD98
:20DBC0000320FBE7F0450020383F0020543F0020044B01221A70044B4FF49671186806F096
:20DBE00087BA00BF383F0020543F0020034B03221A7000225A80FDF759BC00BFB83600200C
:20DC000030B587B08DF805109DF82C108DF803109DF828108DF804008DF806208DF801104E
:20DC200000228DF8023001A99DF830301348049205928DF807209DF834509DF83C408DF889
:20DC4000003004F008FC024610B1022007B030BD69460A4804F06FFC0028F6D19DF8383081
:20DC6000074AC5EB051503EB85059DF840301580C4EB041403EB84045480E7E7E83300205D
:20DC8000EC450020064B1A8810B51C460AB95B8823B1638802800B80002010BD022010BDCB
:20DCA000EC4500202DE9F843114D814688462868642117461E4606F00AFC0446414600F834
:20DCC000019B2BF01DFD94F824309DF82020278462F300039DF82420668462F3410384F8E3
:20DCE00024302146286806F0F7FBC0B2BDE8F883E025022084B02DE9FF410AAC84E80F007D
:20DD0000294ABDF83E1000249046937E012BE6B204D1D38A8B4240D1022538E0002B3CD137
:20DD20000DF10F01BDF84000FFF7AEFD05460028F2D11C230AAF03FB04830DF1400E3A46C0
:20DD400003CA724518605960174603F10803F6D1106818601C2303FB04840021238BBDF8B2
:20DD60003E200191009101200AA9FFF79BFF0F4A01230A21B6FBF1F651685370B3400B43C1
:20DD800053600B4B4FF49671186806F0B1F9284604B0BDE8F04104B0704701343C2C02F11D
:20DDA0001C02B2D1B8E700BF583F0020383F0020543F002084B010B502AC84E80F00094CEC
:20DDC0006421206806F083FB02A950222AF01FFD0146206806F080FBBDE81040C0B204B014
:20DDE000704700BFEC25022084B010B502AC84E80F00094C6421206806F069FB02A9482287
:20DE00002AF005FD0146206806F066FBBDE81040C0B204B0704700BFC825022084B02DE9D6
:20DE2000F043B9B040AC84E80F00BDF82251724A0023502101FB0324DFB294F82000C6073A
:20DE400004F120090AD5608CA84240F0CF800226304639B0BDE8F04304B07047BDF824814C
:20DE60000DF147014046FFF70FFD06460028EED1502240A920462AF0CAFC99F80030ADF89A
:20DE8000B25043F0010389F80030FF2384F82F304FF0FF332363636301238DF890309DF8E0
:20DEA0002F318DF8BF309DF826318DF8B6309DF81F318DF8B03084F8386084F83960ADF81F
:20DEC000B48040AA0DF1910346AD144603CCAC4218605960224603F10803F6D12068186029
:20DEE000A2889A8040AA28AD52F8273FCDF8B7305368CDF8BB300FCD6C460FC40FCD0FC448
:20DF00000FCD0FC495E80F0084E80F0024AB0FCBFFF750FF9DF847403849ADF888804823A8
:20DF200003FB0413042593F82D208DF848500132D0B293F82E2093F8465083F82D00013224
:20DF4000D2B283F82E2015B9012583F8465091F82C30DD0748D591F87430DB0744D501233D
:20DF60008DF88A30482303FB0415294695F846E08DF88B002F310DF172000DEB03088DF856
:20DF80008CE08DF88D202BF0BBFB95F844308DF8873016AD0FCD6C460FC40FCD0FC40FCD26
:20DFA0000FC495E8030084E8030098E80F00FFF71BFF134A0123D16813720A20B7FBF0F7FE
:20DFC00003FA07F70F4313749DF84710B1FBF0F18B405169D7600B4353610A4B4FF4166127
:20DFE000186806F085F833E70023B9E70133782B7FF420AF2BE700BFFC450020C8360020E8
:20E00000383F0020543F002084B02DE9F041A0B026ACBDF8C280344E84E80F000023482298
:20E0200002FB0364DFB294F82C5015F0010504D0618D414553D102204AE0482226A9204681
:20E040002AF0E5FB84F82D5084F82E5084F8465096F82C20ADF878800123D1078DF8383061
:20E060003BD596F87420D20737D526A90DF1390012AD8DF87A302BF043FB0FCD00266C4688
:20E080008DF87B608DF87D608DF87C608DF877600FC40FCD0FC40FCD0FC495E8030084E8E4
:20E0A00003000DF1380898E80F00FFF79DFE0F4A01230A21B7FBF1F751691374BB400B4333
:20E0C00053610B4B4FF49671186806F011F8304620B0BDE8F04104B070470023C5E70133E3
:20E0E0001E2B9DD1A7E700BFC8360020383F0020543F00202DE9F04FA3B00E4600240FA9DC
:20E1000015468DF83E408DF83F40FFF7BDFB0DF13D013046FFF756FB032D40F099809DF8E8
:20E120003C809D4EDFF87CA2482707FB08694FF0500B89F846509DF83D5048460BFB05A154
:20E140000BFB05A53A312F302BF0DAFA95F84F3089F844300DF13E020DF13F0321464046EA
:20E16000FFF704FC9DF83C309DF83E2007FB036383F82E209DF83C50874C482202FB0546DE
:20E1800096F84670032F0AD1324696F8443096F82D10708D2F32FFF759FC86F84500042356
:20E1A0008DF84030482303FB05435B8DADF8803094F82C30DA0740F1EA8094F87430DB0706
:20E1C00040F1E580012348218DF8847001FB05478DF88230394697F82E308DF885302F311E
:20E1E00097F82D308DF883300DF16A002BF088FA97F844308DF87F3014AD97F845308DF875
:20E2000086300FCD6C460FC40FCD0FC40FCD0FC495E8030084E8030010AE96E80F00FFF759
:20E22000E3FD5E4A9DF83C100123044613740A20B1FBF0F18B4051690B435361584B4FF45C
:20E240009671186805F054FF204623B0BDE8F08F012D53D102219DF83C004F4C0DF13F0371
:20E260000DF13E02FFF782FB9DF83E109DF83C00C1B1482303FB0046032286F846209DF87A
:20E280003F50484F4FF0500808FB0571304608FB05753A312F302BF033FA95F84F3086F8B9
:20E2A000443012E00DF13F030DF13E02FFF75EFB9DF83C309DF83E20482101FB034393F801
:20E2C0002D10914214D183F846500DF13F030DF13E0200219DF83C00FFF748FB9DF83C308E
:20E2E000482202FB03449DF83E3084F82E3041E7022183F8461083F82E20E6E7022D1FD1C2
:20E3000029469DF83C00244C0DF13F030DF13E02FFF72CFB9DF83E109DF83C000029A8D15C
:20E320000DF13F030DF13E02FFF720FB9DF83C30482202FB03439DF83E2083F84650DAE7DB
:20E34000042D26D1144A9DF83C30482101FB0323012283F8462093F82D2083F82E20114AAB
:20E360002146502014460D4600FB014696F82060F6077FF5FFAE978C5E8D0131B74208BFAB
:20E3800082F83950782902F15002EDD1F2E6002319E7022458E700BFC8360020383F002002
:20E3A000543F0020FC4500202DE9F0418046A4B098B1664B002650211F4601FB06F55A1988
:20E3C00092F82000C00705D5508CB8F82220904200F090800136782EEFD1032472E0092B08
:20E3E00077D01E2B40F0B080062370E05A2B6DD004D8372B40F0A880022368E0632B77D01A
:20E40000FF2B40F0A180502404FB067398F82F2083F82F201A6B5A6398F82F20FF2A14BFCF
:20E4200098F83820002204FB067483F8382005F13A033B44184684F8391008F13A012BF062
:20E440005FF904218DF84010618CADF86210A18C98F84F20ADF8641094F8261084F84F2074
:20E460008DF8661001460DF17A008DF88F202BF047F905F127033B440DF1670203F1200138
:20E4800053F8040B42F8040B8B42F9D114AD0FCD6C460FC40FCD0FC40FCD0FC495E80F0036
:20E4A00084E80F0010AB0FCBFFF784FC502303FB0676044696F83920718CB08C0132D2B2C8
:20E4C000FFF718FE204624B0BDE8F0810423136399E70523FBE70723F9E7312B8CD005D81A
:20E4E000002BF4D01C2B2FD10123F0E7522B86E70323ECE798F83910022913D15022144C4E
:20E50000002302FB0672E01890F81AE0BEF1000F1AD0B0F818E0908C864503D01C33B3F5F0
:20E52000D26FF0D1502202FB067298F82F30D07F0028D2D0212BD7D03FF658AF032BCAD0F3
:20E540003FF64DAF002BC2D00224BBE7FC450020583F0020074A01230A215370B0FBF1F0FE
:20E560008340506803435360034B4FF49671186805F0BEBD383F0020543F002010B5044B41
:20E580001C78047058881B790880137010BD00BFB83600202DE9F0410F461E4906460022E9
:20E5A000502000FB0214D3B294F82050ED0702D5658CB54213D00132782AF2D1BDE8F08115
:20E5C000154B02221A705E8083F80480FCF76EFF2A46618CA08CBDE8F041FFF78BBD0F49FB
:20E5E00001250A22B3FBF2F3CA680D7605FA03F31343CB600A4B0D724FF0000884F83980BB
:20E600004FF49671186805F073FD002FD8D1BDE8F08100BFFC450020B8360020383F002018
:20E62000543F0020F8B50D460E490023502606FB03F28C1894F82070FF0710D5678C8742DA
:20E640000AD194F83930022B09D13A32114428462BF056F80020F8BD0133782BE7D10220C5
:20E66000F8BD00BFFC4500200C4B30B500211C461C259A7E6AB1DA8A824204D105FB014252
:20E68000D27ED20707D401313C2903F11C03F0D10022104630BD0122FBE700BF583F00202B
:20E6A0000C4B30B500211C461C259A7E6AB1DA8A824204D105FB0142D27E920707D40131F1
:20E6C0003C2903F11C03F0D10022104630BD0122FBE700BF583F0020084910B500231C24A8
:20E6E00004FB0312907E40B1D07E10F0010003D101333C2BF4D110BD012010BD583F002012
:20E70000014B1878704700BFF825022010B58CB006238DF814309DF8183060F301038DF8BC
:20E7200018300CAB044613E907008DE8070005AB0FCBFEF739FF054B1C70054B18680A2183
:20E740000CB0BDE8104005F0D3BC00BFF8250220C436002070B5A4B0032314AD8DF8403017
:20E760000FCD6C460FC40FCD0FC40FCD0FC495E80F0084E80F0010AB0FCBFFF71BFB0446E8
:20E78000A0BB1B4B1B7813B90220FFF7BFFF4FF41652002117482AF05FF8174B00221D4600
:20E7A0004820114600FB025696F82C60F6070FD4124B01221A761A7240F6FF72DA60104B75
:20E7C0004FF41661186805F093FC204624B070BD01321E2A83F82D1083F82E1083F8441059
:20E7E00083F8461003F14803DCD1E1E70224ECE7F8250220FC450020C8360020383F002046
:20E80000543F002013B50023019300931A4619460320FFF747FA0446D8B90F4B1B78012B26
:20E8200002D10220FFF772FF4FF4D26200210B482AF012F80A4B01225A701A763F225A6080
:20E84000084B4FF49671186805F052FC204602B010BD0224FAE700BFF8250220583F0020B7
:20E86000383F0020543F002070B5A0B00EAE48220021304629F0F0FF12AD03238DF8383042
:20E880000FCD6C460FC40FCD0FC40FCD0FC495E8030084E8030096E80F00FFF7A5FA014661
:20E8A000B0B94FF407620C4829F0D6FF0B4B01221A7407225A610A4B4FF49671186805F002
:20E8C00017FCFFF747FF20B0BDE87040FFF79ABF022020B070BD00BFC8360020383F0020E2
:20E8E000543F00202DE9F04385B086B20390234AC0F30740C0F3400500F00108EFB2002300
:20E900009146D18AB142DCB2917E2DD101292BD11C2202FB03932046DA7E68F3000267F3CB
